:020000040800F2
:1050000000500020919D0008B1910008B391000864
:10501000BD910008C7910008D19100080000000070
:10502000000000000000000000000000DB9100080C
:10503000DD91000800000000DF910008E191000808
:10504000E59D0008E59D0008E59D000845940008E1
:10505000E59D0008E59D0008519200087192000846
:1050600091920008C5920008E5920008E59D0008AD
:10507000E59D0008E59D0008E59D0008AD94000849
:10508000E59D0008E59D0008F1910008E59D0008F8
:10509000B1940008E59D0008E59D0008059300080F
:1050A000E59D0008E59D0008E59D0008CD930008FA
:1050B00015940008259400083594000821920008F2
:1050C00031920008E59D0008E59D00084192000826
:1050D000E59D00080192000811920008E59D000876
:1050E000559300086D940008E59D0008000000003D
:1050F00000000000000000000000000000000000B0
:0C51000000000000000000005FF808F153
:1051100081F0004102E000BF83F0004330B54FEA68
:1051200041044FEA430594EA050F08BF90EA020FD5
:105130001FBF54EA000C55EA020C7FEA645C7FEA68
:10514000655C00F0E2804FEA5454D4EB5555B8BF8B
:105150006D420CDD2C4480EA020281EA030382EAFC
:10516000000083EA010180EA020281EA0303362D8E
:1051700088BF30BD11F0004F4FEA01314FF4801C61
:105180004CEA113102D0404261EB410113F0004F73
:105190004FEA03334CEA133302D0524263EB43032A
:1051A00094EA050F00F0A780A4F10104D5F1200EC8
:1051B0000DDB02FA0EFC22FA05F2801841F1000123
:1051C00003FA0EF2801843FA05F359410EE0A5F1F7
:1051D00020050EF1200E012A03FA0EFC28BF4CF028
:1051E000020C43FA05F3C01851EBE37101F00045DE
:1051F00007D54FF0000EDCF1000C7EEB00006EEBEB
:105200000101B1F5801F1BD3B1F5001F0CD3490874
:105210005FEA30004FEA3C0C04F101044FEA4452CB
:1052200012F5800F80F09A80BCF1004F08BF5FEA52
:10523000500C50F1000041EB045141EA050130BD32
:105240005FEA4C0C404141EB010111F4801FA4F1D5
:105250000104E9D191F0000F04BF01460020B1FA2A
:1052600081F308BF2033A3F10B03B3F120020CDA62
:105270000C3208DD02F1140CC2F10C0201FA0CF040
:1052800021FA02F10CE002F11402D8BFC2F1200CA5
:1052900001FA02F120FA0CFCDCBF41EA0C0190405B
:1052A000E41AA2BF01EB0451294330BD6FEA0404A4
:1052B0001F3C1CDA0C340EDC04F11404C4F120028F
:1052C00020FA04F001FA02F340EA030021FA04F3A1
:1052D00045EA030130BDC4F10C04C4F1200220FAF8
:1052E00002F001FA04F340EA0300294630BD21FA36
:1052F00004F0294630BD94F0000F83F4801306BFFC
:1053000081F480110134013D4EE77FEA645C18BFEF
:105310007FEA655C29D094EA050F08BF90EA020F86
:1053200005D054EA000C04BF1946104630BD91EA7E
:10533000030F1EBF0021002030BD5FEA545C05D181
:105340004000494128BF41F0004130BD14F58004C0
:105350003CBF01F5801130BD01F0004545F0FE4134
:1053600041F470014FF0000030BD7FEA645C1ABF69
:10537000194610467FEA655C1CBF0B46024650EAA0
:10538000013406BF52EA033591EA030F41F40021CC
:1053900030BD00BF90F0000F04BF0021704730B552
:1053A0004FF4806404F132044FF000054FF0000127
:1053B00050E700BF90F0000F04BF0021704730B5E8
:1053C0004FF4806404F1320410F0004548BF4042BD
:1053D0004FF000013EE700BF42004FEAE2014FEA12
:1053E00031014FEA02701FBF12F07F4393F07F4FED
:1053F00081F06051704792F0000F14BF93F07F4F1F
:10540000704730B54FF4607401F0004521F0004161
:1054100020E700BF50EA010208BF704730B54FF0E7
:1054200000050AE050EA010208BF704730B511F0EC
:10543000004502D5404261EB41014FF4806404F124
:1054400032045FEA915C3FF4DCAE4FF003025FEAA6
:10545000DC0C18BF03325FEADC0C18BF033202EB2E
:10546000DC02C2F1200300FA03FC20FA02F001FA88
:1054700003FE40EA0E0021FA02F11444C1E600BF27
:1054800070B54FF0FF0C4CF4E06C1CEA11541DBFDA
:105490001CEA135594EA0C0F95EA0C0F00F0DEF8A5
:1054A0002C4481EA030621EA4C5123EA4C5350EA8A
:1054B000013518BF52EA033541F4801143F48013DB
:1054C00038D0A0FB02CE4FF00005E1FB02E506F06C
:1054D0000042E0FB03E54FF00006E1FB03569CF0C1
:1054E000000F18BF4EF0010EA4F1FF04B6F5007FC7
:1054F00064F5407404D25FEA4E0E6D4146EB060639
:1055000042EAC62141EA55514FEAC52040EA5E50C1
:105510004FEACE2EB4F1FD0C88BFBCF5E06F1ED86B
:10552000BEF1004F08BF5FEA500E50F1000041EBA2
:10553000045170BD06F0004646EA010140EA02004F
:1055400081EA0301B4EB5C04C2BFD4EB0C0541EA71
:10555000045170BD41F480114FF0000E013C00F386
:10556000AB8014F1360FDEBF002001F0004170BDAA
:10557000C4F10004203C35DA0C341BDC04F11404C3
:10558000C4F1200500FA05F320FA04F001FA05F24F
:1055900040EA020001F0004221F0004110EBD3701C
:1055A00021FA04F642EB06015EEA430E08BF20EA48
:1055B000D37070BDC4F10C04C4F1200500FA04F3EB
:1055C00020FA05F001FA04F240EA020001F000417D
:1055D00010EBD37041F100015EEA430E08BF20EAF0
:1055E000D37070BDC4F1200500FA05F24EEA020E38
:1055F00020FA04F301FA05F243EA020321FA04F067
:1056000001F0004121FA04F220EA020000EBD3701D
:105610005EEA430E08BF20EAD37070BD94F0000F1D
:105620000FD101F00046400041EB010111F4801F51
:1056300008BF013CF7D041EA060195F0000F18BF02
:10564000704703F00046520043EB030313F4801F3E
:1056500008BF013DF7D043EA0603704794EA0C0FF8
:105660000CEA135518BF95EA0C0F0CD050EA41060E
:1056700018BF52EA4306D1D181EA030101F000418B
:105680004FF0000070BD50EA410606BF10461946B3
:1056900052EA430619D094EA0C0F02D150EA0136BF
:1056A00013D195EA0C0F05D152EA03361CBF104600
:1056B00019460AD181EA030101F0004141F0FE419F
:1056C00041F470014FF0000070BD41F0FE4141F423
:1056D000780170BD70B54FF0FF0C4CF4E06C1CEA23
:1056E00011541DBF1CEA135594EA0C0F95EA0C0FD8
:1056F00000F0A7F8A4EB050481EA030E52EA033593
:105700004FEA013100F088804FEA03334FF08055B3
:1057100045EA131343EA12634FEA022245EA1115E0
:1057200045EA10654FEA00260EF000419D4208BF91
:10573000964244F1FD0404F5407402D25B084FEA3E
:105740003202B61A65EB03055B084FEA32024FF4EA
:1057500080104FF4002CB6EB020E75EB030E22BF47
:10576000B61A754640EA0C005B084FEA3202B6EB07
:10577000020E75EB030E22BFB61A754640EA5C00B6
:105780005B084FEA3202B6EB020E75EB030E22BF46
:10579000B61A754640EA9C005B084FEA3202B6EB47
:1057A000020E75EB030E22BFB61A754640EADC0006
:1057B00055EA060E18D04FEA051545EA16754FEA68
:1057C00006164FEAC30343EA52734FEAC2025FEA86
:1057D0001C1CC0D111F4801F0BD141EA00014FF015
:1057E00000004FF0004CB6E711F4801F04BF0143E6
:1057F0000020B4F1FD0C88BFBCF5E06F3FF6AFAE02
:10580000B5EB030C04BFB6EB020C5FEA500C50F191
:10581000000041EB045170BD0EF0004E4EEA113114
:1058200014EB5C04C2BFD4EB0C0541EA045170BD1B
:1058300041F480114FF0000E013C90E645EA060E5F
:105840008DE60CEA135594EA0C0F08BF95EA0C0F8D
:105850003FF43BAF94EA0C0F0AD150EA01347FF4D5
:1058600034AF95EA0C0F7FF425AF104619462CE7AC
:1058700095EA0C0F06D152EA03353FF4FDAE10460F
:10588000194622E750EA410618BF52EA43067FF460
:10589000C5AE50EA41047FF40DAF52EA43057FF4F0
:1058A000EBAE12E74FF0FF3C06E000BF4FF0010CFB
:1058B00002E000BF4FF0010C4DF804CD4FEA410C5F
:1058C0007FEA6C5C4FEA430C18BF7FEA6C5C1BD02C
:1058D00001B050EA410C0CBF52EA430C91EA030FAD
:1058E00002BF90EA020F0020704710F1000F91EA0A
:1058F000030F58BF994208BF90422CBFD8176FEAD8
:10590000E37040F0010070474FEA410C7FEA6C5CA5
:1059100002D150EA013C07D14FEA430C7FEA6C5CAC
:10592000D6D152EA033CD3D05DF8040B704700BFD8
:105930008446104662468C461946634600E000BF26
:1059400001B5FFF7B7FF002848BF10F1000F01BDF8
:105950004DF808EDFFF7F4FF0CBF012000205DF8C3
:1059600008FB00BF4DF808EDFFF7EAFF34BF012048
:1059700000205DF808FB00BF4DF808EDFFF7E0FFE1
:1059800094BF012000205DF808FB00BF4DF808ED32
:10599000FFF7CEFF94BF012000205DF808FB00BF99
:1059A0004DF808EDFFF7C4FF34BF012000205DF87B
:1059B00008FB00BF4FEA410212F5001215D211D5C3
:1059C0006FF47873B3EB625212D94FEAC12343F0FC
:1059D000004343EA505311F0004F23FA02F018BF7E
:1059E000404270474FF00000704750EA013005D147
:1059F00011F0004008BF6FF0004070474FF000000A
:105A0000704700BF4A0011D212F5001211D20DD515
:105A10006FF47873B3EB62520ED44FEAC12343F0B4
:105A2000004343EA505323FA02F070474FF000005E
:105A3000704750EA013002D14FF0FF3070474FF00D
:105A4000000070474FEA4102B2F1E04324BFB3F5D2
:105A5000001CDCF1FE5C0DD901F0004C4FEAC002E5
:105A60004CEA5070B2F1004F40EB830008BF20F0C9
:105A70000100704711F0804F21D113F13872BCBF83
:105A800001F00040704741F480114FEA5252C2F1D8
:105A90001802C2F1200C10FA0CF320FA02F018BF21
:105AA00040F001004FEAC1234FEAD32303FA0CFC74
:105AB00040EA0C0023FA02F34FEA4303CCE77FEA03
:105AC000625307D150EA01331EBF4FF0FE4040F44D
:105AD0004000704701F0004040F0FE4040F40000FC
:105AE000704700BF80F0004002E000BF81F000413D
:105AF00042001FBF5FEA410392EA030F7FEA226C74
:105B00007FEA236C6AD04FEA1262D2EB1363C1BF03
:105B1000D218414048404140B8BF5B42192B88BF72
:105B2000704710F0004F40F4000020F07F4018BF95
:105B3000404211F0004F41F4000121F07F4118BFB5
:105B4000494292EA030F3FD0A2F1010241FA03FC5D
:105B500010EB0C00C3F1200301FA03F100F0004345
:105B600002D5494260EB4000B0F5000F13D3B0F10D
:105B7000807F06D340084FEA310102F10102FE2A7C
:105B800051D2B1F1004F40EBC25008BF20F00100EC
:105B900040EA03007047490040EB000010F4000F9A
:105BA000A2F10102EDD1B0FA80FCACF1080CB2EB2D
:105BB0000C0200FA0CF0AABF00EBC250524218438C
:105BC000BCBFD0401843704792F0000F81F4000131
:105BD00006BF80F400000132013BB5E74FEA410304
:105BE0007FEA226C18BF7FEA236C21D092EA030F70
:105BF00004D092F0000F08BF0846704790EA010FEA
:105C00001CBF0020704712F07F4F04D1400028BF16
:105C100040F00040704712F100723CBF00F50000F8
:105C2000704700F0004343F0FE4040F4000070472E
:105C30007FEA226216BF08467FEA236301464202DA
:105C400006BF5FEA412390EA010F40F480007047ED
:105C50004FF0000304E000BF10F0004348BF404293
:105C60005FEA000C08BF704743F0964301464FF0CF
:105C700000001CE050EA010208BF70474FF000032B
:105C80000AE000BF50EA010208BF704711F000436C
:105C900002D5404261EB41015FEA010C02BF84463C
:105CA0000146002043F0B64308BFA3F18053A3F59B
:105CB0000003BCFA8CF2083AA3EBC25310DB01FAE2
:105CC00002FC634400FA02FCC2F12002BCF1004F66
:105CD00020FA02F243EB020008BF20F001007047F7
:105CE00002F1200201FA02FCC2F1200250EA4C004B
:105CF00021FA02F243EB020008BF20EADC70704791
:105D0000014B0360704700BF005D0108014B036059
:105D1000704700BF185D010810B501F011FC0B4C75
:105D20000A22206061680A4801F0CDFF236862689A
:105D3000934209D90748016820895B18636001F024
:105D4000BBFB0122E060227410BD00BF880400206C
:105D50003C1600200000002030B5204999B00446D0
:105D60001F4801F05AFF21461D4801F06BFF012337
:105D70002146002201A802F0ABF901A802F0D5F9F2
:105D800021460222054605A802F0C8F905A802F03E
:105D9000CCF9044613492A46234609A80DF0A8FE6B
:105DA0000F4809A901F058FF022C06D0032C07D098
:105DB000012C09D10A480C4904E009480B4901E0CB
:105DC00007480B4901F048FF05A802F0D1F801A8E7
:105DD00002F0CEF8012019B030BD00BF34870108B1
:105DE0003C1600203F8701085A8701085D8701089B
:105DF0006187010870B538498EB00446374801F014
:105E00000CFF2146354801F01DFF20462C2102F0F1
:105E10005CF905462B46214602A8002202F058F9FB
:105E20006A1C214606A802F079F906A802F07DF95D
:105E3000FFF7C0FA04460D462848294901F0EDFE57
:105E400002A9264801F0FEFE2649244801F0E5FE9D
:105E500006A9224801F0F6FE2349204801F0DDFEA4
:105E60000223224600931D482B4602F00CF81F49DE
:105E70000AA802F0BFF802A80AA902F0F9F806463B
:105E80000AA802F075F836B929462046FFF792FDB8
:105E90001749486112E017490AA802F0ABF802A8B6
:105EA0000AA902F0E5F806460AA802F061F83EB930
:105EB00020462946FFF77EFD0D4B9861012401E045
:105EC0004FF0FF3406A802F053F802A802F050F891
:105ED00020460EB070BD00BF348701083C1600207C
:105EE0006787010870870108778701087F870108A5
:105EF000880400208B870108014803F069BE00BFB9
:105F0000A4040020034B10B50446036000F0D8FD44
:105F1000204610BD005D0108034B10B50446036028
:105F200000F0CEFD204610BD185D010838B51E4CAE
:105F30001E4D2089022101F0E7F9002220891C4929
:105F400001F02EFD28464FF4E13102F0DDFC284639
:105F5000184901F081FE2846174901F05EFE2846E7
:105F6000164901F079FE2846154901F075FE04F145
:105F700048010922134800F091FE04F15001092262
:105F8000114800F08BFE04F10C0102220F4800F0D2
:105F900085FE0F480F4900F0BFFE0F480F49BDE8CE
:105FA000384000F0B9BE00BF880400203C16002035
:105FB000195D000897870108AF870108BD870108B0
:105FC000C1870108D1870108E5870108F887010822
:105FD00002880108595D000808880108F55D00087D
:105FE0007FB55D495D4801F018FE5D495B4801F0F1
:105FF00014FE5C4803F0B2FD58485B4901F02CFEEA
:10600000584803F081FE0028FAD1564803F086FE76
:10601000073007281DD8DFE800F0191613100D0A05
:1060200007044E48514916E04C48514913E04B488B
:10603000504910E0494850490DE048484F490AE0AE
:1060400046484F4907E045484E4904E043484E4919
:1060500001E042484D494E4C01F0FEFD04F11C00A8
:1060600003F06EFEFFF7B8F90225C4E914014949AF
:106070003A4801F0D2FDD4E914230095374801F0E5
:1060800002FF4549354801F0C8FD0A22A16933489D
:1060900001F045FE04F11C0003F042FEFFF79CF9FD
:1060A000C4E912013D492D4801F0B7FDD4E912239E
:1060B00000952A4801F0E7FE3949284801F0ADFD76
:1060C0000A226169254801F02AFE208901F0F4F9CD
:1060D0003449E060214801F0A0FDE1680A221F4830
:1060E00001F01DFED4E91401D4E91223CDE9000129
:1060F000E16804F1580002912B490DF0F9FC04F11C
:1061000058012A4800F056FE01F01AFA4FF47A734B
:10611000B0FBF3F0264B4FF46162B0FBF3F603FBE8
:1061200016063C23B0FBF2F5B0FBF3F102FB1505BC
:1061300003FB1100B6FBF2F200901E4904F1A3002C
:10614000B5FBF3F30DF0D4FC044804F1A30104B053
:10615000BDE8704001F080BD158801083C160020A4
:106160003B880108A40400204988010859880108D7
:106170005C880108738801088E880108AE880108D0
:10618000CA880108DC880108F88801080C89010820
:10619000880400201A890108298901084289010818
:1061A00055890108728901087F890108BD890108A4
:1061B00080510100C889010873B5134C002104F116
:1061C000EC05124E0B4600910A46284601F0A0FC51
:1061D00032460F4928460DF05BFA01F0B1F90D4B3C
:1061E000C4F8F40059680C4A04F11C00F83403F0B8
:1061F000AFFC204602F0E2F808492046324602B0E1
:10620000BDE870400DF044BA8804002080070020EB
:10621000015D000800000020F95E00080D5D000827
:1062200037B57F4C7F49804801F016FD04F1F80036
:106230007E4941F6917202F02DF8002800F0BF80EF
:106240007B49794801F008FD04F1F800794901F033
:10625000E4FC04F1F800784901F0DFFC04F1F800F7
:10626000764901F0DAFC04F1F800754901F0D5FC3B
:1062700004F1F800734901F0D0FC04F1F800724910
:1062800001F0CBFC04F1F800704901F0C6FC04F108
:10629000F8006F4901F0C1FC04F1F8006D4901F00C
:1062A000BCFC04F1F8006C4901F0B7FC04F1F80003
:1062B0006A4901F0B2FC04F1F800694901F0ADFC53
:1062C00004F1F800674901F0A8FC04F1F800664900
:1062D00001F0A3FC04F1F800644901F09EFC0225E2
:1062E000634904F1F80001F098FCD4E9142304F1A7
:1062F000F800009501F0C2FD04F1F8005D4901F0DD
:106300008CFC04F1F8005C4901F087FC04F1F80012
:10631000554901F082FC04F1F800584901F07DFC78
:10632000534904F1F80001F078FCD4E9122304F198
:10633000F800009501F0A2FD04F1F8004D4901F0CC
:106340006CFC04F1F8004C4901F067FC04F1F80022
:10635000454901F062FC04F1F800494901F05DFC97
:1063600004F1F800424901F058FC0A22E16804F106
:10637000F80001F0D2FC04F1F8003E4901F04DFCB8
:1063800004F1F8003F4901F048FC04F1F8003E49EF
:1063900001F043FC04F1F8003C4901F03EFC04F13B
:1063A000F8003B4901F039FC04F1F800394901F0EB
:1063B00034FC04F1F80001F039FC65240BE01A48C4
:1063C000354901F049FC4FF0FF3027E00A2001F089
:1063D000C9F8013C04D0314801F092FF0028F5D003
:1063E0002E4801F08DFF38B12C4801F0ADFEC1B24E
:1063F0000D4801F016FCF3E7284802F009F830B91F
:106400000948274901F028FC244801F0D0FE234820
:1064100001F0C7FE214801F0CAFE01203EBD00BFC9
:1064200088040020FD8901083C160020158A010817
:10643000248A0108238B0108448A0108588A01082C
:10644000708A0108008B01087B8A01088C8A010888
:10645000A88A0108D98A0108DD8A01081F8B010872
:10646000E88A0108038B01081B8B0108258B0108B2
:10647000428B01085E8B0108608B01086B8B010861
:10648000938B0108B18B0108BB8B0108648B010859
:10649000C38B0108B98B0108D98B01088005002046
:1064A000EB8B010830B5254C85B0D4F8F45001F0E1
:1064B00047F8854202D90023C4F8F43001F040F8CF
:1064C0001F4AD4F8F4109468401AA0420DD9FFF77F
:1064D00087FD01F035F8194BC3F8F400FFF7A0FE73
:1064E0000A220146174801F01AFC144C217C0029AD
:1064F00022D0002020741449124801F08EFB01F0D4
:106500001FF82268811A0A220E4801F0DCFBD4E948
:106510001401D4E91223CDE90001E16804F1580027
:1065200002910A490DF0E4FA094804F1580105B056
:10653000BDE8304000F03EBC05B030BD880400200E
:10654000000000203C160020FA8B01087F8901081A
:10655000BD89010810B50131002393420ED0040F0C
:10656000092C01D8303400E0373401F8014C0133F4
:106570000024000101F8024BDBB2EEE710BD000081
:106580001F4B10B51A88032A04D80420014618802E
:1065900006F0ACFF4FF000604FF4A04106F09CFF06
:1065A0001848012421460470174807F0B9F906F08D
:1065B00039F805F021FD2146402007F06FFA6FF011
:1065C0007F4005F085FEE72005F0FEFE0F490C70C8
:1065D00005F05AFD7D2007F085FA18B10C4B1C70B0
:1065E00007F094FA40F6B83005F0A6FD06F0F8FA88
:1065F00006F072FD074A084901201070087010BDAE
:1066000064170020401700200004300064160020AA
:10661000DC200020F0160020E6160020304B10B5DC
:106620001A88042A04D805210420198006F05EFF88
:106630002C48017811B12C4802F0ACFB294C23788E
:1066400053B127480288052A04D806210180042076
:1066500006F04CFF02F022FC217861B1234C237834
:106660004BB92348027832B122490C781CB9224B2D
:1066700018780028E2D0214A11780029DED1204C78
:106680002378002BDAD11C480278012A0FD01D494B
:1066900069B1134C2388062B04D8072104202180DC
:1066A00006F024FFFFF742FC134A01201070164940
:1066B0000029C3D00A4C2388072B04D808210420C2
:1066C000218006F013FFFFF7EDFE20880828B5D8DB
:1066D000034A09210420118006F008FFAEE700BF3D
:1066E00064170020F0160020D96F0008A5160020BE
:1066F000E61600206216002018060020631600200F
:10670000DC2000202D5F0008A5640008524B70B506
:106710001A6812B11868411E1960504B1A783AB1C4
:106720004F4A1078002829D04E49002949D125E048
:106730004D4C206810B12368591E0FE04B490B786F
:10674000E3B94B4A1078C8B94A490B78B3B94A4DF6
:106750002A782AB1E72005F0B1FE142121600DE06E
:106760004648017800292FD1E72005F05BFE444818
:106770003D4B0178002935D032221A603F4B1A7800
:1067800032B1404D287818B92EE041684B1C436067
:106790003D490B68B3F57A7F0FD300230B6007F0F8
:1067A0001DF93A484FF6FF7102888A4253D00180A2
:1067B0000420BDE8704006F099BE0868421C0A60DB
:1067C00070BD00F06DFCD9E7314B1A78002ACBD0B0
:1067D0004FF6FF7005F07CFDE72005F0F5FD012088
:1067E0002870CBE76422C8E721490B7893B1294888
:1067F00047F22F5243689342C7D9BFF34F8F264CBD
:106800002648E56805F4E06646EA0002E260BFF368
:106810004F8FFEE7154E347834B9204605F062FFFD
:1068200040F6B73290420DD8002005F05BFF41F6EC
:1068300057318842ACD9002005F05CFF184B01208D
:106840001870A5E7204605F055FF2A78002A9FD149
:10685000012131709CE770BDE4200020201700204A
:10686000B4090020A1700008E02000209416002048
:10687000631600206516002064160020F016002024
:1068800061160020A5160020E820002064170020D3
:10689000621600201806002000ED00E00400FA0552
:1068A0009216002008B5094B186006F043F9002045
:1068B00006F088F9064805F0C3FB06F051F906F02A
:1068C0006FF9BDE8084008F029B800BFC0020020F9
:1068D000A0860100074B1868052808D106490A7AE6
:1068E000012A04D1887A0B7BC11AC8B270470020F4
:1068F000704700BF68170020180600200D4B10B528
:106900001868052813D10C4C217A01290FD162890E
:10691000A389D01A012804D100210320217208F094
:1069200068F9A389E218591C907BA18110BD4FF032
:10693000FF3010BD681700201806002008B50C4B6A
:106940001968052912D10B4B1A6D991881F854005A
:10695000501CB0F5807F08BF0020186505F0BAFF15
:1069600020B16420BDE8084005F06ABB08BD00BF47
:10697000681700201806002070B5234A92F8543199
:10698000012B3FD0D2F85801B0F5807F02D1002111
:10699000C2F85811D2F85831126D1B48934203D1F6
:1069A000002180F8541170BD8CBFC3F58072C3EB19
:1069B0000202154CC0F85C21D4F85C5199B2402D0C
:1069C00007D94033403DC4F85831C4F85C514026E3
:1069D00006E0E8180023AEB2C4F85801C4F85C31F0
:1069E0000A4A01255018C021324684F8545108F053
:1069F00077F82846314608F07DF92846BDE8704012
:106A000008F0E6B870BD00BF180600206C06002034
:106A1000094B10B593E814000833186810180AD011
:106A200008220649FFF796FD054920460422BDE8E5
:106A30001040FFF78FBD10BDE8F7FF1F6F02002069
:106A40007F02002013B5084C002100910A460B4636
:106A5000204601F05DF80549054A204602B0BDE830
:106A600010400CF015BE00BF78070020015D000843
:106A70008007002038B50D460446AC4203D254F8D6
:106A8000043B9847F9E738BD08B507480749FFF7C1
:106A9000F1FF07480749FFF7EDFF07480749BDE841
:106AA0000840FFF7E7BF00BF80910108809101080F
:106AB00080910108E0910108E0910108E09101084E
:106AC0000CF088BE08B5072006F030FCFEE7000099
:106AD000074A08B51368074918188842106004D996
:106AE000082006F023FC0CF00DFE184608BD00BF80
:106AF0000C000020004800204FF0FF3070470120BC
:106B0000704708B50C2006F011FCFEE7014B186831
:106B1000704700BF84070020064B0246582000FB48
:106B2000013101F1080303CB1060516018689060D7
:106B3000704700BF84070020014BD3F86401704701
:106B400084070020064B0246142000FB013101F5AA
:106B5000B67303CB1060516018689060704700BF37
:106B6000840700200E4B2DE9F041D3F86471804674
:106B70000024BC4211DA14256543094E41467019C0
:106B800000F5B6700C220CF0FFFF20B97519D5F88E
:106B90006801BDE8F0810134EBE70020BDE8F08139
:106BA000840700202DE9F04788B0814668460D46ED
:106BB00001F020FA1E4B0024D3F800A054452DDA32
:106BC00055B3582666431A4F494607F1040808EBA7
:106BD000060004300C220CF0D7FFE8B928460CF070
:106BE000CBFF06F11001402834BF0246402208EBDB
:106BF000010029460CF05DFEBE19012286F85820DE
:106C0000694604A8746801F017FA04A8A04704466E
:106C100004A801F0ADF903E00134CFE74FF0FF34F1
:106C2000684601F0A5F9204608B0BDE8F08700BF2E
:106C30008407002038B50546064C28B105F0EAFB6C
:106C4000012384F8303238BD05F092FB84F83052CD
:106C500038BD00BF84070020024B00221A6006F0F6
:106C60005BB800BF1C060020034A044800231370D1
:106C7000036006F089B800BF631600201C060020E0
:106C8000044B0549002001221A7008604FF4C0200F
:106C900006F01CB8631600201C0600202DE9F843FE
:106CA000044691460F4689B380B3194BD3F864511B
:106CB0000A2D2BD00026AE4216484FF014010CDAF4
:106CC00071434258BA4206D14118081D0C22214690
:106CD0000CF05AFFD0B10136EDE76943A0F5B47866
:106CE00008EB01064218101D0021C6F8687186F8ED
:106CF00078910C220CF000FE2068616806F5B673EE
:106D000003C3A06801351860C8F86451BDE8F88372
:106D100084070020EC0800202DE9F84F044689463E
:106D2000002941D000283FD0204B1D68042D3BD0C6
:106D30000027AF421E4E4FF058080FDA08FB07F845
:106D400056F80810494507D106EB0802101D2146E8
:106D50000C220CF019FF38B30137EAE708FB05F8FD
:106D6000A6F1040A0AEB080708F11000C7F804901E
:106D70000021402230180CF0BFFD06EB0801081D71
:106D80000C2200210CF0B8FD2068616807F10802B0
:106D900003C2A3680020013507F1040B87F85800EF
:106DA0001360543746F8045CBDE8F88F8407002070
:106DB0008807002007B503460A466521009103486D
:106DC00019463C2308F0C2F90EBD00BFB8090020E7
:106DD00073B5002B0CBF6523452306460D461446AC
:106DE000009331462A462346014808F0AFF97CBD9E
:106DF000B809002010B5064C206803F011FC236888
:106E0000013303D0411E4842484110BD012010BD4E
:106E100010000020F0B5274B0646187887B00F46C3
:106E2000002843D124490A78002A3FD1FFF7E2FF26
:106E3000044600283AD1214D8DF80C002B688DF8BE
:106E40000D008DF80E008DF80F0006A9580901EB12
:106E5000800203F01F01012000FA01F052F80C1C1F
:106E60000494014342F80C1C04A841F288320592B4
:106E7000009003A9581C2246234604F06FFA00280C
:106E800016DD2B6806A95D0901EB850050F80C5C46
:106E900003F01F0245FA02F515F0010008D018466C
:106EA00031463A46234604F0F9FA01E04FF0FF304C
:106EB00007B0F0BDA4160020A51600201000002089
:106EC00038B50B4B054618780C4668B909490A785D
:106ED00052B9FFF78FFF034630B9074829462246CB
:106EE000006804F059FB38BD4FF0FF3038BD00BFDB
:106EF000A4160020A51600201000002030B51F4861
:106F0000ADF57B7D07F066FF002834D11C481D4B92
:106F100006901D4D1D4805931D491E4A1E4B0A959E
:106F20000C901E4D1E48079108920B931D491E4A56
:106F30001E4B0F9511901E4D1E481F4C0D910E9229
:106F40001E491F4A10931F4B1495169061AD17A848
:106F5000129113921593099404900EAC039505F0C9
:106F600059FF284605F05CFF00940448164903AA1F
:106F700005AB07F036FF0DF57B7D30BDB80900206D
:106F8000156E0008C16E0008596C000841750008B4
:106F9000816C0008696C0008356C0008196B0008EA
:106FA000396B0008498500080D6B0008A56B0008C7
:106FB000656B000841CE000851CE0008456B000803
:106FC000AD7200082DCE0008E8F7FF1F014808F059
:106FD00088BE00BFB809002030B5022011228DB054
:106FE000014604F005F9051E28DB154907A808F03D
:106FF0003EF8022316200024ADF80C308DF80E0068
:107000003321E0220123BB208DF811408DF80F10B1
:107010008DF810208DF812308DF813000324102203
:1070200003A90091019200231322284607A904F026
:10703000BDFA013CF3D1284604F008F90DB030BD8B
:10704000E8F7FF1F30B5134C87B0FFF757FF204616
:1070500007F0C3FE204608F0D5FA0546FFF7BCFF4F
:10706000204608F058F803A803F092FC9DF80D2084
:107070009DF80C300092082104A8074A0CF006FD88
:10708000064804A93C220123FFF7A2FE284607B0C8
:1070900030BD00BFB80900201A8C0108208C0108FF
:1070A00038B5114CD4F8585B2DB1D4F8581B4B1E91
:1070B000C4F8583B38BDD4F85C3B0C4A52F8230066
:1070C00005F02EF9E72005F07FF9094A6420D4F88D
:1070D0005C1BC4F8580B50684B1C8342C4F85C3BE3
:1070E000A8BFC4F85C5B38BD84070020945C01082D
:1070F000100000207FB502200121062204F078F85C
:10710000041E23DB00200822022335218DF8020013
:107110004FF4FA50ADF800308DF803108DF80420CC
:107120008DF805208DF806208DF8072001F02AFE45
:10713000694606461022204604F0E4F8054630462B
:1071400001F020FE204604F081F801E04FF0FF3509
:10715000284604B070BD000010B5064C2068002819
:1071600005DB04F073F84FF0FF33236010BD0020FF
:1071700010BD00BF1000002030B5A7B0FFF7ECFF36
:1071800002200121062204F033F8334B0028186056
:1071900052DB3248022216213324A0F8602B80F8FB
:1071A000621B80F8634B05A805F000FE9DF81430C3
:1071B0000025009533B1012B17D0294B01A803F10D
:1071C000100502E0069A009214E002465968186819
:1071D000083303C2AB421046F7D101A906AC0FC970
:1071E00007C424F8023B1B0C23700A24009D0DB930
:1071F000013C24D1009808B91A490091009B174C12
:10720000180A1D0E1A0C84F8660B4FF4FA5084F815
:10721000673B84F8645B84F8652B01F0B3FD0E498D
:1072200005461022086804F5366104F06BF8044640
:10723000284601F0A7FD0CE04FF0FF3409E07E2165
:1072400006A80CF0B8FC6A4681B206A804F024F83F
:10725000CCE7204627B030BD100000208407002076
:107260003B8C010804E5D0360F4B2DE9F041D3F8F3
:10727000647180460024BC4211DA142565430A4E2D
:107280004146701900F5B6700C220CF07DFC20B957
:10729000751995F87801BDE8F0810134EBE74FF0FE
:1072A000FF30BDE8F08100BF8407002008B5FFF77C
:1072B000DBFF0138082803D8024B1918087F08BDE6
:1072C000022008BD945C010804F01CB837B50B4CD3
:1072D000002104F537650B4600910A46284600F068
:1072E00017FC28460649074A0CF0D2F904F50D7040
:1072F00003B0BDE8304007F05DBD00BF840700204B
:10730000015D00088007002014282DE9F3410446A0
:107310000E467CD8FF297AD000F0F2FD28B10D2C62
:1073200075D00F2C73D00E2C71D000F00DFB08B16E
:10733000012C6CD901F090FA18B1A4F11203012BC1
:1073400065D918206043334D33492F582A188F428E
:10735000B2F8048001D1042003E0304B9F4203D1F6
:107360000820012106F0A6FBADF80480062E4AD8BD
:10737000DFE806F004121A222A354100254B1821B5
:1073800001FB043410208DF8070003220020A073B5
:107390008DF80620083436E0042118238DF80710F4
:1073A00003FB045401212DE0482018228DF807002A
:1073B00002FB0454022125E0282118238DF8071030
:1073C00003FB045403211DE0124A182303208DF807
:1073D00007308DF8060003FB0424042112E00D4958
:1073E0001C230320182202FB04148DF807308DF8AB
:1073F0000600052106E0182202FB045400208DF847
:1074000007000621A173384601A906F029FABDE854
:10741000FC8100BF1800002000080140000C014062
:10742000142870B504460E4642D8224B182202FB9F
:107430000030817B01293BD0022939D0032937D084
:10744000062935D0FF2933D000F05AFD30B10D2C7C
:107450002ED00F2C2CD00E2C00D170BD00F074FA61
:1074600010B1012C00D870BD01F0F6F920B1A4F1E3
:107470001202012A00D870BD0E4D182303FB0450E0
:10748000817B042903D120460021FFF73DFF012E17
:1074900006D11822544328192B598188196170BDCF
:1074A00036B91822544328192B598188596170BD67
:1074B00070BD00BF18000020142838B5044618D845
:1074C0001E4B182202FB0030817BFF2911D00429BA
:1074D0000FD005290DD000F013FD28B10D2C08D0D8
:1074E0000F2C06D00E2C04D000F02EFA18B1012C6F
:1074F00001D8002038BD01F0AFF918B1A4F1120293
:10750000012AF6D90D4D182303FB0450817B06296F
:1075100006D195F8F811FF29EBD02046FFF7F4FECD
:10752000182254432D19054BAA7BA988185912B962
:1075300006F0ECF938BD06F0E3F938BD180000207C
:1075400005F0C0BC044B054958680A68044BB2FBFF
:10755000F3F1B0FBF1F07047001000E0B40300203D
:1075600040420F001FB504464FF47A731B48009346
:107570000268A118016005F0A5FC019006F02EFA42
:1075800005F0A0FC02900298019BC21A0392039995
:10759000002903DA0198029B1A1803920399A14269
:1075A0001BD20F480378002BE8D00E4A117800292F
:1075B000E4D10398009B984204D2084A1168B1F5BF
:1075C0007A7FDBD3039800F57A73009301F066FCB1
:1075D000054A11780029F9D1D0E71FBDA016002077
:1075E000F0160020A51600206316002004F028BD28
:1075F00013B5084C002100910A460B46204600F0C6
:1076000087FA0549054A204602B0BDE810400CF053
:107610003FB800BF28130020015D0008800700204C
:1076200038B5194B05461C88B3F80024A4B290B2B3
:1076300028B94EF6EE63E01A18BF012006E00CBB35
:107640004EF6EE63C41A624252EB0400840204F167
:10765000006201300D4B02F580448202D018844252
:107660000ED22268013209D1204606F0BFF8042864
:1076700009D1A01C294606F0B9F838BD0434EEE75C
:10768000802038BDAB2038BD00400008FE3F000818
:1076900008B5084806F0C6F804280AD100210548B4
:1076A00006F0A4F8042804D10348BDE8084006F019
:1076B000B9B808BD00400008004400080F4B10B5E1
:1076C0001A8893B20E4A128892B21BB10AB1AB204B
:1076D00010BD01239C020B4BE3180B4AA2189342E6
:1076E0000AD91A8892B2824204D133F8020C088077
:1076F000002010BD043BF0E7012010BD0040000851
:1077000000440008FE43000802400008F8B5434E5C
:1077100006F02CF8424D34884EF6EE61A4B22B8868
:107720008C4298B24FF6FF720FD0944202D0002CD8
:1077300042D070E000286AD088426CD1304606F012
:1077400071F8042869D1284632E048BB0446164641
:10775000344D35492B8831F8145098B2A84208BFEF
:10776000A6B232B2944203D10134642CF0D10FE0BE
:107770002D4F284607F1C801FFF7A0FF0128F3D0DD
:107780002846B7F8C810FFF74BFF0428ECD0F8BD27
:107790000021224806F02AF804283ED1204837E08C
:1077A000904238D1284606F03DF8042835D13046BD
:1077B000002106F01BF8F8BD00282CD09042EDD037
:1077C00016461A4D18492B8831F8145098B2A84221
:1077D00008BFA6B232B2944203D10134642CF0D176
:1077E0000FE0114F284607F1C801FFF767FF012896
:1077F000F3D02846B7F8C810FFF712FF0428ECD0E2
:10780000F8BD0021064805F0F1FF042805D1034822
:1078100006F008F8F8BDFFF73BFFF8BD0040000890
:107820000044000806400008301300200644000809
:1078300010B50446FFF76AFF0023044A22F813300C
:107840000133642BF9D1204610BD00BF3013002056
:107850000148FFF7EDBF00BFFA130020024B187874
:107860005978401A704700BFFC130020064B5A7825
:107870001978914204D99818013280785A7070476B
:107880004FF0FF30704700BFFC130020054B5A78C3
:107890001978914202D99818807870474FF0FF30DC
:1078A000704700BFFC13002070470000014B0360CD
:1078B000704700BF185D0108034B10B50446036014
:1078C000FFF7FEF8204610BD185D0108F8B5094B1A
:1078D000054693F82200164650B10C468F18BC425C
:1078E00006D0296828468A6814F8011B9047F6E7F5
:1078F0003046F8BDFC13002010B50C4B012293F864
:1079000022408CB193F823401F2C02D94260002002
:1079100010BD93F824001C1884F82510411CC8B22F
:1079200083F8240083F82300104610BDFC130020C8
:1079300000224260024A4FF47A718160026070470F
:10794000C85C010870477047014B93F859007047B5
:10795000FC13002073B50E4C002104F164050D4E9C
:107960000B4600910A46284600F0D2F86C343246A5
:10797000094928460BF08CFE2046FFF7D9FF07493E
:107980002046324602B0BDE870400BF081BE00BF19
:10799000FC13002080070020015D0008AD7800087E
:1079A000F0B5164618225043244B85B01C181D58BC
:1079B0002348A788854205D0224BEA1A544254EB4B
:1079C000020000E00020C7F3460500241DB1013489
:1079D0006D08E4B2FAE71C4B43F82410214605F089
:1079E000D1FF012E02978DF80C5006D003D3022E42
:1079F00006D10C2102E0102100E008218DF80D10C5
:107A000001208DF80E0002A805F058FE092C13D8AD
:107A10000E4A042C135D8DF8043001D90E2100E0CC
:107A20000D2100208DF80600012201A88DF8051017
:107A30008DF8072005F01CFD05B0F0BD18000020F2
:107A400000080140000C014078140020E85C0108A7
:107A50000D4B182273B502FB003086880025304696
:107A600005F07EFEC6F346041CB101356408EDB294
:107A7000FAE7684600968DF8064005F01FFE0349B8
:107A800041F825407CBD00BF18000020781400207C
:107A900008B5034B53F8200000B1804708BD00BF74
:107AA0007814002013B5084C002100910A460B46BB
:107AB000204600F02DF80549054A204602B0BDE8F1
:107AC00010400BF0E5BD00BFB8140020015D0008B8
:107AD000800700202DE9F041002407460E46254688
:107AE0003B1919790A22304600F0F7F82E2180461A
:107AF000304600F096F801344044032C0544EFD1A1
:107B00003046F9790A2200F0E8F82818BDE8F0813B
:107B100030B58371044D9DF80C3004460560017149
:107B20004271C37130BD00BF005D010805480021EE
:107B3000054B017141718171C171044A04490360AF
:107B40000BF0A6BDC0140020005D010880070020D6
:107B5000015D000813B5084C002100910A460B4650
:107B60002046FFF7D5FF0549054A204602B0BDE88B
:107B700010400BF08DBD00BFC8140020015D00084F
:107B800080070020014B0360704700BF185D0108AB
:107B9000F8B506460C468F180025BC4207D033685E
:107BA00030469A6814F8011B90472D18F5E72846CF
:107BB000F8BD0000034B10B504460360FEF780FFDC
:107BC000204610BD185D010838B505460C4608462C
:107BD00041B10BF0D1FF2B680246DB6828462146F5
:107BE000984738BD38BD2DE9F041002406460F46C0
:107BF0002546BB689C420DD230682146D0F80880EB
:107C0000384600F04BFA01463046C04701342D1883
:107C1000A4B2EEE72846BDE8F08108B5FFF7D4FF2F
:107C200008BD08B503689A68904708BD38B50D21AE
:107C30000546FFF7F6FF0A2104462846FFF7F1FF45
:107C4000001938BD38B50446FFF7CDFF054620467C
:107C5000FFF7ECFF401938BD38B50446FFF7B4FF15
:107C600005462046FFF7E2FF281838BD70B500230F
:107C70008AB08DF82430012A98BF0A220DF123031F
:107C8000B1FBF2F505FB1211CCB2092C1E4601D84E
:107C9000303400E03734E4B203F801492946002DBE
:107CA000EED13146FFF790FF0AB070BD10B5044623
:107CB00022B90268C9B29268904710BDD2B2BDE83D
:107CC0001040FFF7D3BF38B50446FFF7EFFF054676
:107CD0002046FFF7ABFF401938BDFFF7E7BFF8B507
:107CE00006460D46144622B90368C9B29A68904701
:107CF000F8BD0A2A0CD100290BDA2D21FFF791FFDC
:107D00006942074622463046FFF7B0FFC019F8BD6A
:107D1000D2B2BDE8F840FFF7A9BFFFF7E0BF38B522
:107D20000446FFF7DCFF05462046FFF77FFF2818D3
:107D300038BD00002DE9F8431946064610461546A1
:107D40001C469DF820700BF0A9FC10B93046434941
:107D500007E0284621460BF0A1FC012805D1404947
:107D60003046FFF731FF804674E0284621464FF049
:107D700060423C4BFDF714FE38B9284621464FF0CF
:107D80006042394BFDF7EEFD10B130463749E8E768
:107D90002846214600220023FDF7E4FD38B1304695
:107DA0002D21FFF73EFF04F10044804600E08046AD
:107DB0002F4B4FF000090022B9450CD01046194650
:107DC00000222C4BFDF786FC09F1010902460B4607
:107DD0005FFA89F9F0E728462146FDF79FF90D463D
:107DE0000446FDF70FFE8146FDF7D4FA02460B4626
:107DF00020462946FDF790F90A2204460D463046F2
:107E00004946FFF733FF804427B330461A49FFF74E
:107E1000DBFE8044F7B1174B002220462946FDF7D0
:107E20002FFB0D460446FDF7C5FD81460A22494653
:107E30003046FFF754FF80444846FDF7BBFA024640
:107E40000B4620462946FDF767F9013F04460D46DB
:107E5000FFB2DFE74046BDE8F88300BF4B8C010866
:107E60004F8C0108FFFFEF41FFFFEFC1538C01086A
:107E70000000E03F00002440138A01089DF8001034
:107E80000091FFF757BF37B59DF8181004460091D1
:107E9000FFF750FF05462046FFF7C8FE28183EBDF5
:107EA00013B5084C002100910A460B462046FFF707
:107EB0002FFE0549054A204602B0BDE810400BF0F0
:107EC000E7BB00BFD8140020015D00088007002038
:107ED00013B5084C002100910A460B462046FFF7D7
:107EE00017FE0549054A204602B0BDE810400BF0D8
:107EF000CFBB00BFE0140020015D00088007002018
:107F0000014B587D704700BFE81400207047000007
:107F100013B5084C002100910A460B462046FFF796
:107F2000F7FD0549054A204602B0BDE810400BF0B8
:107F3000AFBB00BF00150020015D000880070020D6
:107F400013B5084C002100910A460B462046FFF766
:107F5000DFFD0549054A204602B0BDE810400BF0A0
:107F600097BB00BF0C150020015D000880070020B2
:107F700010B5044600680BF02DFC204610BD10B56E
:107F80000446006808B10BF025FC00232360A360C1
:107F9000636010BD38B504460D46006801310BF032
:107FA000F3FC10B184E82100012038BD036810B54E
:107FB000044613B14068884207D22046FFF7EAFF23
:107FC00020B1A16809B922681170012010BD70B5F7
:107FD0000E46114604461546FFF7E8FF18B920463D
:107FE000FFF7CDFF04E0A560206831460BF0BCFD33
:107FF000204670BD38B500230446036043608360AB
:1080000003730D4639B108460BF0B6FD294602460A
:108010002046FFF7DCFF204638BD884210B50B46EE
:10802000044607D0096819B19A68FFF7D0FF01E04C
:10803000FFF7A5FF204610BD002310B504460360DE
:10804000436083600373FFF7E8FF204610BD38B537
:1080500005460C4641B108460BF08EFD214602460E
:108060002846FFF7B4FF01E0FFF789FF284638BD37
:1080700003680A680BB15AB905E022B1896811B1E9
:108080001078404270473BB1806830B11878704733
:10809000184611460BF05DBD18467047836899423B
:1080A00003D2006810B1405C7047002070478368BD
:1080B00010B59A4206D20468A0180BF03DFD08B135
:1080C000001B10BD4FF0FF3010BD0022FFF7EFBFC7
:1080D0009A422DE9F04107460D4614461E4601D945
:1080E0003446164638460C49FFF784FFA868844298
:1080F0000FD82968864228BF0646002211F806805C
:108100008A552B6838461919FFF7A1FF286800F82F
:1081100006803846BDE8F0810E8E010810B58B68E8
:108120000446FFF7D5FF204610BD006808B10BF0EC
:10813000F0BA704713B5026802AB03F8011DD468AA
:1081400019460122A0471CBDB0F89620B0F8943023
:1081500010B59A42044607D0B4F89430E018591C80
:10816000007DA4F8941010BD01680A6990470028AA
:10817000F2D14FF0FF3010BDB0F89620B0F8943037
:1081800010B59A42044604D0B4F894002418207D17
:1081900010BD01680A6990470028F5D14FF0FF3003
:1081A00010BD0023A0F89430A0F89630704710B5A9
:1081B00004460069082801D003F048F80823236129
:1081C00010BDF8B51746B0F89430B0F896200446C4
:1081D0009A420E4606D101680D69A84710B94FF0C2
:1081E000FF3512E0B4F89400B4F896202118151A5F
:1081F000BD4228BF3D46143130462A460BF059FB9C
:10820000B4F89430E918A4F894102846F8BDF0B5F5
:1082100085B004460D46164600F0A0FB022807462E
:1082200034D10121062202F0E3FF002820612DDB7A
:1082300023682046D9698847AB79300A2A798DF8B6
:1082400003606E79ED798DF802004FF4FA508DF8E5
:1082500006308DF804208DF805608DF80750ADF8D4
:10826000007000F08FFD1022054669462069FFF777
:108270002BF80646284600F085FD002E04DA21681A
:108280002046CA6A904701E0012000E0002005B0C6
:10829000F0BD00002DE9F04188B006460F4690463B
:1082A00000F05CFB02284FF0000422D108AD3846F4
:1082B00045F8144D0BF060FC2A4681B2384602F0B6
:1082C000EBFFA04215DD039B04A8DAB2190E009261
:1082D000C3F30742C3F30723FFF71AFC30680749CB
:1082E000059B046A06910793304606A94246A047BB
:1082F00000E0204608B0BDE8F08100BF005D010845
:1083000030B5B0F8963087B0044633B1B0F8942059
:108310009A4202D10168CB69984700F01FFB0228FE
:1083200024D12069082821D0B4F896207F2A1DD8AE
:10833000410906AB03EB810300F01F02012101FAA2
:1083400002F10025039553F80C2C01300A4343F841
:108350000C2C04A941F28833059300912A4603A905
:108360002B46049502F0FAFFA84206DCB4F89610FA
:10837000B4F89430C81A07B030BD206906AB420982
:1083800003EB820151F80C2C00F01F0342FA03F1B9
:10839000CB07EBD5B4F89630E1181431C3F1800265
:1083A0002B4603F07BF80028E0DDB4F896200AB9EC
:1083B000A4F894201018A4F89600D7E74FF47A7127
:1083C0008160054900220160082142600161A0F836
:1083D0009420A0F896207047305D0108036910B51D
:1083E000082B044601D1002010BD00F0B7FA022886
:1083F000F9D1206902F014F9D0F1010038BF002052
:1084000010BD08B5FFF7EAFF003018BF012008BD16
:1084100070B50446FFF7E2FF01281BD0B4F89620A0
:10842000B4F894309A4214D12069082804D002F09C
:10843000F7F80128064601D0002070BD20680169C8
:1084400020468847054620B922682046D36A9847C7
:10845000F2E7012070BD70B504460E461546FFF7E1
:10846000BDFF30B1206931462A46002303F094F85D
:1084700070BD4FF0FF3070BD13B5084C0021009166
:108480000A460B462046FFF743FB0549054A2046AE
:1084900002B0BDE810400BF0FBB800BF141500207F
:1084A000015D00088007002013B5084C00210091F1
:1084B0000A460B462046FFF72BFB0549054A204696
:1084C00002B0BDE810400BF0E3B800BF1C1500205F
:1084D000015D00088007002038B51A4C94F92C3053
:1084E000002B2DD094F82D00002829D005F036FB64
:1084F00094F82C2094F82D5051B2002995FBF1F3FB
:1085000006DD012B0BDC511E84F82C10002407E043
:10851000591C04DB013284F82C20022400E00124E1
:10852000084B041993F82D20511E83F82D1005F0E7
:1085300049FB204605F026FBBDE8384005F042BB6C
:1085400038BD00BF2415002010B5044605F006FB19
:10855000001B00F17F02FE2A08D905F033FB2046FC
:1085600005F010FBBDE8104005F02CBB054980EA82
:10857000E073A3EBE07381F82C00580081F82D0024
:1085800010BD00BF2415002013B5084C0021009138
:108590000A460B462046FFF7BBFA0549054A204626
:1085A00002B0BDE810400BF073B800BF54150020B6
:1085B000015D00088007002013B5084C00210091E0
:1085C0000A460B462046FFF7A3FA0549054A20460E
:1085D00002B0BDE810400BF05BB800BF6015002092
:1085E000015D00088007002013B5084C00210091B0
:1085F0000A460B462046FFF78BFA0549054A2046F6
:1086000002B0BDE810400BF043B800BF6815002071
:10861000015D000880070020014B0360704700BF28
:10862000185D0108426D836DD01A00F03F0070475D
:10863000426D836D9A4203D0816D4018007D704772
:108640004FF0FF307047426D836D9A4209D0816DC3
:108650004218816D137D4A1C02F03F018165184666
:1086600070474FF0FF307047D0F8A43070B5044623
:108670000E46186840F2277105F001FD28B9D4F8BC
:108680009C20D4F8A000824213D1D4F89C506B1CDB
:1086900003F03F05D4F8A020954213D0EFF31080EB
:1086A000C30744D5D4F89C10D4F8A030994209D11E
:1086B0003DE0D4F8A4100122086840F2277105F0CB
:1086C000B6FCE2E7D4F8A43040F22771186805F050
:1086D000D6FC0028DED0D4F8A4208021106805F054
:1086E000C8FC0028D6D0D4F8A4000022006840F2CC
:1086F000277105F09CFCD4F8A030D4F8A410E2183F
:108700000133086892F85C10C4F8A03005F0A9FCA9
:10871000D4F8A000D4F8A42000F03F01C4F8A010C1
:10872000106840F22771012205F081FCB2E7D4F80D
:108730009C20D4F8A410A01880F85C60C4F89C5069
:1087400001250868257440F227712A4605F06FFC60
:10875000284670BD10B50446D4F89C20D4F8A0304B
:108760009A42F9D1207C10B90022227410BDD4F8AD
:10877000A4100868402105F07CFC0028F2D0F3E743
:10878000034B10B504460360FEF79AF9204610BD6E
:10879000185D010810B540F225510446006805F047
:1087A0006EFC70B1206805F060FCE369C0B21A6C21
:1087B000511C01F03F02596C8A4202D0196C1A64B4
:1087C0005854206840F2277105F059FCB8B1A369EC
:1087D0002068196C5A6C914206D140F22771002230
:1087E000BDE8104005F023BC5A6C995C01325A6414
:1087F00005F037FCA069436C03F03F01416410BDF4
:10880000F8B500254FF47A730446836045600B4841
:1088100004F15C072060482604F11400C4F8A41099
:1088200032468F61C86129460BF066F83846294602
:1088300032460BF061F825742046F8BD705D0108E2
:108840000148FFF7A7BF00BF140200200148FFF74F
:10885000A1BF00BF34020020014B187C704700BF4D
:108860007015002073B50E4C002104F114050D4E57
:108870000B4600910A462846FFF74AF91C34324657
:10888000284609490AF004FF20460849FFF7B8FFC7
:1088900007492046324602B0BDE870400AF0F8BEF3
:1088A0007015002080070020015D000814020020E0
:1088B0001986000870474FF0FF307047014B036086
:1088C000704700BF185D0108034B10B504460360F4
:1088D000FEF7F6F8204610BD185D0108084608B5F9
:1088E000FEF72CF8012008BD08B5FDF7F3FF08BD21
:1088F000FEF704B800224260024A4FF47A718160A8
:1089000002607047985D01080846FDF7CBBF000084
:1089100037B50D4C00210D4D0B4600910A462046FF
:10892000FFF7F6F82A460A49204608340AF0B0FE56
:108930002046FFF7DFFF074920462A4603B0BDE87F
:1089400030400AF0A5BE00BF34160020800700208A
:10895000015D0008BD88000870470000044B1878CE
:1089600028B104480178002914BF02200120704773
:10897000931600206016002037B50B4C00210B4DDC
:108980000B4600910A462046FFF7C2F82A462046C9
:1089900007490AF07DFE074904F108002A4603B0A2
:1089A000BDE830400AF074BE4C160020800700205D
:1089B000015D0008598900080023036018467047CC
:1089C0000023036018467047002303601846704771
:1089D000034610B548F21004A34208464CD00CDC04
:1089E00048F20102934223D0501C83422AD0992B93
:1089F00065D1334B0121997310BD48F28004A34225
:108A00000FD0B3F5084F4AD048F24000834256D108
:108A10002B4C04F110000AF04CFF616A4B1C63629E
:108A200010BD27480122002102704270817010BDE4
:108A3000234C0122E270FEF783FD00F5EA4030305E
:108A4000606010BD1E4CE27862B1FEF779FD00F562
:108A5000EA40303060604FF47F4003F039FCE7209B
:108A600003F0B2FC16490023CB700B724B728B7271
:108A7000CB720B734B7310BD087D114B60B9012194
:108A800058604FF47F401972197303F021FCE720FE
:108A9000BDE8104003F098BC00221A7210BD0021FE
:108AA00001F0B7F90121044601F0FAF9054A10680E
:108AB000844204D102490023CB728B724B7210BDE9
:108AC0005816002010000020F0B50B7891B0044635
:108AD0000D4616462BB1032A55D8DFE802F00211E5
:108AE0003C3C20460BF048F8024601200090002054
:108AF00001900290039004900590214603463DE0CA
:108B000008460BF039F8002647088DF81E6002353C
:108B1000BE4210D015F8021C15F8012C8DF81C105F
:108B20008DF81D2007A8002110220BF063F908AB77
:108B300098550136EBE720460BF01EF80121002383
:108B4000024608A88DE84200049002930846039369
:108B50000593214612E00BF00FF8074628460BF06C
:108B60000BF8012118221E234FF0020E8DE80E4053
:108B700005900495304621463A46002302F048FE0F
:108B8000044981F82800034B012283F8292011B001
:108B9000F0BD00BF581600201FB50A2200234FF475
:108BA00061504FF461618DE80F00064B44F620627E
:108BB0001A60684601A902AA03AB01F035FE05B0B0
:108BC00000BD00BF1C1700201FB5002300930193B8
:108BD0000293039301A8694602AA03AB01F0ECFDDE
:108BE00005B000BD70B500210A4C0E2001F0EAFE70
:108BF000102510210E2001F0E5FE00212A46204616
:108C00000AF07AFE0E20294600222346BDE8704075
:108C100001F08CBE8216002030B5564D00249FB066
:108C2000FF202C706C7085F82940EC702C72AC73AE
:108C30006C72AC72EC722C7303F04AFBE72003F009
:108C4000C3FB21462246204602F0BEFD2B460121F1
:108C500003F82B4F0E200A4601F068FE454BD878EA
:108C6000012805D1642003F0E3F901F03FFAF5E7AC
:108C700010210C2001F0A6FE3F4802F074FA3F4894
:108C800002F016FF012002F0F7FE68463C4900F0B2
:108C90000FFE384D297895F829200A4318D195F808
:108CA0003A1000295BD0FF2002F09AFE002856D12E
:108CB0001A24013C06D0E72003F0B4FB322003F075
:108CC000B7F9F6E7FFF78EFF2A4A82F83A40E0E765
:108CD000E72003F079FB0E200121002205F12A0391
:108CE00001F0F8FD2C781CB102F000FF85F8280097
:108CF000204C012194F828300022581C234603F808
:108D00002A0F0E2001F012FE00200146012202F07F
:108D10005BFD0125234603F82B5F29462A460E20DA
:108D200001F004FE02F0D6FC642003F081F900207B
:108D300002F09AFC84F83B504FF47F4000252573E5
:108D400003F0C6FAE72003F03FFB48F2042002F0EC
:108D500061FEFFF721FF84F83C501FB030BDE720D3
:108D600003F060FBFA2003F063F9684600F012FE9E
:108D70008FE700BF58160020B85D0108540200209C
:108D8000C98A0008024B1A6818601046704700BF75
:108D90001C17002030B5364C85B0206403F0FCFD74
:108DA00003F03CFD334B34483449354A009301907D
:108DB000344B029103923449344A354802F03CFC6A
:108DC000642003F035F90125002002F04DFC84F801
:108DD0003B5048F204200025257302F01BFE2D4B6A
:108DE0001888012831D00E2010212A4604F12A03C8
:108DF00001F070FD102828D11D4CA278AAB994F872
:108E00002A301BB9012084F83C000EE094F82B00B6
:108E100058B90146012202F0D7FC0121234603F88C
:108E20002B1F0E200A4601F081FD11498A78BAB93C
:108E300091F83C30A3B1184801F0AAFDFFF7C4FE39
:108E400005B0BDE83040FFF7A7BEFF2002F0C8FD27
:108E5000FFF7C8FE0F4900240C8003F0E9FECBE7C2
:108E60004FF47F4003F034FAE72003F0ADFAE2E775
:108E700058160020D5C80008E9C8000855C90008E0
:108E80007DC90008C9890008B9890008C18900089E
:108E9000D1890008A20300209C1600202DE9F3418F
:108EA0009A4C04F09BFD0023A36494F84C0048B94D
:108EB00094F84D1031B962687AB3FEF741FB6468EB
:108EC000A0422AD3914C94F83B00002840D00025C2
:108ED000E57065602572256584F84C50012684F89C
:108EE0003B506572A572E572657302F0F3FB6FF09B
:108EF0007F40267303F0ECF9E72003F065FA642065
:108F000003F096F894F83C1011B3284602F0ACFB3D
:108F100084F83B60FFF780FE1AE07C4C94F83B300D
:108F2000B3B9A07828B9FEF70BFB00F5EA41303160
:108F30006160002002F098FB012200234FF47F4083
:108F400084F83B20237303F0C3F9E72003F03CFAD5
:108F50006E4C94F83C2012B1FFF75EFE04E0A3785B
:108F600013B1267A35460EB368484178012914D1E9
:108F7000047A012C11D1C278012A0ED1032464484D
:108F80000AF0FAFD624982B2012002F01BFB631E67
:108F900013F0FF04F3D15D4844705C4C217A234602
:108FA000E1B194F84D20002A75D017E031463246E1
:108FB0003046666002F008FC56480AF0DDFD564F68
:108FC000804638460AF0D8FD00970190791F0320AB
:108FD0004246334602F094FBA670C5E793F857006B
:108FE00020B14E4800213A220AF086FC474B93F804
:108FF0008E2032B9587A002859D19B7A002B56D14D
:10900000B8E01C7AFCB193F84D00E0B9597A002918
:109010005ED018E0234603F82D2F0E2001210322F5
:1090200001F084FC394C00254FF6FF70257303F0E6
:109030004FF9E72003F0C8F9FEF79EF8A84271DB6C
:10904000256501236372314C617A002900F092801A
:10905000A27ABAB9FDF7F6FF002811D002DA4FF470
:109060007F0007E0012801D12D4803E0022803D149
:109070004FF0FF1003F02CF9E72003F0A5F901E011
:109080000120A072FDF7A2FF002873D11F4BD872F8
:10909000987258726EE094F857100029A6D1642097
:1090A00002F0C6FF04F1540001F002FC9EE7FEF757
:1090B00053F8164900224FF47F40CA728A724A72EE
:1090C00003F006F9E72002B0BDE8F04103F07CB9F7
:1090D0005D7B002DA6D04FF47F0003F0F9F80B4C18
:1090E000627B002A96D0E72003F06EF94FF4FA7005
:1090F00002F09EFFE72003F075F94FF4FA7002F0DA
:1091000097FF657B691ECAB26273E8E758160020B4
:10911000570200205E02002063020020AC160020EF
:109120000060FF0094F84C3023BB206D411C0229E5
:10913000216502D1012284F84C20FDF7DBFF0028D5
:109140000E4C09DA206D411C0229216502D1012251
:1091500084F84C20022300E003236373074C0121B1
:10916000607B234603F82D0F03220E2001F0DEFB67
:10917000002367E702B0BDE8F08100BF5816002069
:1091800013B5084C002100910A460B462046FEF715
:10919000BFFC0549054A204602B0BDE810400AF070
:1091A00077BA00BFE8160020015D000880070020A4
:1091B000704708B5012004F0B9F8FEE708B50320B0
:1091C00004F0B4F8FEE708B5042004F0AFF8FEE7B9
:1091D00008B5052004F0AAF8FEE77047704770470D
:1091E00008B503F067FEBDE80840FDF78FBA000040
:1091F00008B5024B0BB1AFF3008008BD00000000C2
:1092000008B5024B0BB1FFF721FB08BD4D880008E4
:1092100008B5024B0BB1FFF713FB08BD41880008EE
:1092200008B5024B0BB1FEF78DFB08BD4579000870
:1092300008B5024B0BB1FEF786FB08BD4779000865
:1092400008B5024B0BB1FEF761FE08BD0D7F0008AB
:1092500008B5012004F074FA38B1012004F080FA56
:10926000024B13B10020FEF713FC08BD917A0008F1
:1092700008B5022004F064FA38B1022004F070FA54
:10928000024B13B10120FEF703FC08BD917A0008E0
:1092900008B5042004F054FA78B1042004F060FA10
:1092A0000020064B0146188003F04AF904481021BB
:1092B0000122BDE8084004F072BE08BD3C17002042
:1092C000002C014008B5082004F03AFA38B1082013
:1092D00004F046FA024B13B10320FEF7D9FB08BD98
:1092E000917A000808B5102004F02AFA38B110204D
:1092F00004F036FA024B13B10420FEF7C9FB08BD97
:10930000917A000808B5202004F01AFA38B120201C
:1093100004F026FA0E4B13B10520FEF7B9FB4020EE
:1093200004F00EFA38B1402004F01AFA084810B1DF
:109330000620FEF7ADFB802004F002FA38B1802051
:1093400004F00EFA024911B10720FEF7A1FB08BD97
:10935000917A000808B54FF4005004F0F1F940B1DB
:109360004FF4005004F0FCF9174B13B10D20FEF739
:109370008FFB4FF4804004F0E3F940B14FF480409C
:1093800004F0EEF9104810B10E20FEF781FB4FF407
:10939000004004F0D5F940B14FF4004004F0E0F98A
:1093A000094911B10F20FEF773FB4FF4006004F080
:1093B000C7F938B14FF4006004F0D2F9BDE80840B5
:1093C00002F0C0BD08BD00BF917A000808B50F4883
:1093D000102104F01DFEC0B10C48102104F023FE42
:1093E000002003F06FF928B9094B1A880A3290B2AD
:1093F000188008BD10210548002204F0D0FD00208F
:109400000121BDE8084003F09BB808BD002C0140D5
:109410003C17002008B5024B186800B1804708BD12
:10942000F416002008B5024B586800B1804708BD0B
:10943000F416002008B5024B986800B1804708BDBB
:10944000F416002008B5012004F0D8FB50B101202B
:1094500004F0E6FB044B0BB1FFF73EF8BDE8084013
:1094600004F0B0BB08BD00BFD984000808B50220D5
:1094700004F0C4FBB0B10C4B00224FF400301A7062
:1094800004F06EF9012004F0D3FA10B1012004F0C9
:10949000D9FA04F097FB022004F0C2FBBDE80840B3
:1094A00004F090BB08BD00BFA516002002F0DABC96
:1094B00000F062B838B514490B78012B23D1134A58
:1094C00013680BB90B7038BD114C402B206881B26A
:1094D00005D94030403B20601360402504E09DB238
:1094E000C3180020236010600A4A5018C0212A4681
:1094F00005F0F6FA0120294605F0FCFB0120BDE845
:10950000384005F065BB38BD6C07002074070020AB
:10951000700700206C060020094908B50020094B9F
:109520000122088003201A7005F010FC064B024649
:10953000188006484FF48871BDE8084005F0E7BA86
:1095400024060020200600202206002026060020F7
:10955000074B1868052809D1064B1A68511C052AC3
:10956000196003D100201860FDF706BA704700BFEC
:1095700068170020001700203A4A38B511683A4BA6
:1095800088B23A4D18801C882988214001F4007067
:1095900084B244B14FF6FF5515609A78511CC8B299
:1095A0009870FFF7D5FF304C304B25881A882A4039
:1095B00002F4004188B225461C4608B105F0CAF9FC
:1095C0002A882388134003F4806188B230B1254B88
:1095D00027494FF6FF321A6048688047224A234BDA
:1095E00011881B88194001F4005081B219B11D493E
:1095F0004DF6FF7008601288134003F4805398B250
:1096000030B1184A4EF6FF711160002003F04AFE97
:10961000154B164918880A88024002F4006398B274
:1096200060B114490A7812B103F01CFE02E0022076
:1096300003F038FE0B4B4FF2FF7018600A490B48DD
:109640000A880388134003F480718AB242B1054B43
:109650004FF6FF6018600720BDE8384003F022BED7
:1096600038BD00BF445C00400417002028210020C2
:10967000F8020020C8030020034B987A10B1034978
:1096800005220A60704700BF0421002068170020EF
:10969000014B04221A60704768170020034B1A78A8
:1096A000202A01D100201870704700BF0817002041
:1096B00070470000212810B508D1114803681978B7
:1096C00001F07F02212A11D0022010BD2028FBD1F9
:1096D0000B4B19680A780B4902F07F030A4A212BC9
:1096E0000CBF0B46002310700BB9EDE7074B044C81
:1096F000206800248361448220469847204610BD9C
:10970000242100205D9700080817002045970008D5
:10971000074B19680A7802F07F03212B05D1022834
:1097200001D1002070472228FBD00220704700BFE3
:109730002421002009B1022070470128FBD80846E7
:109740007047000020B9034B082219680A8270474D
:109750000148704724210020C002002020B9034B9B
:10976000082219680A8270470148704724210020A6
:10977000C0020020054B1968CA78042A04D8044B9B
:1097800003EBC20104F066BE0020704724210020D4
:10979000C8020020014904F05DBE00BFE8020020BD
:1097A000014904F057BE00BFF0020020334A344B99
:1097B000D179186810B5002441728472C4722046B1
:1097C00005F0B8F920464FF4007105F0BBF91021FF
:1097D000204605F0C3F94021204605F05FFA8021BC
:1097E000204605F04BFA204605F014FA254B20469A
:1097F00093F8641005F08CFA204605F0FAF9012080
:10980000214605F09FF90120C02105F037FA01201B
:10981000202105F0A3F90120214605F0BCF9022022
:109820004FF4C06105F08EF902204FF4807105F00D
:1098300025FA0220214605F0AEF90220202105F08C
:109840008DF90320214605F07DF903204FF488713E
:1098500005F024FA0320402105F05AFA03204FF4C2
:10986000405105F098F90320214605F077F920468C
:1098700005F002F8044A0120106010BD255E0108C1
:1098800024210020C00200206817002010B5FDF739
:10989000BFF8054B00241868847203F0CBFC05F078
:1098A0006BFA02490C6010BD2421002068170020CB
:1098B00038B504460D46FFF71DF8204625614FF4E4
:1098C0001651FFF721F8204638BD000013B5084CAB
:1098D000002100910A460B462046FEF719F905497A
:1098E000054A204602B0BDE8104009F0D1BE00BFD5
:1098F0000C170020015D00088007002070B50646A7
:109900000D46002428460AF037F9844208D2295D22
:109910003046FEF7E3FF012002F08AFB0134F1E755
:1099200070BD0000F8B504460E46174600252046D7
:10993000FEF7DAFF0028FADD2046FEF7D9FFBD4228
:10994000C1B206D10023337020461149FFF7D6FF7C
:1099500014E00D29F6D00A29F4D0082901D07F2976
:1099600004D1002DE3D0013E013D02E006F8011BC9
:1099700001352046EDB2FEF7B1FFD8E72046FEF7ED
:10998000B3FF002803DD2046FEF7B2FFF6E7F8BD7F
:109990000C8E0108F0B585B00446FEF7A5FF00283F
:1099A00040F39D802046FEF7A3FFC0B2772867D121
:1099B00004F1140600212122304604F1350509F096
:1099C0009BFF00214122284609F096FF04F176070B
:1099D000002284F8762020467A704249FFF78EFFF5
:1099E000204631462022FFF79DFF20463E49FFF7E3
:1099F00085FF394601222046FFF794FF94F8763020
:109A0000A3F130010329F0D8312B0BD1204637497F
:109A1000FFF774FF20463649FFF770FF20463549AF
:109A2000FFF76CFF94F87600B0F1300708D02046BD
:109A30003149FFF763FF204629464022FFF772FFB6
:109A400020462E49FFF75AFF23693A4630462946F9
:109A5000984720462A49FFF751FF20462949FFF73A
:109A60004DFF20462849FFF749FF20462749FFF7C9
:109A700045FF20462649FFF741FF2046254929E0BA
:109A800069282CD1244A01AB10685168002503C312
:109A90009168204619602149FFF730FF01AEAE5DA5
:109AA000300900F13001392988BF00F1570106F073
:109AB0000F062046FEF712FF06F13001392988BF54
:109AC00006F1570120460135FEF708FF0C2DE5D1C0
:109AD0001349204605B0BDE8F040FFF70FBF05B0C1
:109AE000F0BD00BF608C0108678C0108948C0108F0
:109AF000CA8C0108F58C01083B8D0108468D0108D0
:109B0000898D0108A98D0108DC8D01080F8E0108DF
:109B10004E8E01087F8E0108E8F7FF1F958E010821
:109B20000C8E010838B500238DB243620446816172
:109B30000260836200212846FDF7E6FB28460121EA
:109B4000FDF76EFC03206FF006012071A16038BDA7
:109B500010B50446FFF7E6FF204610BD38B503797F
:109B60000446032B05D00079022802D06FF00400D0
:109B700038BD0025002207212571208B25736573D0
:109B8000A573E57325746574A174E5742946626252
:109B9000A262FDF7B9FB2946208BFDF741FC12209C
:109BA000FDF7E0FC0121208BFDF73AFC2820FDF7B2
:109BB0001DFD0121208BFDF7A7FBFDF7C3FC2168EC
:109BC00060610222208BFDF7EBFE012038BD000012
:109BD00038B50446FDF7B6FC636941F27072C31AEA
:109BE0009342606109D903206FF00102A2602071E5
:109BF000208BBDE83840FDF72BBF227912B1012A36
:109C00007DD110E0182B03D86169CB1A636138BD90
:109C10007E3B3F2B01D8012070E0208BFDF718FF21
:109C20006FF0020068E0092B05D8208BFDF710FFCC
:109C30006FF0050060E0A3F13D01532957D8642B74
:109C400008D9A07CE37C02FA00F2E318197B0A43EE
:109C5000D0B21873A37C002B44D10723A374E17CFA
:109C60004A1CD0B20429E07449D1208BFDF7F0FEE4
:109C7000257B637B03EB052188B2FBF79BFB20A3CD
:109C8000D3E90023FBF7FCFBFBF7DCFE6062A27B61
:109C9000A07B12F0800FE57B05D000F07F0105EB83
:109CA0000122504202E005EB002398B2FBF782FB51
:109CB00013A3D3E90023FBF7E3FBFBF7C3FEA0628A
:109CC000237B657BA07BEB18E17BC018227C091805
:109CD000CBB29A4202D04FF0FF300DE00022A260DA
:109CE00002200BE0A17C4A1ED0B2A07438BD208BAC
:109CF000FDF7AEFE6FF00300A0600320207138BDB9
:109D00009A9999999999B93F0379022B04D00079CE
:109D1000033818BF012070470020704780687047E3
:109D200008B50379032B03D18068FBF795FF08BDC5
:109D3000017902290CBF806A004808BD0000A0C05C
:109D400008B50379032B03D18068FBF785FF08BDB5
:109D5000017902290CBF406A004808BD0000A0C07C
:109D600013B5084C002100910A460B462046FDF72A
:109D7000CFFE0549054A204602B0BDE8104009F073
:109D800087BC00BF14170020015D00088007002079
:109D9000002100F004B80E4B5B58435004310D48CD
:109DA0000D4B42189A42FFF4F6AF0C4A00F003B88C
:109DB000002342F8043B0A4B9A42FFF4F9AF03F048
:109DC000BBF9FCF7DDFBFCF75FFEFCF727FC7047F7
:109DD000E091010800000020840400208804002095
:109DE00034210020FFF7FEBF01700B0A0A0C090E98
:109DF00043708270C170043070470170090A41706D
:109E00000230704743185A78405C00EB022188B258
:109E1000704710B543189A78DC78415C120402EB65
:109E200004625878521802EB002010BD73B54479D3
:109E30000023022C01930FD0032C19D0012C2BD11D
:109E4000164D28692E4620B1296901A88847024687
:109E5000B8B9B16801201BE0104DE8682E4620B16A
:109E6000E96801A88847024658B9B16802200FE0A6
:109E70000A4D6A692E464AB16B6901A898470246A5
:109E800020B1A9682046BDF8043003E0B168032082
:109E90000022134600F02CFC7CBD00BF6C18002093
:109EA000072830B512D8012910D8EFF3108472B604
:109EB000012505FA00F501FA00F0054B1A6822EABF
:109EC000050202431A60E30700D462B630BD00BF4A
:109ED00050030020F0B5012187B00546FFF792FF3F
:109EE00000F48043044698B250B3B4F5824F27D1B2
:109EF00028460521FFF786FF00260746073534462A
:109F0000BE4208D028460221FFF77CFF0136241804
:109F10000435B6B2F4E7744B188E21188AB21A864B
:109F2000D86B2418DC63D96B9A6B914240F0CE80D9
:109F300093F84000002800F0C9809B69992033E025
:109F400024F4FF4121F07F0290B2002800F09B80B2
:109F500048F2100294422AD00CD8B4F5004F40F2D7
:109F6000C08048F202039C4217D9991C8C4240F0F1
:109F7000B88012E048F2800084420ED005D848F242
:109F80004002944240F0AD8051E0B4F5024F04D05D
:109F9000B4F5084F40F0A5806CE05349886900286B
:109FA00000F094808B69204600210A4669E0002376
:109FB000EA1851790DF803100133042BF8D1687AAF
:109FC0002B7BAA7AE97A8DF804008DF807308DF89A
:109FD00005208DF8061005F10D00002306AAD21801
:109FE000C15C0133042B02F8101CF7D105F11100FC
:109FF000002306AAD218C15C0133042B02F80C1C02
:10A00000F7D105F11500002300AAD218C15C013375
:10A01000042B1174F8D1344928798A698DF8140019
:10A02000002A53D08B6920466946152229E0053560
:10A0300000212846FFF7EDFE042100902846FFF797
:10A04000E8FE082101902846FFF7E3FE0C2102906C
:10A050002846FFF7DEFE102103902846FFF7D9FEC1
:10A06000214B04909969002930D09B6920466946AC
:10A07000142206E01C48826942B38369691D2046A8
:10A080000122984722E041F203039C4205D00C33A1
:10A090009C4202D0591E8C421AD16C1D04212046CC
:10A0A000FFF7B7FE39301CD12D790F480021C5626A
:10A0B0002046FFF7AEFE042105462046FFF7A9FE25
:10A0C000393003D128460121FFF7EAFE012009E0DB
:10A0D000054A138899B28C4204D0B4F5805FF5D15B
:10A0E00000E0002007B0F0BD6C18002038B5104B20
:10A0F0005D88ADB2CDB158680478211F4A4252EB59
:10A1000001042CB1FFF7E6FE003018BF012000E08B
:10A110002046054620B944B1054B93F8411021B9BA
:10A1200003480022428001F0B5FD284638BD00BF3B
:10A130006C1800202DE9FF4704468946904602F03E
:10A14000C1FE00250190BA4B5A8890B2002840F019
:10A15000928003F043FC02F0B5FE02900299019850
:10A160000A1A0392039B002B03DA01990298421802
:10A170000392B04B19680029E5D003988842E2D3D6
:10A18000AB4A41F20700138899B2814224D8421E9B
:10A1900091425FD240F2022399425BD00DD80C2944
:10A1A00006D8082956D200294DD0062952D959E09F
:10A1B0000D294CD040F201220BE041F20200814215
:10A1C0004BD8B1F5805F45D8B1F5017F3FD940F25A
:10A1D0000722914237D13AE041F21103994236D039
:10A1E00014D841F20B00814234D005D841F2090263
:10A1F00091422FD031D82AE041F20F0399422CD05E
:10A2000028D841F20D0081421DD126E042F206021B
:10A2100091421CD007D8B1F5005F14D942F2040373
:10A22000994214D921E0B1F5804F00F0F28105D8B0
:10A23000A1F500500838012805D808E044F20B02C7
:10A24000914200F0E6810B2003F070F8E1E1FF217C
:10A250002170DEE14FF0FF3105E04FF0FF3121606A
:10A260006160D6E100212160D3E1204600213A223D
:10A2700009F042FBCDE15E683178042940F07E812F
:10A2800001213046FFF7BEFD05463046FFF722FEAE
:10A290000146002840F0688141F20700771D8542A1
:10A2A00050D8411E8D4280F0AF8040F2022295428C
:10A2B00000F0AA8011D80C2D09D8082D80F0A480B8
:10A2C000002D00F05181062D40F29E80EAE00D2D18
:10A2D00000F0978040F201237EE041F202039D42AC
:10A2E00018D8B5F5805F00F28F80B5F5017F40F298
:10A2F000888040F207218D4240F03681307900217C
:10A3000004F8010B3846FFF784FD01462046FFF7AD
:10A310006BFD29E141F20402954200F0998040F280
:10A32000B08038460021FFF774FD042120603846D4
:10A33000FFF76FFD6060083406F10D07234606F154
:10A340001D017EE041F2110295425AD02CD841F213
:10A350000B039D4258D01CD841F209018D4253D0C5
:10A3600000F29B8000213846FFF753FD0421206056
:10A370003846FFF74EFD082160603846FFF749FD7B
:10A380000C21A0603846FFF744FD04F10C0AE060A0
:10A39000E9E041F20F02954273D03BD841F20D0340
:10A3A0009D4240F0E18053E042F20500854200F01A
:10A3B0009D8008D841F2120295423DD0B5F5005F6C
:10A3C00040F2D2801DE042F209018D4208D84F1EB2
:10A3D000BD4216D242F206039D4240F0C58010E015
:10A3E00044F20B00854240F0BF807279DFF840A054
:10A3F00038460121AAF83020FFF704FDAAF8320000
:10A40000B2E031792170AFE038460021FFF701FD5D
:10A410002060A9E000213846FFF7FBFCA2464AF87D
:10A42000040B04213846FFF7F4FC60609BE000BF9A
:10A430006C1800201C1700203846FFF7E3FC208032
:10A4400092E057F8040B8F4243F8040BF9D18BE0EC
:10A4500000213846FFF7DDFC042120603846FFF775
:10A46000D8FC082160603846FFF7D3FC04F1080AE5
:10A47000A060E46814F1390375D10121FFF710FDE4
:10A4800071E000213846FFF7C4FC04212060384603
:10A49000FFF7BFFC6060083466E0307920713F68E8
:10A4A000276061E038460021FFF7B3FC04212060FB
:10A4B0003846FFF7AEFC082160603846FFF7A2FC83
:10A4C0000A21A0603846FFF79DFCC4F80A000C344E
:10A4D00006F11103274606F1350153F8040B8B42B0
:10A4E00047F8040BF9D11A883A803DE077187B7958
:10A4F000635401310429F9D106F109000027C15D37
:10A50000E2190137042F1171F9D106F10D00002372
:10A51000C15CE2180133042B1172F9D106F1110765
:10A520000022B85CA1180132042A0873F9D106F19F
:10A5300015070023F85CE1180133042B0874F9D1E6
:10A5400006F119070021785C62180131062910759F
:10A55000F9D106F11F070023F85CE2180133202B24
:10A560009076F9D100E054462C4F388882B295425B
:10A5700036D100233B8087F8413031E0DF8EBBB21B
:10A5800073B33046032196F802A0FFF73BFC074661
:10A59000B9F1000F0CD00421701DFFF73AFC024600
:10A5A000C8F8000006F115014846D2B209F081F959
:10A5B000CAEB0707781EB0F5806F07D20AF10501D4
:10A5C000204671183A4609F074F901E04FF0FF3760
:10A5D000B8F1000F01D088F80070104B0022DA8625
:10A5E0000E4F0020788001F055FB3278042A05D107
:10A5F000B5F5805F02D13046FFF718FC3B8899B271
:10A6000000297FF4A0AD0548C28E93B2002B7FF4E1
:10A610009AAD002004B0BDE8F08700BF6C180020A0
:10A6200007284FF001030ED8EFF3108272B603FA39
:10A6300000F006490B6818420CBF00200120D30728
:10A6400002D462B670471846704700BF500300201E
:10A65000034B1880084600210A46FFF76BBD00BF78
:10A660006C18002010B5034B0124DC86BDE81040B7
:10A67000FFF760BD6C18002038B50346154601226F
:10A680004A710C46881D1946FFF7B7FB291D057056
:10A69000204601F06DFB002038BD38B5BDF81450E0
:10A6A0000C469B18A071E81885B202216171E27115
:10A6B000294604F10800FFF7A0FB6A1D204691B26D
:10A6C00001F056FB002038BD38B59B180C469DB2F2
:10A6D00002216171A071E271294604F10800FFF7BF
:10A6E0008CFB6A1D204691B2BDE8384001F040BBAA
:10A6F0002DE9F0471D4605F1020A032301F1070980
:10A700001FFA8AFA88714B710C4648465146174623
:10A71000FFF773FBB5F57A7F804613D82946FFF71C
:10A720006CFB29464046FFF768FB394604F10B00F5
:10A730002A4609F0BEF8A91D204689B2BDE8F047B7
:10A7400001F016BB4FF47A76B5FBF6F10AEB410245
:10A7500091B2FFF752FB31464046FFF74EFB3946B8
:10A7600004F10B00324609F0A4F8A5F57A752046ED
:10A7700040F2EE31ADB2BF1901F0FAFAB5F57A7FC9
:10A7800005D9A5F57A7085B24FF47A7601E02E46A8
:10A790000025A046394628F8056F4846324609F09C
:10A7A00088F8B31C404699B2BF1901F0E1FA002DB8
:10A7B000E4D1BDE8F0870000F7B51A4C1E46A46846
:10A7C000FF238DF807300025475D63190135042DFF
:10A7D0005F72F9D100200D5C2318013004285D73ED
:10A7E000F9D10021505C6318013104295874F9D162
:10A7F00004F115000021FFF7F7FA0022B35C83543F
:10A800000132042AFAD12146142242F20100FFF754
:10A8100033FF42F201000DF10701FFF719FF9DF927
:10A820000700FEBD6C1800202DE9F34106460C46DA
:10A830001E4831681546D0F808804A1E1F46FF237F
:10A84000082A8DF8073008F1090001D80A2333607F
:10A8500021684A1E082A01D80A23236029684A1E53
:10A86000082A01D80A232B6039684A1E082A01D811
:10A870000A233B603168FFF7B7FA2168FFF7B4FAA3
:10A880002968FFF7B1FA3968FFF7AEFA414614229A
:10A8900042F20900FFF7F0FE42F209000DF1070154
:10A8A000FFF7D6FE9DF90700BDE8FC816C1800207B
:10A8B00038B5074B42F20504054699682046002248
:10A8C000FFF7DAFE20462946BDE83840FFF7C0BE54
:10A8D0006C1800202DE9F341864613480D46866822
:10A8E00071461F4602ACFF2306F1090004F8053D3E
:10A8F0009046FFF779FA2946FFF776FA40F20125EC
:10A900004146FFF771FA0C2231462846FFF7B4FEA4
:10A9100028462146FFF79CFE3846002101AAFFF792
:10A92000A1FE0198BDE8FC816C1800202DE9F341DF
:10A93000864616480C4686687146984602AD4FF02A
:10A94000FF3306F10A0045F8043D1746FFF74CFABD
:10A950000C21FFF749FA2146FFF746FA3946FFF77F
:10A9600043FA4146224606F11A0008F0A2FF902061
:10A9700031461022A3B2FFF7A7FE40F2022029467B
:10A98000FFF766FE0198BDE8FC8100BF6C1800204F
:10A9900037B50B4B40F2072504469968002228463C
:10A9A000FFF76AFE28466946FFF752FE9DF803004E
:10A9B0009DF80410207061709DF800003EBD00BF3E
:10A9C0006C18002037B50D4A034695680C4605F112
:10A9D00009001946FFF708FA214640F20324FFF761
:10A9E00003FA294608222046FFF746FE20460DF1CD
:10A9F0000701FFF72DFE9DF807003EBD6C180020F3
:10AA00002DE9F0430023CA5CC2540133102BFAD164
:10AA10000022334B467B991891F8018004789F19E6
:10AA2000F97A88EA0405847B85EA01081D194178D2
:10AA3000EF7A90F80CC04F40C17B80F810805D1811
:10AA400095F80B908578634489EA050593F80B9097
:10AA5000C378477489EA030390F80490FFB288EA48
:10AA6000090890F80590857487EA090790F8069020
:10AA7000EDB285EA090590F80790C374DBB283EA6A
:10AA8000090390F8089080F814805FFA88F888EA43
:10AA9000090890F809904775FFB287EA090790F80E
:10AAA0000A908575EDB285EA090590F80B90C3759B
:10AAB000DBB283EA090388EA0C0C7E406C40594003
:10AAC000013280F8188047768576C37680F81CC0FE
:10AAD00046778477C17710300A2A9AD1BDE8F0838F
