:020000040800F2
:1050000000500020818F0008798200087B82000810
:10501000858200088F820008998200080000000045
:10502000000000000000000000000000A382000853
:10503000A582000800000000A7820008A9820008DD
:10504000D58F0008D58F0008D58F00080D85000882
:10505000D58F0008D58F0008198300083983000810
:10506000598300088D830008AD830008D58F0008A0
:10507000D58F0008D58F0008D58F000875850008EA
:10508000D58F0008D58F0008B9820008D58F000899
:1050900079850008D58F0008D58F0008CD830008DA
:1050A000D58F0008D58F0008D58F0008958400089B
:1050B000DD840008ED840008FD840008E982000812
:1050C000F9820008D58F0008D58F000809830008F1
:1050D000D58F0008C9820008D9820008D58F000842
:1050E0001D84000835850008D58F000800000000E9
:1050F00000000000000000000000000000000000B0
:0C51000000000000000000005FF808F153
:1051100081F0004102E000BF83F0004330B54FEA68
:1051200041044FEA430594EA050F08BF90EA020FD5
:105130001FBF54EA000C55EA020C7FEA645C7FEA68
:10514000655C00F0E2804FEA5454D4EB5555B8BF8B
:105150006D420CDD2C4480EA020281EA030382EAFC
:10516000000083EA010180EA020281EA0303362D8E
:1051700088BF30BD11F0004F4FEA01314FF4801C61
:105180004CEA113102D0404261EB410113F0004F73
:105190004FEA03334CEA133302D0524263EB43032A
:1051A00094EA050F00F0A780A4F10104D5F1200EC8
:1051B0000DDB02FA0EFC22FA05F2801841F1000123
:1051C00003FA0EF2801843FA05F359410EE0A5F1F7
:1051D00020050EF1200E012A03FA0EFC28BF4CF028
:1051E000020C43FA05F3C01851EBE37101F00045DE
:1051F00007D54FF0000EDCF1000C7EEB00006EEBEB
:105200000101B1F5801F1BD3B1F5001F0CD3490874
:105210005FEA30004FEA3C0C04F101044FEA4452CB
:1052200012F5800F80F09A80BCF1004F08BF5FEA52
:10523000500C50F1000041EB045141EA050130BD32
:105240005FEA4C0C404141EB010111F4801FA4F1D5
:105250000104E9D191F0000F04BF01460020B1FA2A
:1052600081F308BF2033A3F10B03B3F120020CDA62
:105270000C3208DD02F1140CC2F10C0201FA0CF040
:1052800021FA02F10CE002F11402D8BFC2F1200CA5
:1052900001FA02F120FA0CFCDCBF41EA0C0190405B
:1052A000E41AA2BF01EB0451294330BD6FEA0404A4
:1052B0001F3C1CDA0C340EDC04F11404C4F120028F
:1052C00020FA04F001FA02F340EA030021FA04F3A1
:1052D00045EA030130BDC4F10C04C4F1200220FAF8
:1052E00002F001FA04F340EA0300294630BD21FA36
:1052F00004F0294630BD94F0000F83F4801306BFFC
:1053000081F480110134013D4EE77FEA645C18BFEF
:105310007FEA655C29D094EA050F08BF90EA020F86
:1053200005D054EA000C04BF1946104630BD91EA7E
:10533000030F1EBF0021002030BD5FEA545C05D181
:105340004000494128BF41F0004130BD14F58004C0
:105350003CBF01F5801130BD01F0004545F0FE4134
:1053600041F470014FF0000030BD7FEA645C1ABF69
:10537000194610467FEA655C1CBF0B46024650EAA0
:10538000013406BF52EA033591EA030F41F40021CC
:1053900030BD00BF90F0000F04BF0021704730B552
:1053A0004FF4806404F132044FF000054FF0000127
:1053B00050E700BF90F0000F04BF0021704730B5E8
:1053C0004FF4806404F1320410F0004548BF4042BD
:1053D0004FF000013EE700BF42004FEAE2014FEA12
:1053E00031014FEA02701FBF12F07F4393F07F4FED
:1053F00081F06051704792F0000F14BF93F07F4F1F
:10540000704730B54FF4607401F0004521F0004161
:1054100020E700BF50EA010208BF704730B54FF0E7
:1054200000050AE050EA010208BF704730B511F0EC
:10543000004502D5404261EB41014FF4806404F124
:1054400032045FEA915C3FF4DCAE4FF003025FEAA6
:10545000DC0C18BF03325FEADC0C18BF033202EB2E
:10546000DC02C2F1200300FA03FC20FA02F001FA88
:1054700003FE40EA0E0021FA02F11444C1E600BF27
:1054800070B54FF0FF0C4CF4E06C1CEA11541DBFDA
:105490001CEA135594EA0C0F95EA0C0F00F0DEF8A5
:1054A0002C4481EA030621EA4C5123EA4C5350EA8A
:1054B000013518BF52EA033541F4801143F48013DB
:1054C00038D0A0FB02CE4FF00005E1FB02E506F06C
:1054D0000042E0FB03E54FF00006E1FB03569CF0C1
:1054E000000F18BF4EF0010EA4F1FF04B6F5007FC7
:1054F00064F5407404D25FEA4E0E6D4146EB060639
:1055000042EAC62141EA55514FEAC52040EA5E50C1
:105510004FEACE2EB4F1FD0C88BFBCF5E06F1ED86B
:10552000BEF1004F08BF5FEA500E50F1000041EBA2
:10553000045170BD06F0004646EA010140EA02004F
:1055400081EA0301B4EB5C04C2BFD4EB0C0541EA71
:10555000045170BD41F480114FF0000E013C00F386
:10556000AB8014F1360FDEBF002001F0004170BDAA
:10557000C4F10004203C35DA0C341BDC04F11404C3
:10558000C4F1200500FA05F320FA04F001FA05F24F
:1055900040EA020001F0004221F0004110EBD3701C
:1055A00021FA04F642EB06015EEA430E08BF20EA48
:1055B000D37070BDC4F10C04C4F1200500FA04F3EB
:1055C00020FA05F001FA04F240EA020001F000417D
:1055D00010EBD37041F100015EEA430E08BF20EAF0
:1055E000D37070BDC4F1200500FA05F24EEA020E38
:1055F00020FA04F301FA05F243EA020321FA04F067
:1056000001F0004121FA04F220EA020000EBD3701D
:105610005EEA430E08BF20EAD37070BD94F0000F1D
:105620000FD101F00046400041EB010111F4801F51
:1056300008BF013CF7D041EA060195F0000F18BF02
:10564000704703F00046520043EB030313F4801F3E
:1056500008BF013DF7D043EA0603704794EA0C0FF8
:105660000CEA135518BF95EA0C0F0CD050EA41060E
:1056700018BF52EA4306D1D181EA030101F000418B
:105680004FF0000070BD50EA410606BF10461946B3
:1056900052EA430619D094EA0C0F02D150EA0136BF
:1056A00013D195EA0C0F05D152EA03361CBF104600
:1056B00019460AD181EA030101F0004141F0FE419F
:1056C00041F470014FF0000070BD41F0FE4141F423
:1056D000780170BD70B54FF0FF0C4CF4E06C1CEA23
:1056E00011541DBF1CEA135594EA0C0F95EA0C0FD8
:1056F00000F0A7F8A4EB050481EA030E52EA033593
:105700004FEA013100F088804FEA03334FF08055B3
:1057100045EA131343EA12634FEA022245EA1115E0
:1057200045EA10654FEA00260EF000419D4208BF91
:10573000964244F1FD0404F5407402D25B084FEA3E
:105740003202B61A65EB03055B084FEA32024FF4EA
:1057500080104FF4002CB6EB020E75EB030E22BF47
:10576000B61A754640EA0C005B084FEA3202B6EB07
:10577000020E75EB030E22BFB61A754640EA5C00B6
:105780005B084FEA3202B6EB020E75EB030E22BF46
:10579000B61A754640EA9C005B084FEA3202B6EB47
:1057A000020E75EB030E22BFB61A754640EADC0006
:1057B00055EA060E18D04FEA051545EA16754FEA68
:1057C00006164FEAC30343EA52734FEAC2025FEA86
:1057D0001C1CC0D111F4801F0BD141EA00014FF015
:1057E00000004FF0004CB6E711F4801F04BF0143E6
:1057F0000020B4F1FD0C88BFBCF5E06F3FF6AFAE02
:10580000B5EB030C04BFB6EB020C5FEA500C50F191
:10581000000041EB045170BD0EF0004E4EEA113114
:1058200014EB5C04C2BFD4EB0C0541EA045170BD1B
:1058300041F480114FF0000E013C90E645EA060E5F
:105840008DE60CEA135594EA0C0F08BF95EA0C0F8D
:105850003FF43BAF94EA0C0F0AD150EA01347FF4D5
:1058600034AF95EA0C0F7FF425AF104619462CE7AC
:1058700095EA0C0F06D152EA03353FF4FDAE10460F
:10588000194622E750EA410618BF52EA43067FF460
:10589000C5AE50EA41047FF40DAF52EA43057FF4F0
:1058A000EBAE12E74FF0FF3C06E000BF4FF0010CFB
:1058B00002E000BF4FF0010C4DF804CD4FEA410C5F
:1058C0007FEA6C5C4FEA430C18BF7FEA6C5C1BD02C
:1058D00001B050EA410C0CBF52EA430C91EA030FAD
:1058E00002BF90EA020F0020704710F1000F91EA0A
:1058F000030F58BF994208BF90422CBFD8176FEAD8
:10590000E37040F0010070474FEA410C7FEA6C5CA5
:1059100002D150EA013C07D14FEA430C7FEA6C5CAC
:10592000D6D152EA033CD3D05DF8040B704700BFD8
:105930008446104662468C461946634600E000BF26
:1059400001B5FFF7B7FF002848BF10F1000F01BDF8
:105950004DF808EDFFF7F4FF0CBF012000205DF8C3
:1059600008FB00BF4DF808EDFFF7EAFF34BF012048
:1059700000205DF808FB00BF4DF808EDFFF7E0FFE1
:1059800094BF012000205DF808FB00BF4DF808ED32
:10599000FFF7CEFF94BF012000205DF808FB00BF99
:1059A0004DF808EDFFF7C4FF34BF012000205DF87B
:1059B00008FB00BF4FEA410212F5001215D211D5C3
:1059C0006FF47873B3EB625212D94FEAC12343F0FC
:1059D000004343EA505311F0004F23FA02F018BF7E
:1059E000404270474FF00000704750EA013005D147
:1059F00011F0004008BF6FF0004070474FF000000A
:105A0000704700BF014B0360704700BFA04D010805
:105A1000014B0360704700BFB84D0108034B10B540
:105A20000446036000F084FB204610BDA04D010831
:105A3000034B10B50446036000F07AFB204610BD0E
:105A4000B84D010810B5084C4FF41651204601F02E
:105A5000BFFF40F6B83000F0F7FE04492046BDE82D
:105A6000104001F0EBB900BFC8140020D477010842
:105A700010B588B0184904A801F053FB0A22192177
:105A8000684601F06AFB694604A801F090FB0146F4
:105A9000124800F5A47200F5AC7303F0CBF804468D
:105AA000684601F0DAFA04A801F0D7FA0C484CB1C4
:105AB0000C4901F0C3F90A480B4901F0B5F947F266
:105AC000305004E0094901F0B9F94FF4FA7000F0E0
:105AD000BBFE08B010BD00BF7C0200208C0200207D
:105AE000C81400207E790108E4030020D97701085A
:105AF0002DE9F0412A4C86B02A4D002104F5BC76F0
:105B00000B4600910A46304601F0F4F804F5C077E0
:105B10002A4630462449254E0CF0ACFE384624492E
:105B200001F0DDFA04F5AC782A46314638460CF02F
:105B3000A1FE40461F4901F0D2FA2A4631464046AE
:105B40000CF098FE20461C4901F0C9FA04F5B4781F
:105B50002A46314620460CF08DFE4046174901F09A
:105B6000BEFA31462A4604F5C87640460CF082FE5D
:105B7000304601F08DFC2A46304611490CF07AFE81
:105B8000394602A801F0CDFA04F1100002A932460C
:105B900002F0F2FE02A801F060FA06B0BDE8F08162
:105BA0007C0200200C060020055A00085B700008EB
:105BB000DF770108087801080D780108067E0108E2
:105BC000115A000810B50131002393420ED0040F82
:105BD000092C01D8303400E0373401F8014C01338E
:105BE0000024000101F8024BDBB2EEE710BD00001B
:105BF0001F4B10B51A88032A04D8042001461880C8
:105C000006F06CFD4FF000604FF4A04106F05CFD23
:105C10001848012421460470174806F073FF05F068
:105C2000F9FD05F0E1FA2146402007F029F86FF070
:105C30007F4005F045FCE72005F0BEFC0F490C70E5
:105C400005F01AFB7D2007F03FF818B10C4B1C70D3
:105C500007F04EF840F6B83005F066FB06F0B8F8ED
:105C600006F032FB074A084901201070087010BD89
:105C7000F0150020CC15002000043000F0140020A6
:105C8000681F00207C15002072150020304B10B5D5
:105C90001A88042A04D805210420198006F01EFD64
:105CA0002C48017811B12C4802F0D8F8294C2378FF
:105CB00053B127480288052A04D806210180042010
:105CC00006F00CFD02F04EF9217861B1234C2378E7
:105CD0004BB92348027832B122490C781CB9224BC7
:105CE00018780028E2D0214A11780029DED1204C12
:105CF0002378002BDAD11C480278012A0FD01D49E5
:105D000069B1134C2388062B04D807210420218075
:105D100006F0E4FCFFF796FE134A012010701649C6
:105D20000029C3D00A4C2388072B04D8082104205B
:105D3000218006F0D3FCFFF79BFE20880828B5D809
:105D4000034A09210420118006F0C8FCAEE700BF19
:105D5000F01500207C150020156500083115002085
:105D600072150020EE140020A4040020EF1400207F
:105D7000681F0020455A0008715A0008524B70B540
:105D80001A6812B11868411E1960504B1A783AB15E
:105D90004F4A1078002829D04E49002949D125E0E2
:105DA0004D4C206810B12368591E0FE04B490B7809
:105DB000E3B94B4A1078C8B94A490B78B3B94A4D90
:105DC0002A782AB1E72005F071FC142121600DE04A
:105DD0004648017800292FD1E72005F01BFC4448F4
:105DE0003D4B0178002935D032221A603F4B1A789A
:105DF00032B1404D287818B92EE041684B1C436001
:105E00003D490B68B3F57A7F0FD300230B6006F092
:105E1000D7FE3A484FF6FF7102888A4253D001807C
:105E20000420BDE8704006F059BC0868421C0A60B6
:105E300070BD00F0D3FBD9E7314B1A78002ACBD0E4
:105E40004FF6FF7005F03CFBE72005F0B5FB0120A5
:105E50002870CBE76422C8E721490B7893B1294821
:105E600047F22F5243689342C7D9BFF34F8F264C56
:105E70002648E56805F4E06646EA0002E260BFF302
:105E80004F8FFEE7154E347834B9204605F022FDD9
:105E900040F6B73290420DD8002005F01BFD41F6C8
:105EA00057318842ACD9002005F01CFD184B012069
:105EB0001870A5E7204605F015FD2A78002A9FD125
:105EC000012131709CE770BD701F0020AC150020CF
:105ED00040080020DD6500086C1F00202015002010
:105EE000EF140020F1140020F01400207C15002095
:105EF000ED14002031150020741F0020F015002043
:105F0000EE140020A404002000ED00E00400FA05D7
:105F10001E15002008B5094B186005F003FF00208E
:105F200005F048FF064805F083F905F011FF05F07C
:105F30002FFFBDE8084007F0E3BD00BFB800002018
:105F4000A0860100074B1868052808D106490A7A7F
:105F5000012A04D1887A0B7BC11AC8B2704700208D
:105F6000704700BFF4150020A40400200D4B10B5AD
:105F70001868052813D10C4C217A01290FD16289A8
:105F8000A389D01A012804D100210320217207F02F
:105F900022FFA389E218591C907BA18110BD4FF00C
:105FA000FF3010BDF4150020A404002008B50C4BF0
:105FB0001968052912D10B4B1A6D991881F85400F4
:105FC000501CB0F5807F08BF0020186505F07AFDF1
:105FD00020B16420BDE8084005F02AB908BD00BF23
:105FE000F4150020A404002070B5234A92F854311F
:105FF000012B3FD0D2F85801B0F5807F02D10021AB
:10600000C2F85811D2F85831126D1B48934203D18F
:10601000002180F8541170BD8CBFC3F58072C3EBB2
:106020000202154CC0F85C21D4F85C5199B2402DA5
:1060300007D94033403DC4F85831C4F85C5140267C
:1060400006E0E8180023AEB2C4F85801C4F85C3189
:106050000A4A01255018C021324684F8545107F0ED
:1060600031FE2846314607F037FF2846BDE870402C
:1060700007F0A0BE70BD00BFA4040020F8040020FB
:10608000094B10B593E814000833186810180AD0AB
:1060900008220649FFF796FD054920460422BDE87F
:1060A0001040FFF78FBD10BDE8F7FF1F670000200D
:1060B0007700002013B5084C002100910A460B46DA
:1060C000204600F017FE0549054A204602B0BDE80B
:1060D00010400CF0CFBB00BF04060020055A00089A
:1060E0000C06002038B50D460446AC4203D254F8E5
:1060F000043B9847F9E738BD08B507480749FFF75B
:10610000F1FF07480749FFF7EDFF07480749BDE8DA
:106110000840FFF7E7BF00BF8081010880810108C8
:1061200080810108E0810108E0810108E081010827
:106130000CF03EBC08B5072006F0F0F9FEE70000C1
:10614000074A08B51368074918188842106004D92F
:10615000082006F0E3F90CF0C7FB184608BD00BFA5
:1061600000000020004800204FF0FF307047012061
:10617000704708B50C2006F0D1F9FEE7014B18680E
:10618000704700BF10060020064B0246582000FB57
:10619000013101F1080303CB106051601868906071
:1061A000704700BF10060020014BD3F86401704710
:1061B00010060020064B0246142000FB013101F5B9
:1061C000B67303CB1060516018689060704700BFD1
:1061D000100600200E4B2DE9F041D3F86471804683
:1061E0000024BC4211DA14256543094E414670195A
:1061F00000F5B6700C220CF086FD20B97519D5F8A3
:106200006801BDE8F0810134EBE70020BDE8F081D2
:10621000100600202DE9F04788B0814668460D46FB
:1062200000F05DFF1E4B0024D3F800A054452DDA8A
:1062300055B3582666431A4F494607F1040808EB40
:10624000060004300C220CF05EFDE8B928460CF084
:1062500052FD06F11001402834BF0246402208EBEF
:10626000010029460CF013FCBE19012286F85820C3
:10627000694604A8746800F054FF04A8A0470446C7
:1062800004A800F0EAFE03E00134CFE74FF0FF344A
:10629000684600F0E2FE204608B0BDE8F08700BF87
:1062A0001006002038B50546064C28B105F0AAF9BD
:1062B000012384F8303238BD05F052F984F83052A9
:1062C00038BD00BF10060020024B00221A6005F006
:1062D0001BBE00BFA8040020034A0448002313701B
:1062E000036005F049BE00BFEF140020A8040020A1
:1062F000044B0549002001221A7008604FF4C020A9
:1063000005F0DCBDEF140020A804002073B5002BBD
:106310000CBF6523452306460D46144600933146BF
:106320002A462346014808F003F87CBD44080020B3
:1063300010B5064C206803F06BFA2368013303D0D4
:10634000411E4842484110BD012010BD04000020FC
:10635000F0B5274B0646187887B00F46002843D182
:1063600024490A78002A3FD1FFF7E2FF04460028BB
:106370003AD1214D8DF80C002B688DF80D008DF869
:106380000E008DF80F0006A9580901EB800203F0FA
:106390001F01012000FA01F052F80C1C0494014383
:1063A00042F80C1C04A841F288320592009003A91F
:1063B000581C2246234604F0C9F8002816DD2B6835
:1063C00006A95D0901EB850050F80C5C03F01F0283
:1063D00045FA02F515F0010008D0184631463A4654
:1063E000234604F053F901E04FF0FF3007B0F0BD51
:1063F00030150020311500200400002038B50B4B6B
:10640000054618780C4668B909490A7852B9FFF769
:106410008FFF034630B9074829462246006804F03A
:10642000B3F938BD4FF0FF3038BD00BF3015002044
:10643000311500200400002030B51F48ADF57B7DEC
:1064400007F0BAFD002834D11C481D4B06901D4DA5
:106450001D4805931D491E4A1E4B0A950C901E4D62
:106460001E48079108920B931D491E4A1E4B0F951B
:1064700011901E4D1E481F4C0D910E921E491F4A31
:1064800010931F4B1495169061AD17A8129113929B
:106490001593099404900EAC039505F0B3FD2846BE
:1064A00005F0B6FD00940448164903AA05AB07F0B1
:1064B0008AFD0DF57B7D30BD440800205163000846
:1064C000FD630008C962000845680008F162000821
:1064D000D9620008A562000889610008A961000866
:1064E0001D7600087D61000815620008D56100086E
:1064F00031C0000841C00008B5610008E967000824
:106500001DC00008E8F7FF1F014808F0DCBC00BF11
:106510004408002030B5022011228DB0014603F05E
:106520005FFF051E28DB154907A807F092FE02232E
:1065300016200024ADF80C308DF80E003321E02237
:106540000123BB208DF811408DF80F108DF810201D
:106550008DF812308DF813000324102203A9009146
:10656000019200231322284607A904F017F9013CE1
:10657000F3D1284603F062FF0DB030BDE8F7FF1FEE
:1065800030B5134C87B0FFF757FF204607F017FDD3
:10659000204608F029F90546FFF7BCFF204607F022
:1065A000ACFE03A803F0ECFA9DF80D209DF80C302A
:1065B0000092082104A8074A0CF056FB064804A9DB
:1065C0003C220123FFF7A2FE284607B030BD00BFE2
:1065D00044080020137801081978010838B5114CD7
:1065E000D4F8585B2DB1D4F8581B4B1EC4F8583B57
:1065F00038BDD4F85C3B0C4A52F8230004F088FF05
:10660000E72004F0D9FF094A6420D4F85C1BC4F8E1
:10661000580B50684B1C8342C4F85C3BA8BFC4F8BD
:106620005C5B38BD10060020444D010804000020CA
:106630007FB502200121062203F0D2FE041E23DBD7
:1066400000200822022335218DF802004FF4FA5071
:10665000ADF800308DF803108DF804208DF805207A
:106660008DF806208DF8072001F0F0FB69460646FC
:106670001022204603F03EFF0546304601F0E6FBBF
:10668000204603F0DBFE01E04FF0FF35284604B062
:1066900070BD000010B5064C2068002805DB03F033
:1066A000CDFE4FF0FF33236010BD002010BD00BFB2
:1066B0000400002030B5A7B0FFF7ECFF0220012155
:1066C000062203F08DFE334B0028186052DB32485F
:1066D000022216213324A0F8602B80F8621B80F878
:1066E000634B05A805F05AFC9DF814300025009571
:1066F00033B1012B17D0294B01A803F1100502E09B
:10670000069A009214E0024659681868083303C2DA
:10671000AB421046F7D101A906AC0FC907C424F853
:10672000023B1B0C23700A24009D0DB9013C24D1AF
:10673000009808B91A490091009B174C180A1D0EC1
:106740001A0C84F8660B4FF4FA5084F8673B84F80F
:10675000645B84F8652B01F079FB0E490546102235
:10676000086804F5366103F0C5FE0446284601F0CA
:106770006DFB0CE04FF0FF3409E07E2106A80CF021
:10678000EEFA6A4681B206A803F07EFECCE7204608
:1067900027B030BD04000020100600203478010826
:1067A00004E5D0360F4B2DE9F041D3F864718046F3
:1067B0000024BC4211DA142565430A4E4146701983
:1067C00000F5B6700C220CF09EFA20B9751995F8F8
:1067D0007801BDE8F0810134EBE74FF0FF30BDE810
:1067E000F08100BF1006002008B5FFF7DBFF01387D
:1067F000082803D8024B1918087F08BD022008BDDD
:10680000444D010803F076BE37B50B4C002104F56A
:1068100037650B4600910A46284600F06BFA284679
:106820000649074A0CF026F804F50D7003B0BDE8E0
:10683000304007F0B1BB00BF10060020055A000829
:106840000C06002005F036BC1FB504464FF47A73E1
:106850001B4800930268A118016005F02BFC019011
:1068600006F0AEF905F026FC02900298019BC21AD0
:1068700003920399002903DA0198029B1A180392E4
:106880000399A1421BD20F480378002BE8D00E4A8F
:1068900011780029E4D10398009B984204D2084A59
:1068A0001168B1F57A7FDBD3039800F57A73009312
:1068B00001F058FB054A11780029F9D1D0E71FBD36
:1068C0002C1500207C15002031150020EF1400202D
:1068D00013B5084C002100910A460B46204600F0F3
:1068E00009FA0549054A204602B0BDE810400BF000
:1068F000C1BF00BFB4110020055A00080C060020DB
:1069000038B5194B05461C88B3F80024A4B290B2E0
:1069100028B94EF6EE63E01A18BF012006E00CBB62
:106920004EF6EE63C41A624252EB0400840204F194
:10693000006201300D4B02F580448202D01884427F
:106940000ED22268013209D1204606F047F8042809
:1069500009D1A01C294606F041F838BD0434EEE701
:10696000802038BDAB2038BD00400008FE3F000845
:1069700008B5084806F04EF804280AD10021054859
:1069800006F02CF8042804D10348BDE8084006F0BE
:1069900041B808BD00400008004400080F4B10B586
:1069A0001A8893B20E4A128892B21BB10AB1AB2078
:1069B00010BD01239C020B4BE3180B4AA218934213
:1069C0000AD91A8892B2824204D133F8020C0880A4
:1069D000002010BD043BF0E7012010BD004000087E
:1069E00000440008FE43000802400008F8B5434E8A
:1069F00005F0B4FF424D34884EF6EE61A4B22B8808
:106A00008C4298B24FF6FF720FD0944202D0002C05
:106A100042D070E000286AD088426CD1304605F040
:106A2000F9FF042869D1284632E048BB04461646DF
:106A3000344D35492B8831F8145098B2A84208BF1C
:106A4000A6B232B2944203D10134642CF0D10FE0EB
:106A50002D4F284607F1C801FFF7A0FF0128F3D00A
:106A60002846B7F8C810FFF74BFF0428ECD0F8BD54
:106A70000021224805F0B2FF04283ED1204837E02B
:106A8000904238D1284605F0C5FF042835D130465C
:106A9000002105F0A3FFF8BD00282CD09042EDD0D6
:106AA00016461A4D18492B8831F8145098B2A8424E
:106AB00008BFA6B232B2944203D10134642CF0D1A3
:106AC0000FE0114F284607F1C801FFF767FF0128C3
:106AD000F3D02846B7F8C810FFF712FF0428ECD00F
:106AE000F8BD0021064805F079FF042805D10348C8
:106AF00005F090FFF8BDFFF73BFFF8BD0040000830
:106B00000044000806400008BC11002006440008AC
:106B100010B50446FFF76AFF0023044A22F8133039
:106B20000133642BF9D1204610BD00BFBC110020F9
:106B30000148FFF7EDBF00BF86120020024B187816
:106B40005978401A704700BF88120020064B5A78C7
:106B50001978914204D99818013280785A70704798
:106B60004FF0FF30704700BF88120020054B5A7865
:106B70001978914202D99818807870474FF0FF3009
:106B8000704700BF8812002070470000014B03606F
:106B9000704700BFB84D0108034B10B504460360B1
:106BA000FFF7C6FA204610BDB84D0108F8B5094BED
:106BB000054693F82200164650B10C468F18BC4289
:106BC00006D0296828468A6814F8011B9047F6E722
:106BD0003046F8BD8812002010B50C4B012293F806
:106BE00022408CB193F823401F2C02D94260002030
:106BF00010BD93F824001C1884F82510411CC8B25D
:106C000083F8240083F82300104610BD881200206A
:106C100000224260024A4FF47A718160026070473C
:106C2000784D01087047704773B50E4C002104F190
:106C300064050D4E0B4600910A46284600F05AF8AE
:106C40006C343246094928460BF014FE2046FFF703
:106C5000DFFF07492046324602B0BDE870400BF026
:106C600009BE00BF881200200C060020055A00084B
:106C70008D6B000808B5034B53F8200000B1804726
:106C800008BD00BF0413002013B5084C002100917B
:106C90000A460B46204600F02DF80549054A2046D5
:106CA00002B0BDE810400BF0E5BD00BF441300206A
:106CB000055A00080C0600202DE9F0410024074683
:106CC0000E4625463B1919790A22304600F0F7F89E
:106CD0002E218046304600F096F801344044032CC3
:106CE0000544EFD13046F9790A2200F0E8F8281877
:106CF000BDE8F08130B58371044D9DF80C30044639
:106D0000056001714271C37130BD00BFA04D010823
:106D100005480021054B017141718171C171044A1F
:106D2000044903600BF0A6BD4C130020A04D0108E0
:106D30000C060020055A000813B5084C00210091EC
:106D40000A460B462046FFF7D5FF0549054A20466F
:106D500002B0BDE810400BF08DBD00BF5413002001
:106D6000055A00080C060020014B0360704700BF65
:106D7000B84D0108F8B506460C468F180025BC42F0
:106D800007D0336830469A6814F8011B90472D18D5
:106D9000F5E72846F8BD0000034B10B50446036034
:106DA000FFF7C6F9204610BDB84D010838B50546B5
:106DB0000C46084641B10BF09EFF2B680246DB688B
:106DC00028462146984738BD38BD2DE9F0410024BA
:106DD00006460F462546BB689C420DD230682146C8
:106DE000D0F80880384600F0EFF901463046C04739
:106DF00001342D18A4B2EEE72846BDE8F08108B5AD
:106E0000FFF7D4FF08BD08B503689A68904708BD2E
:106E100038B50D210546FFF7F6FF0A21044628463E
:106E2000FFF7F1FF001938BD38B50446FFF7CDFF75
:106E300005462046FFF7ECFF401938BD38B504463B
:106E4000FFF7B4FF05462046FFF7E2FF281838BDDC
:106E500070B500238AB08DF82430012A98BF0A2229
:106E60000DF12303B1FBF2F505FB1211CCB2092C95
:106E70001E4601D8303400E03734E4B203F801494B
:106E80002946002DEED13146FFF790FF0AB070BDC4
:106E900010B5044622B90268C9B29268904710BD85
:106EA000D2B2BDE81040FFF7D3BF38B50446FFF7B4
:106EB000EFFF05462046FFF7ABFF281838BDFFF768
:106EC000E7BFF8B506460D46144622B90368C9B2B5
:106ED0009A689047F8BD0A2A0CD100290BDA2D21B7
:106EE000FFF791FF6942074622463046FFF7B0FFA1
:106EF000C019F8BDD2B2BDE8F840FFF7A9BF38B558
:106F00000446FFF7DEFF05462046FFF781FF2818FD
:106F100038BD000013B5084C002100910A460B460D
:106F20002046FFF7E7FE0549054A204602B0BDE8C6
:106F300010400BF09FBC00BF64130020055A0008EE
:106F40000C06002013B5084C002100910A460B46A0
:106F50002046FFF7CFFE0549054A204602B0BDE8AE
:106F600010400BF087BC00BF6C130020055A0008CE
:106F70000C0600207047000013B5084C002100915A
:106F80000A460B462046FFF7B5FE0549054A20464E
:106F900002B0BDE810400BF06DBC00BF8C130020A8
:106FA000055A00080C06002013B5084C002100917A
:106FB0000A460B462046FFF79DFE0549054A204636
:106FC00002B0BDE810400BF055BC00BF9813002084
:106FD000055A00080C06002010B504460BF08BFE85
:106FE000013823462018834206D21A78017803F824
:106FF000011B00F80129F6E710BD38B5931E222BBE
:107000000C461BD8B0B10B46B0FBF2F102FB1100ED
:10701000C5B2092803F8015B01DC303500E05735C3
:1070200003F8015C08460029EED119702046FFF7ED
:10703000D3FF04E030220A70487000E000242046AC
:1070400038BD031E10B50C4603DA2D2001F8010BE4
:107050005842FFF7D2FF204610BD10B50446006825
:107060000BF0A6FC204610BD10B50446006808B120
:107070000BF09EFC00232360A360636010BD38B555
:1070800004460D46006801310BF06CFD10B184E838
:107090002100012038BD036810B5044613B14068D3
:1070A000884207D22046FFF7EAFF20B1A16809B95C
:1070B00022681170012010BD70B50E4611460446BD
:1070C0001546FFF7E8FF18B92046FFF7CDFF04E0AB
:1070D000A560206831460BF006FE204670BD38B52D
:1070E0000023044603604360836003730D4639B197
:1070F00008460BF000FE294602462046FFF7DCFF5B
:10710000204638BD884210B50B46044607D00968B2
:1071100019B19A68FFF7D0FF01E0FFF7A5FF2046FD
:1071200010BD002310B50446036043608360037301
:10713000FFF7E8FF204610BD38B505460C4641B1C3
:1071400008460BF0D8FD214602462846FFF7B4FF5B
:1071500001E0FFF789FF284638BD10B5002386B04F
:1071600004460360436083600373084601A9FFF788
:1071700068FF204601A9FFF7DFFF204606B010BDDB
:1071800070B5044685680E4609B9002070BD62B12D
:1071900055192946FFF77FFF0028F6D02068A3681D
:1071A0003146C0180BF09FFDA560012070BD0B4655
:1071B00010B509689A680446FFF7E2FF10B9204647
:1071C000FFF752FF204610BD8368994203D2006842
:1071D00010B1405C70470020704738B50C469AB13A
:1071E00091B181688B4202D30020207038BDCD1A46
:1071F000013A0168954228BF1546C91820462A461B
:107200000BF098FD0023635538BD13B5026802AB3F
:1072100003F8011DD46819460122A0471CBDB0F82F
:107220009620B0F8943010B59A42044607D0B4F8CE
:107230009430E018591C007DA4F8941010BD01682A
:107240000A6990470028F2D14FF0FF3010BDB0F826
:107250009620B0F8943010B59A42044604D0B4F8A1
:1072600094002418207D10BD01680A699047002809
:10727000F5D14FF0FF3010BD0023A0F89430A0F8F6
:107280009630704710B504460069082801D003F015
:10729000D5F80823236110BDF8B51746B0F894302F
:1072A000B0F8962004469A420E4606D101680D6950
:1072B000A84710B94FF0FF3512E0B4F89400B4F8C5
:1072C00096202118151ABD4228BF3D46143130467C
:1072D0002A460BF0DCFBB4F89430E918A4F89410BB
:1072E0002846F8BDF0B585B004460D46164600F0B8
:1072F00099FB0228074634D10121062203F070F8D9
:10730000002820612DDB23682046D9698847AB79A6
:10731000300A2A798DF803606E79ED798DF80200D4
:107320004FF4FA508DF806308DF804208DF8056082
:107330008DF80750ADF8007000F088FD102205466A
:1073400069462069FFF75EFA0646284600F07EFD92
:10735000002E04DA21682046CA6A904701E0012025
:1073600000E0002005B0F0BD2DE9F04188B00646F0
:107370000F46904600F056FB02284FF0000422D141
:1073800008AD384645F8144D0BF0B5FC2A4681B2DD
:10739000384603F079F8A04215DD039B04A8DAB261
:1073A000190E0092C3F30742C3F30723FFF7A2FCB1
:1073B00030680749059B046A06910793304606A981
:1073C0004246A04700E0204608B0BDE8F08100BF7B
:1073D000A04D010830B5B0F8963087B0044633B1FF
:1073E000B0F894209A4202D10168CB69984700F026
:1073F00019FB022824D12069082821D0B4F896204E
:107400007F2A1DD8410906AB03EB810300F01F0260
:10741000012101FA02F10025039553F80C2C0130EB
:107420000A4343F80C2C04A941F2883305930091D8
:107430002A4603A92B46049503F088F8A84206DCE7
:10744000B4F89610B4F89430C81A07B030BD20696B
:1074500006AB420903EB820151F80C2C00F01F032C
:1074600042FA03F1CB07EBD5B4F89630E1181431AA
:10747000C3F180022B4603F009F90028E0DDB4F8DF
:1074800096200AB9A4F894201018A4F89600D7E71B
:107490004FF47A7181600549002201600821426041
:1074A0000161A0F89420A0F896207047D04D010803
:1074B000036910B5082B044601D1002010BD00F06F
:1074C000B1FA0228F9D1206902F0A2F9D0F1010045
:1074D00038BF002010BD08B5FFF7EAFF003018BF25
:1074E000012008BD70B50446FFF7E2FF01281BD05C
:1074F000B4F89620B4F894309A4214D12069082840
:1075000004D002F085F90128064601D0002070BDA4
:107510002068016920468847054620B92268204630
:10752000D36A9847F2E7012070BD70B504460E4655
:107530001546FFF7BDFF30B1206931462A460023CA
:1075400003F022F970BD4FF0FF3070BD13B5084C49
:10755000002100910A460B462046FFF7CBFB054968
:10756000054A204602B0BDE810400BF083B900BFC9
:10757000A0130020055A00080C06002013B5084C83
:10758000002100910A460B462046FFF7B3FB054950
:10759000054A204602B0BDE810400BF06BB900BFB1
:1075A000A8130020055A00080C06002038B51A4C14
:1075B00094F92C30002B2DD094F82D00002829D0E0
:1075C00005F0BEFB94F82C2094F82D5051B2002900
:1075D00095FBF1F306DD012B0BDC511E84F82C101A
:1075E000002407E0591C04DB013284F82C2002241B
:1075F00000E00124084B041993F82D20511E83F854
:107600002D1005F0D1FB204605F0AEFBBDE838405B
:1076100005F0CABB38BD00BFB013002010B504464A
:1076200005F08EFB001B00F17F02FE2A08D905F051
:10763000BBFB204605F098FBBDE8104005F0B4BB4D
:10764000054980EAE073A3EBE07381F82C00580051
:1076500081F82D0010BD00BFB013002013B5084CF9
:10766000002100910A460B462046FFF743FB0549DF
:10767000054A204602B0BDE810400BF0FBB800BF41
:10768000E0130020055A00080C06002013B5084C32
:10769000002100910A460B462046FFF72BFB0549C7
:1076A000054A204602B0BDE810400BF0E3B800BF29
:1076B000EC130020055A00080C06002013B5084CF6
:1076C000002100910A460B462046FFF713FB0549AF
:1076D000054A204602B0BDE810400BF0CBB800BF11
:1076E000F4130020055A00080C060020014B03602B
:1076F000704700BFB84D0108426D836DD01A00F08D
:107700003F007047426D836D9A4203D0816D4018EF
:10771000007D70474FF0FF307047426D836D9A4295
:1077200009D0816D4218816D137D4A1C02F03F0122
:107730008165184670474FF0FF307047D0F8A4308D
:1077400070B504460E46186840F2277105F089FDB1
:1077500028B9D4F89C20D4F8A000824213D1D4F8E0
:107760009C506B1C03F03F05D4F8A020954213D029
:10777000EFF31080C30744D5D4F89C10D4F8A030A0
:10778000994209D13DE0D4F8A4100122086840F2E2
:10779000277105F03EFDE2E7D4F8A43040F22771EE
:1077A000186805F05EFD0028DED0D4F8A420802102
:1077B000106805F050FD0028D6D0D4F8A4000022AF
:1077C000006840F2277105F024FDD4F8A030D4F809
:1077D000A410E2180133086892F85C10C4F8A030D5
:1077E00005F031FDD4F8A000D4F8A42000F03F014A
:1077F000C4F8A010106840F22771012205F009FDBD
:10780000B2E7D4F89C20D4F8A410A01880F85C60EB
:10781000C4F89C5001250868257440F227712A4657
:1078200005F0F7FC284670BD10B50446D4F89C203E
:10783000D4F8A0309A42F9D1207C10B900222274E9
:1078400010BDD4F8A4100868402105F004FD0028FC
:10785000F2D0F3E7034B10B504460360FEF768FC73
:10786000204610BDB84D010810B540F22551044620
:10787000006805F0F6FC70B1206805F0E8FCE369EB
:10788000C0B21A6C511C01F03F02596C8A4202D0FE
:10789000196C1A645854206840F2277105F0E1FC15
:1078A000B8B1A3692068196C5A6C914206D140F2B4
:1078B00027710022BDE8104005F0ABBC5A6C995C02
:1078C00001325A6405F0BFFCA069436C03F03F012C
:1078D000416410BDF8B500254FF47A730446836007
:1078E00045600B4804F15C072060482604F1140051
:1078F000C4F8A41032468F61C86129460BF0EAF83B
:107900003846294632460BF0E5F825742046F8BD86
:10791000104E01080148FFF7A7BF00BF0C00002070
:107920000148FFF7A1BF00BF2C00002073B50E4C2B
:10793000002104F114050D4E0B4600910A4628461D
:10794000FFF7D8F91C343246284609490AF092FF5D
:1079500020460849FFF7BEFF07492046324602B0DD
:10796000BDE870400AF086BFFC1300200C06002022
:10797000055A00080C000020ED76000870474FF013
:10798000FF307047014B0360704700BFB84D0108DE
:10799000034B10B504460360FEF7CAFB204610BD3A
:1079A000B84D0108084608B5FEF700FB012008BDE8
:1079B00008B5FEF7C7FA08BDFEF7D8BA0022426044
:1079C000024A4FF47A71816002607047384E0108B4
:1079D0000846FEF79FBA000037B50D4C00210D4D4B
:1079E0000B4600910A462046FFF784F92A460A49C9
:1079F000204608340AF03EFF2046FFF7DFFF074924
:107A000020462A4603B0BDE830400AF033BF00BF2D
:107A1000C01400200C060020055A000885790008D3
:107A200070470000044B187828B1044801780029F9
:107A300014BF0220012070471F150020EC14002005
:107A400037B50B4C00210B4D0B4600910A462046E2
:107A5000FFF750F92A46204607490AF00BFF07496D
:107A600004F108002A4603B0BDE830400AF002BF26
:107A7000D81400200C060020055A0008217A0008BE
:107A800000230360184670470023036018467047C0
:107A90000023036018467047034610B548F21004EF
:107AA000A34208464CD00CDC48F20102934223D09A
:107AB000501C83422AD0992B65D1334B01219973F5
:107AC00010BD48F28004A3420FD0B3F5084F4AD04E
:107AD00048F24000834256D12B4C04F110000AF0CA
:107AE000D6FF616A4B1C636210BD2748012200214A
:107AF00002704270817010BD234C0122E270FEF7CB
:107B0000A1FE00F5EA403030606010BD1E4CE27806
:107B100062B1FEF797FE00F5EA40303060604FF446
:107B20007F4003F0CDFCE72003F046FD164900231B
:107B3000CB700B724B728B72CB720B734B7310BD8D
:107B4000087D114B60B9012158604FF47F401972D4
:107B5000197303F0B5FCE720BDE8104003F02CBD1D
:107B600000221A7210BD002101F04BFA01210446D7
:107B700001F08EFA054A1068844204D102490023BC
:107B8000CB728B724B7210BDE414002004000020F5
:107B9000F0B50B7891B004460D4616462BB1032A7A
:107BA00055D8DFE802F002113C3C20460BF0A3F868
:107BB0000246012000900020019002900390049062
:107BC0000590214603463DE008460BF094F8002658
:107BD00047088DF81E600235BE4210D015F8021C11
:107BE00015F8012C8DF81C108DF81D2007A8002118
:107BF00010220BF057F908AB98550136EBE72046F9
:107C00000BF079F801210023024608A88DE8420014
:107C100004900293084603930593214612E00BF06B
:107C20006AF8074628460BF066F8012118221E2341
:107C30004FF0020E8DE80E40059004953046214627
:107C40003A46002302F0DCFE044981F82800034B89
:107C5000012283F8292011B0F0BD00BFE4140020F8
:107C60001FB50A2200234FF461504FF461618DE883
:107C70000F00064B44F620621A60684601A902AA6A
:107C800003AB01F0C9FE05B000BD00BFA815002080
:107C90001FB50023009301930293039301A8694643
:107CA00002AA03AB01F080FE05B000BD70B5002153
:107CB0000A4C0E2001F07EFF102510210E2001F04D
:107CC00079FF00212A4620460AF004FF0E202946AB
:107CD00000222346BDE8704001F020BF0E150020B1
:107CE00030B5564D00249FB0FF202C706C7085F885
:107CF0002940EC702C72AC736C72AC72EC722C7309
:107D000003F0DEFBE72003F057FC21462246204625
:107D100002F052FE2B46012103F82B4F0E200A469B
:107D200001F0FCFE454BD878012805D1642003F012
:107D300077FA01F0D3FAF5E710210C2001F03AFFB1
:107D40003F4802F008FB3F4802F0AAFF012002F082
:107D50008BFF68463C4900F0D9FF384D297895F8EB
:107D600029200A4318D195F83A1000295BD0FF204A
:107D700002F02EFF002856D11A24013C06D0E7203D
:107D800003F048FC322003F04BFAF6E7FFF78EFFD2
:107D90002A4A82F83A40E0E7E72003F00DFC0E2083
:107DA0000121002205F12A0301F08CFE2C781CB180
:107DB00002F094FF85F82800204C012194F8283027
:107DC0000022581C234603F82A0F0E2001F0A6FEBD
:107DD00000200146012202F0EFFD0125234603F8B1
:107DE0002B5F29462A460E2001F098FE02F06AFD1C
:107DF000642003F015FA002002F02EFD84F83B50B9
:107E00004FF47F400025257303F05AFBE72003F071
:107E1000D3FB48F2042002F0F5FEFFF721FF84F8BF
:107E20003C501FB030BDE72003F0F4FBFA2003F014
:107E3000F7F9684600F0DCFF8FE700BFE41400208C
:107E4000584E01084C000020917B0008024B1A6834
:107E500018601046704700BFA815002030B5364C9A
:107E600085B0206403F090FE03F0D0FD334B34481E
:107E70003449354A00930190344B029103923449BE
:107E8000344A354802F0D0FC642003F0C9F90125DA
:107E9000002002F0E1FC84F83B5048F20420002569
:107EA000257302F0AFFE2D4B1888012831D00E202B
:107EB00010212A4604F12A0301F004FE102828D1DB
:107EC0001D4CA278AAB994F82A301BB9012084F875
:107ED0003C000EE094F82B0058B90146012202F054
:107EE0006BFD0121234603F82B1F0E200A4601F0EB
:107EF00015FE11498A78BAB991F83C30A3B11848F7
:107F000001F03EFEFFF7C4FE05B0BDE83040FFF7CC
:107F1000A7BEFF2002F05CFEFFF7C8FE0F49002459
:107F20000C8003F07DFFCBE74FF47F4003F0C8FAED
:107F3000E72003F041FBE2E7E4140020C5BA0008A3
:107F4000D9BA000845BB00086DBB0008917A00084B
:107F5000817A0008897A0008997A00089A0100203D
:107F6000281500202DE9F3419A4C04F029FE002346
:107F7000A36494F84C0048B994F84D1031B9626884
:107F80007AB3FEF75FFC6468A0422AD3914C94F860
:107F90003B00002840D00025E5706560257225650E
:107FA00084F84C50012684F83B506572A572E57246
:107FB000657302F087FC6FF07F40267303F080FA50
:107FC000E72003F0F9FA642003F02AF994F83C1052
:107FD00011B3284602F040FC84F83B60FFF780FEB6
:107FE0001AE07C4C94F83B30B3B9A07828B9FEF77E
:107FF00029FC00F5EA4130316160002002F02CFCE0
:10800000012200234FF47F4084F83B20237303F0C8
:1080100057FAE72003F0D0FA6E4C94F83C2012B1E6
:10802000FFF75EFE04E0A37813B1267A35460EB35F
:1080300068484178012914D1047A012C11D1C27801
:10804000012A0ED1032464480AF055FE624982B227
:10805000012002F0AFFB631E13F0FF04F3D15D4873
:1080600044705C4C217A2346E1B194F84D20002AFB
:1080700075D017E0314632463046666002F09CFC0F
:1080800056480AF038FE564F804638460AF033FE0E
:1080900000970190791F03204246334602F028FCE6
:1080A000A670C5E793F8570020B14E4800213A2248
:1080B0000AF010FD474B93F88E2032B9587A002809
:1080C00059D19B7A002B56D1B8E01C7AFCB193F8B9
:1080D0004D00E0B9597A00295ED018E0234603F834
:1080E0002D2F0E200121032201F018FD394C00250F
:1080F0004FF6FF70257303F0E3F9E72003F05CFA15
:10810000FEF7D8FAA84271DB256501236372314C72
:10811000617A002900F09280A27ABAB9FEF730FAAB
:10812000002811D002DA4FF47F0007E0012801D1C6
:108130002D4803E0022803D14FF0FF1003F0C0F9EF
:10814000E72003F039FA01E00120A072FEF7DCF924
:10815000002873D11F4BD872987258726EE094F851
:1081600057100029A6D1642003F05AF804F15400F6
:1081700001F096FC9EE7FEF78DFA164900224FF4B7
:108180007F40CA728A724A7203F09AF9E72002B0FD
:10819000BDE8F04103F010BA5D7B002DA6D04FF48E
:1081A0007F0003F08DF90B4C627B002A96D0E7200C
:1081B00003F002FA4FF4FA7003F032F8E72003F00C
:1081C00009FA4FF4FA7003F02BF8657B691ECAB206
:1081D0006273E8E7E41400204F00002056000020FE
:1081E0005B000020381500200060FF0094F84C3040
:1081F00023BB206D411C0229216502D1012284F894
:108200004C20FEF715FA00280E4C09DA206D411CAF
:108210000229216502D1012284F84C20022300E0CA
:1082200003236373074C0121607B234603F82D0F62
:1082300003220E2001F072FC002367E702B0BDE8C4
:10824000F08100BFE414002013B5084C0021009118
:108250000A460B462046FEF74DFD0549054A2046D5
:1082600002B0BDE810400AF005BB00BF7415002045
:10827000055A00080C060020704708B5012004F0DC
:108280004DF9FEE708B5032004F048F9FEE708B50C
:10829000042004F043F9FEE708B5052004F03EF998
:1082A000FEE770477047704708B503F0FBFEBDE876
:1082B0000840FDF763BD000008B5024B0BB1AFF3FA
:1082C000008008BD0000000008B5024B0BB1FFF7AD
:1082D00027FB08BD2179000808B5024B0BB1FFF759
:1082E00019FB08BD1579000808B5024B0BB1FEF764
:1082F00099FC08BD256C000808B5024B0BB1FEF7D0
:1083000092FC08BD276C000808B5024B0BB1FEF7C4
:1083100031FE08BD756F000808B5012004F008FBA8
:1083200038B1012004F014FB024B13B10020FEF71A
:10833000A1FC08BD756C000808B5022004F0F8FA2D
:1083400038B1022004F004FB024B13B10120FEF708
:1083500091FC08BD756C000808B5042004F0E8FA2B
:1083600078B1042004F0F4FA0020064B014618808E
:1083700003F0DEF9044810210122BDE8084004F0B2
:1083800000BF08BDC8150020002C014008B508201A
:1083900004F0CEFA38B1082004F0DAFA024B13B137
:1083A0000320FEF767FC08BD756C000808B51020B7
:1083B00004F0BEFA38B1102004F0CAFA024B13B12F
:1083C0000420FEF757FC08BD756C000808B5202096
:1083D00004F0AEFA38B1202004F0BAFA0E4B13B113
:1083E0000520FEF747FC402004F0A2FA38B14020F7
:1083F00004F0AEFA084810B10620FEF73BFC8020DE
:1084000004F096FA38B1802004F0A2FA024911B1C2
:108410000720FEF72FFC08BD756C000808B54FF467
:10842000005004F085FA40B14FF4005004F090FA87
:10843000174B13B10D20FEF71DFC4FF4804004F0E4
:1084400077FA40B14FF4804004F082FA104810B13E
:108450000E20FEF70FFC4FF4004004F069FA40B123
:108460004FF4004004F074FA094911B10F20FEF7EF
:1084700001FC4FF4006004F05BFA38B14FF4006087
:1084800004F066FABDE8084002F054BE08BD00BF23
:10849000756C000808B50F48102104F0ABFEC0B1A0
:1084A0000C48102104F0B1FE002003F003FA28B9B3
:1084B000094B1A880A3290B2188008BD102105486D
:1084C000002204F05EFE00200121BDE8084003F018
:1084D0002FB908BD002C0140C815002008B5024B7B
:1084E000186800B1804708BD8015002008B5024B10
:1084F000586800B1804708BD8015002008B5024BC0
:10850000986800B1804708BD8015002008B501209B
:1085100004F066FC50B1012004F074FC044B0BB174
:10852000FFF744F8BDE8084004F03EBC08BD00BFBA
:10853000AD75000808B5022004F052FCB0B10C4B38
:1085400000224FF400301A7004F002FA012004F007
:1085500061FB10B1012004F067FB04F025FC022050
:1085600004F050FCBDE8084004F01EBC08BD00BF8C
:108570003115002002F06EBD00F062B838B5144924
:108580000B78012B23D1134A13680BB90B7038BD3C
:10859000114C402B206881B205D94030403B20600F
:1085A0001360402504E09DB2C318002023601060D2
:1085B0000A4A5018C0212A4605F084FB01202946AA
:1085C00005F08AFC0120BDE8384005F0F3BB38BD5A
:1085D000F805002000060020FC050020F80400201B
:1085E000094908B50020094B0122088003201A70B0
:1085F00005F09EFC064B0246188006484FF4887131
:10860000BDE8084005F075BBB0040020AC040020B4
:10861000AE040020B2040020074B1868052809D1D9
:10862000064B1A68511C052A196003D100201860F6
:10863000FDF7DABC704700BFF41500208C15002050
:108640003A4A38B511683A4B88B23A4D18801C88BE
:108650002988214001F4007084B244B14FF6FF55DF
:1086600015609A78511CC8B29870FFF7D5FF304C4E
:10867000304B25881A882A4002F4004188B22546EA
:108680001C4608B105F058FA2A882388134003F4E1
:10869000806188B230B1254B27494FF6FF321A600E
:1086A00048688047224A234B11881B88194001F4EF
:1086B000005081B219B11D494DF6FF700860128853
:1086C000134003F4805398B230B1184A4EF6FF714C
:1086D0001160002003F0DEFE154B164918880A8849
:1086E000024002F4006398B260B114490A7812B1F2
:1086F00003F0B0FE02E0022003F0CCFE0B4B4FF281
:10870000FF7018600A490B480A880388134003F475
:1087100080718AB242B1054B4FF6FF6018600720A6
:10872000BDE8384003F0B6BE38BD00BF445C004031
:1087300090150020B41F0020F0000020C001002090
:10874000034B987A10B1034905220A60704700BFB5
:10875000901F0020F4150020014B04221A6070477E
:10876000F4150020034B1A78202A01D1002018703C
:10877000704700BF9415002070470000212810B5F5
:1087800008D111480368197801F07F02212A11D01D
:10879000022010BD2028FBD10B4B19680A780B4929
:1087A00002F07F030A4A212B0CBF0B4600231070F6
:1087B0000BB9EDE7074B044C206800248361448229
:1087C00020469847204610BDB01F0020258800088D
:1087D000941500200D880008074B19680A7802F0EC
:1087E0007F03212B05D1022801D1002070472228C8
:1087F000FBD00220704700BFB01F002009B102204B
:1088000070470128FBD808467047000020B9034B89
:10881000082219680A82704701487047B01F00207B
:10882000B800002020B9034B082219680A8270475B
:1088300001487047B01F0020B8000020054B1968A0
:10884000CA78042A04D8044B03EBC20104F0F4BE36
:1088500000207047B01F0020C0000020014904F034
:10886000EBBE00BFE0000020014904F0E5BE00BF00
:10887000E8000020334A344BD179186810B5002441
:1088800041728472C472204605F046FA20464FF4C5
:10889000007105F049FA1021204605F051FA4021F7
:1088A000204605F0EDFA8021204605F0D9FA204651
:1088B00005F0A2FA254B204693F8641005F01AFB48
:1088C000204605F088FA0120214605F02DFA012006
:1088D000C02105F0C5FA0120202105F031FA012060
:1088E000214605F04AFA02204FF4C06105F01CFA57
:1088F00002204FF4807105F0B3FA0220214605F002
:108900003CFA0220202105F01BFA0320214605F045
:108910000BFA03204FF4887105F0B2FA03204021CE
:1089200005F0E8FA03204FF4405105F026FA032041
:10893000214605F005FA204605F090F8044A01208A
:10894000106010BDC54E0108B01F0020B800002007
:10895000F415002010B5FDF793FB054B00241868B3
:10896000847203F05FFD05F0F9FA02490C6010BD56
:10897000B01F0020F415002038B5044615460846FF
:108980002922211D0023FEF728FC2560204638BD42
:108990002DE9F84300251E464FF0010840F6B83394
:1089A0000446C0F8443180F83051C0F8345180F8A2
:1089B000385180F83981C0F83C51C0F8405100F17D
:1089C000F500C4F828010F46814882499146FEF718
:1089D00016FA2068502201684B6A7F4998470028A0
:1089E0006BD020680268D569A8477C497848FEF7B3
:1089F00025FA7B492068FEF702FA49462068FEF70F
:108A0000FEF978492068FEF719FA77492068FEF7E1
:108A100015FA76492068FEF7F2F975492068FEF7E5
:108A2000EEF974492068FEF7EAF925460A22414624
:108A30002068FEF764FA55F8040B6F49FEF7DFF97A
:108A400029462068FEF7FAF96C492068FEF7F6F926
:108A50006B492068FEF7F2F96A492068FEF7CFF902
:108A600038460AF048F90A2201462068FEF71DFA46
:108A70002068FEF7CDF939462068FEF7DFF9FDF7EB
:108A8000E1FED4F844114018C4F83C015E49504856
:108A9000FEF7D4F9D4F83C21D4F840319A4208D8F2
:108AA000D4F83C01D4F8401188420AD848485749C4
:108AB00005E094F8391181B9F2E745485449FEF7C9
:108AC000BDF920680368DA6A904752494048FEF7CA
:108AD000B5F994F83001BDE8F8832068026813699D
:108AE000984794F8381198B111B9012084F83801E9
:108AF000206801684B699847D4F83411C0B26218F5
:108B00004B1C84F83A0182F82D00C4F834315AE045
:108B1000D4F83421A31883F82D00002953D084F809
:108B2000380184F839013C4904F12D052848FEF745
:108B300085F929462648FEF781F9284637490AF083
:108B40001BF920B336492248FEF778F9012184F851
:108B50003011284633490AF00FF9D4F83421031DA7
:108B6000A018C4F8283100F12E01C91A306809F0A4
:108B7000F9FF3060002893D0D4F83421D4F82811BC
:108B8000A31803F12E02521A0AF0D4F81BE028466B
:108B900025490AF0F1F807460D4837B12349FEF799
:108BA0004DF9012084F830010DE02149FEF746F926
:108BB0000A2128460AF08AF82946C4F828010770D5
:108BC0000348FEF73BF9FDF73DFEC4F8400161E7BD
:108BD000C814002044780108887801085D780108ED
:108BE00067780108BB7A0108827801089778010844
:108BF000B6780108BC780108C4780108D478010867
:108C00000D7901084C7901085D790108D6790108D0
:108C1000F37901081C7A0108627901087179010869
:108C200081790108027E010892790108AA79010878
:108C3000BB7901082DE9F3479A468B68044603F196
:108C4000010948461746884609F0AAFE0646B86854
:108C5000013009F0A5FE0546202009F0A1FE019093
:108C60000EB105B120B91A481A49FEF7E7F8FEE738
:108C7000404631464A460023FEF7AFFABA68384606
:108C8000294601320023FEF7A8FA204631462A463B
:108C900001ABFFF77DFE074638B101995046FEF75C
:108CA0004BFA012184F8301105E009480A49FEF722
:108CB000C5F884F83071304609F07AFE284609F08C
:108CC00077FE019809F074FE94F83001BDE8FC8746
:108CD000C81400202F7A0108487A010813B5084CFF
:108CE000002100910A460B462046FEF703F805498D
:108CF000054A204602B0BDE8104009F0BBBD00BFE8
:108D000098150020055A00080C06002038B50446C6
:108D10000D46FEF753FE204625614FF41651FEF72F
:108D200057FE204638BD000013B5084C00210091C5
:108D30000A460B462046FDF7DDFF0549054A204659
:108D400002B0BDE8104009F095BD00BFA01500209D
:108D5000055A00080C06002070B506460D46002492
:108D6000284609F0C8FF844208D2295D3046FEF744
:108D700019FE012002F054FA0134F1E770BD000041
:108D8000F8B504460E46174600252046FEF710FEAD
:108D90000028FADD2046FEF70FFEBD42C1B206D123
:108DA0000023337020461149FFF7D6FF14E00D2948
:108DB000F6D00A29F4D0082901D07F2904D1002D4A
:108DC000E3D0013E013D02E006F8011B01352046DB
:108DD000EDB2FEF7E7FDD8E72046FEF7E9FD0028F3
:108DE00003DD2046FEF7E8FDF6E7F8BD047E010846
:108DF000F0B585B00446FEF7DBFD002840F39D800A
:108E00002046FEF7D9FDC0B2772867D104F11406D9
:108E100000212122304604F1350509F05BFE0021D6
:108E20004122284609F056FE04F17607002284F814
:108E3000762020467A704249FFF78EFF2046314661
:108E40002022FFF79DFF20463E49FFF785FF394668
:108E500001222046FFF794FF94F87630A3F1300109
:108E60000329F0D8312B0BD120463749FFF774FF87
:108E700020463649FFF770FF20463549FFF76CFF63
:108E800094F87600B0F1300708D020463149FFF75A
:108E900063FF204629464022FFF772FF20462E49F5
:108EA000FFF75AFF23693A4630462946984720463D
:108EB0002A49FFF751FF20462949FFF74DFF204679
:108EC0002849FFF749FF20462749FFF745FF20467D
:108ED0002649FFF741FF2046254929E069282CD182
:108EE000244A01AB10685168002503C391682046ED
:108EF00019602149FFF730FF01AEAE5D300900F186
:108F00003001392988BF00F1570106F00F062046CD
:108F1000FEF748FD06F13001392988BF06F15701F7
:108F200020460135FEF73EFD0C2DE5D113492046C4
:108F300005B0BDE8F040FFF70FBF05B0F0BD00BFC2
:108F4000587C01085F7C01088C7C0108C27C010808
:108F5000ED7C0108337D01083E7D0108817D01081B
:108F6000A17D0108D47D0108077E0108467E010825
:108F7000777E0108E8F7FF1F8D7E0108047E010857
:108F8000002100F004B80E4B5B58435004310D48EB
:108F90000D4B42189A42FFF4F6AF0C4A00F003B8AA
:108FA000002342F8043B0A4B9A42FFF4F9AF03F066
:108FB000BBF9FCF71DFEFDF79FF8FCF767FE704755
:108FC000E0810108000000207C0200207C020020DB
:108FD000C01F0020FFF7FEBF01700B0A0A0C090E2C
:108FE00043708270C170043070470170090A41708B
:108FF0000230704743185A78405C00EB022188B277
:10900000704710B543189A78DC78415C120402EB83
:1090100004625878521802EB002010BD73B54479F1
:109020000023022C01930FD0032C19D0012C2BD13B
:10903000164D28692E4620B1296901A888470246A5
:10904000B8B9B16801201BE0104DE8682E4620B188
:10905000E96801A88847024658B9B16802200FE0C4
:109060000A4D6A692E464AB16B6901A898470246C3
:1090700020B1A9682046BDF8043003E0B1680320A0
:109080000022134600F02CFC7CBD00BFF816002027
:10909000072830B512D8012910D8EFF3108472B622
:1090A000012505FA00F501FA00F0054B1A6822EADD
:1090B000050202431A60E30700D462B630BD00BF68
:1090C00048010020F0B5012187B00546FFF792FF67
:1090D00000F48043044698B250B3B4F5824F27D1D0
:1090E00028460521FFF786FF002607460735344648
:1090F000BE4208D028460221FFF77CFF0136241823
:109100000435B6B2F4E7744B188E21188AB21A8669
:10911000D86B2418DC63D96B9A6B914240F0CE80F7
:1091200093F84000002800F0C9809B69992033E043
:1091300024F4FF4121F07F0290B2002800F09B80D0
:1091400048F2100294422AD00CD8B4F5004F40F2F5
:10915000C08048F202039C4217D9991C8C4240F00F
:10916000B88012E048F2800084420ED005D848F260
:109170004002944240F0AD8051E0B4F5024F04D07B
:10918000B4F5084F40F0A5806CE053498869002889
:1091900000F094808B69204600210A4669E0002394
:1091A000EA1851790DF803100133042BF8D1687ACD
:1091B0002B7BAA7AE97A8DF804008DF807308DF8B8
:1091C00005208DF8061005F10D00002306AAD2181F
:1091D000C15C0133042B02F8101CF7D105F111001A
:1091E000002306AAD218C15C0133042B02F80C1C20
:1091F000F7D105F11500002300AAD218C15C013394
:10920000042B1174F8D1344928798A698DF8140037
:10921000002A53D08B6920466946152229E005357E
:1092200000212846FFF7EDFE042100902846FFF7B5
:10923000E8FE082101902846FFF7E3FE0C2102908A
:109240002846FFF7DEFE102103902846FFF7D9FEDF
:10925000214B04909969002930D09B6920466946CA
:10926000142206E01C48826942B38369691D2046C6
:109270000122984722E041F203039C4205D00C33BF
:109280009C4202D0591E8C421AD16C1D04212046EA
:10929000FFF7B7FE39301CD12D790F480021C56288
:1092A0002046FFF7AEFE042105462046FFF7A9FE43
:1092B000393003D128460121FFF7EAFE012009E0F9
:1092C000054A138899B28C4204D0B4F5805FF5D179
:1092D00000E0002007B0F0BDF816002038B5104BB4
:1092E0005D88ADB2CDB158680478211F4A4252EB77
:1092F00001042CB1FFF7E6FE003018BF012000E0AA
:109300002046054620B944B1054B93F8411021B9D8
:1093100003480022428001F0B5FD284638BD00BF59
:10932000F81600202DE9FF4704468946904602F0D2
:10933000C1FE00250190BA4B5A8890B2002840F037
:10934000928003F03DFC02F0B5FE02900299019874
:109350000A1A0392039B002B03DA01990298421820
:109360000392B04B19680029E5D003988842E2D3F4
:10937000AB4A41F20700138899B2814224D8421EB9
:1093800091425FD240F2022399425BD00DD80C2962
:1093900006D8082956D200294DD0062952D959E0BD
:1093A0000D294CD040F201220BE041F20200814233
:1093B0004BD8B1F5805F45D8B1F5017F3FD940F278
:1093C0000722914237D13AE041F21103994236D057
:1093D00014D841F20B00814234D005D841F2090281
:1093E00091422FD031D82AE041F20F0399422CD07C
:1093F00028D841F20D0081421DD126E042F206023A
:1094000091421CD007D8B1F5005F14D942F2040391
:10941000994214D921E0B1F5804F00F0F28105D8CE
:10942000A1F500500838012805D808E044F20B02E5
:10943000914200F0E6810B2003F070F8E1E1FF219A
:109440002170DEE14FF0FF3105E04FF0FF31216088
:109450006160D6E100212160D3E1204600213A225B
:1094600009F038FBCDE15E683178042940F07E8157
:1094700001213046FFF7BEFD05463046FFF722FECC
:109480000146002840F0688141F20700771D8542BF
:1094900050D8411E8D4280F0AF8040F202229542AA
:1094A00000F0AA8011D80C2D09D8082D80F0A480D6
:1094B000002D00F05181062D40F29E80EAE00D2D36
:1094C00000F0978040F201237EE041F202039D42CA
:1094D00018D8B5F5805F00F28F80B5F5017F40F2B6
:1094E000888040F207218D4240F03681307900219A
:1094F00004F8010B3846FFF784FD01462046FFF7CC
:109500006BFD29E141F20402954200F0998040F29E
:10951000B08038460021FFF774FD042120603846F2
:10952000FFF76FFD6060083406F10D07234606F172
:109530001D017EE041F2110295425AD02CD841F231
:109540000B039D4258D01CD841F209018D4253D0E3
:1095500000F29B8000213846FFF753FD0421206074
:109560003846FFF74EFD082160603846FFF749FD99
:109570000C21A0603846FFF744FD04F10C0AE060BE
:10958000E9E041F20F02954273D03BD841F20D035E
:109590009D4240F0E18053E042F20500854200F038
:1095A0009D8008D841F2120295423DD0B5F5005F8A
:1095B00040F2D2801DE042F209018D4208D84F1ED0
:1095C000BD4216D242F206039D4240F0C58010E033
:1095D00044F20B00854240F0BF807279DFF840A072
:1095E00038460121AAF83020FFF704FDAAF832001E
:1095F000B2E031792170AFE038460021FFF701FD7C
:109600002060A9E000213846FFF7FBFCA2464AF89B
:10961000040B04213846FFF7F4FC60609BE000BFB8
:10962000F8160020A81500203846FFF7E3FC20803C
:1096300092E057F8040B8F4243F8040BF9D18BE00A
:1096400000213846FFF7DDFC042120603846FFF793
:10965000D8FC082160603846FFF7D3FC04F1080A03
:10966000A060E46814F1390375D10121FFF710FD02
:1096700071E000213846FFF7C4FC04212060384621
:10968000FFF7BFFC6060083466E0307920713F6806
:10969000276061E038460021FFF7B3FC0421206019
:1096A0003846FFF7AEFC082160603846FFF7A2FCA1
:1096B0000A21A0603846FFF79DFCC4F80A000C346C
:1096C00006F11103274606F1350153F8040B8B42CE
:1096D00047F8040BF9D11A883A803DE077187B7976
:1096E000635401310429F9D106F109000027C15D55
:1096F000E2190137042F1171F9D106F10D00002391
:10970000C15CE2180133042B1172F9D106F1110783
:109710000022B85CA1180132042A0873F9D106F1BD
:1097200015070023F85CE1180133042B0874F9D104
:1097300006F119070021785C6218013106291075BD
:10974000F9D106F11F070023F85CE2180133202B42
:109750009076F9D100E054462C4F388882B2954279
:1097600036D100233B8087F8413031E0DF8EBBB239
:1097700073B33046032196F802A0FFF73BFC07467F
:10978000B9F1000F0CD00421701DFFF73AFC02461E
:10979000C8F8000006F115014846D2B209F077F981
:1097A000CAEB0707781EB0F5806F07D20AF10501F2
:1097B000204671183A4609F06AF901E04FF0FF3788
:1097C000B8F1000F01D088F80070104B0022DA8643
:1097D0000E4F0020788001F055FB3278042A05D125
:1097E000B5F5805F02D13046FFF718FC3B8899B28F
:1097F00000297FF4A0AD0548C28E93B2002B7FF400
:109800009AAD002004B0BDE8F08700BFF816002034
:1098100007284FF001030ED8EFF3108272B603FA57
:1098200000F006490B6818420CBF00200120D30746
:1098300002D462B670471846704700BF4801002046
:10984000034B1880084600210A46FFF76BBD00BF96
:10985000F816002010B5034B0124DC86BDE810404B
:10986000FFF760BDF816002038B503461546012203
:109870004A710C46881D1946FFF7B7FB291D057074
:10988000204601F06DFB002038BD38B5BDF81450FE
:109890000C469B18A071E81885B202216171E27133
:1098A000294604F10800FFF7A0FB6A1D204691B28B
:1098B00001F056FB002038BD38B59B180C469DB210
:1098C00002216171A071E271294604F10800FFF7DD
:1098D0008CFB6A1D204691B2BDE8384001F040BBC8
:1098E0002DE9F0471D4605F1020A032301F107099E
:1098F0001FFA8AFA88714B710C4648465146174642
:10990000FFF773FBB5F57A7F804613D82946FFF73A
:109910006CFB29464046FFF768FB394604F10B0013
:109920002A4609F0B4F8A91D204689B2BDE8F047DF
:1099300001F016BB4FF47A76B5FBF6F10AEB410263
:1099400091B2FFF752FB31464046FFF74EFB3946D6
:1099500004F10B00324609F09AF8A5F57A75204615
:1099600040F2EE31ADB2BF1901F0FAFAB5F57A7FE7
:1099700005D9A5F57A7085B24FF47A7601E02E46C6
:109980000025A046394628F8056F4846324609F0BA
:109990007EF8B31C404699B2BF1901F0E1FA002DE0
:1099A000E4D1BDE8F0870000F7B51A4C1E46A46864
:1099B000FF238DF807300025475D63190135042D1D
:1099C0005F72F9D100200D5C2318013004285D730B
:1099D000F9D10021505C6318013104295874F9D180
:1099E00004F115000021FFF7F7FA0022B35C83545D
:1099F0000132042AFAD12146142242F20100FFF773
:109A000033FF42F201000DF10701FFF719FF9DF945
:109A10000700FEBDF81600202DE9F34106460C466E
:109A20001E4831681546D0F808804A1E1F46FF239D
:109A3000082A8DF8073008F1090001D80A2333609D
:109A400021684A1E082A01D80A23236029684A1E71
:109A5000082A01D80A232B6039684A1E082A01D82F
:109A60000A233B603168FFF7B7FA2168FFF7B4FAC1
:109A70002968FFF7B1FA3968FFF7AEFA41461422B8
:109A800042F20900FFF7F0FE42F209000DF1070172
:109A9000FFF7D6FE9DF90700BDE8FC81F81600200F
:109AA00038B5074B42F20504054699682046002266
:109AB000FFF7DAFE20462946BDE83840FFF7C0BE72
:109AC000F81600202DE9F341864613480D468668B6
:109AD00071461F4602ACFF2306F1090004F8053D5C
:109AE0009046FFF779FA2946FFF776FA40F201250A
:109AF0004146FFF771FA0C2231462846FFF7B4FEC3
:109B000028462146FFF79CFE3846002101AAFFF7B0
:109B1000A1FE0198BDE8FC81F81600202DE9F34173
:109B2000864616480C4686687146984602AD4FF048
:109B3000FF3306F10A0045F8043D1746FFF74CFADB
:109B40000C21FFF749FA2146FFF746FA3946FFF79D
:109B500043FA4146224606F11A0008F098FF902089
:109B600031461022A3B2FFF7A7FE40F20220294699
:109B7000FFF766FE0198BDE8FC8100BFF8160020E3
:109B800037B50B4B40F2072504469968002228465A
:109B9000FFF76AFE28466946FFF752FE9DF803006C
:109BA0009DF80410207061709DF800003EBD00BF5C
:109BB000F816002037B50D4A034695680C4605F1A6
:109BC00009001946FFF708FA214640F20324FFF77F
:109BD00003FA294608222046FFF746FE20460DF1EB
:109BE0000701FFF72DFE9DF807003EBDF816002087
:109BF0002DE9F0430023CA5CC2540133102BFAD183
:109C00000022334B467B991891F8018004789F1904
:109C1000F97A88EA0405847B85EA01081D194178F0
:109C2000EF7A90F80CC04F40C17B80F810805D182F
:109C300095F80B908578634489EA050593F80B90B5
:109C4000C378477489EA030390F80490FFB288EA66
:109C5000090890F80590857487EA090790F806903E
:109C6000EDB285EA090590F80790C374DBB283EA88
:109C7000090390F8089080F814805FFA88F888EA61
:109C8000090890F809904775FFB287EA090790F82C
:109C90000A908575EDB285EA090590F80B90C375B9
:109CA000DBB283EA090388EA0C0C7E406C40594021
:109CB000013280F8188047768576C37680F81CC01C
:109CC00046778477C17710300A2A9AD1BDE8F083AD
:109CD0001A4F010810F0800F4FEA400018BF80F0C3
:109CE0001B00C0B2704700002DE9F04F037891F8D7
:109CF000A0A004468AEA030A80F800A091F8A120F7
:109D00004078A77882EA0005657091F8A260E07853
:109D100086EA0703A37091F8A32097B0059582EA1D
:109D20000005E57091F8A4902679069389EA060962
:109D300084F8049091F8A5706379079587EA030287
:109D4000627191F8A600A579E37980EA0506A6710B
:109D500091F8A7700C9287EA030B84F807B0227A77
:109D600091F8A880607A88EA020884F8088091F85F
:109D7000A97008964740677291F8AA50A67AE07ACF
:109D800085EA0603A37291F8AB20267B82EA0005E0
:109D9000E57291F8ACC009938CEA060C84F80CC00B
:109DA00091F8ADE0637BA27B8EEA030E84F80DE0B0
:109DB0000D9591F8AE50E07B5540A57391F8AF201A
:109DC0004B4B4240E2739A4491F890009AF80B6131
:109DD00099444640267091F8940099F80BA1984454
:109DE0008AEA0006267191F8980098F80B919C4435
:109DF00089EA000626729CF80BA191F89C009E440B
:109E00008AEA00062673DF199EF80B8197F80BC1CA
:109E100091F8910091F89D6088EA00098CEA0600AB
:109E200060730C9FDDF814A0DE1996F80B0191F811
:109E30009970DDF8208080EA0706667203EB0A005D
:109E400091F8956090F80B7184F8019087EA06000C
:109E5000607103EB0800DDF818E090F80B910998A9
:109E600003EB0E0703EB000E9EF80BC191F8920076
:109E700091F89A6097F80B718CEA000A77405D19A7
:109E800091F89E6084F802A091F8960095F80B81F5
:109E9000A772079F88EA000589EA0606A673A571DE
:109EA000DE1996F80B0191F89F5003EB0B0791F820
:109EB0009360454097F80B019A1880EA06070D98C1
:109EC000E7701E1896F80B7191F897004FF0090B88
:109ED00087EA0006E67191F89B3092F80B71E57302
:109EE00087EA0300E0720D46CDF840B002E000BF03
:109EF0001A4F010894F80090A77887EA0900FFF745
:109F0000E9FEFFF7E7FE94F80180E678824686EAEC
:109F10000800FFF7DFFEFFF7DDFE8AEA070380EAAD
:109F2000080227797040A6798AEA09015FFA80F869
:109F300086EA07005FFA82FB5FFA83FA5FFA81F92B
:109F400003970296FFF7C6FEFFF7C4FEE67967792E
:109F5000014686EA07000491FFF7BCFEFFF7BAFE50
:109F6000039B049A94F808C082EA0301CBB20299D9
:109F700047404A40A17A7040C6B2059381EA0C007E
:109F8000D3B20291CDF804C006930796FFF7A2FE64
:109F9000FFF7A0FE637AE67A024686EA030003939F
:109FA0000492FFF797FEFFF795FE049ADDF804C0D0
:109FB000039B82EA0C015FFA81FC80EA0301CBB2C9
:109FC000029909934A40D3B2CDF820C00A9394F87D
:109FD0000CC0A17B7040C6B281EA0C000291CDF8A2
:109FE00004C00B96FFF776FEFFF774FE637BE67BFB
:109FF000024686EA030003930492FFF76BFEFFF725
:10A0000069FEDDF804C0049A039B82EA0C015FFA42
:10A0100081FC80EA0301CBB2029970404A40C6B28B
:10A0200088EA0A018BEA09000D93D3B20E930291DC
:10A03000CDF830C00F9681EA0006FFF74BFE89EAA3
:10A04000000286EA020C5FFA8CFC8AEA0B0084F8B4
:10A0500000C0CDF804C0FFF73DFE8BEA000386EA9E
:10A06000030B02995FFA8BFC84F801C00846CDF817
:10A0700044C0FFF72FFE8AEA000286EA020A5FFA6E
:10A080008AFB88EA090084F802B0CDF848B0FFF7EF
:10A0900021FE88EA0000DDF818900599079A4640ED
:10A0A000FFB2F6B282EA090887EA0100E670139669
:10A0B00088EA0006FFF70EFE059B584086EA00017D
:10A0C000CAB24846227178401492FFF703FE474017
:10A0D00086EA0703D8B2159060714046FFF7FAFD93
:10A0E00089EA0001059B86EA01020798D7B2584029
:10A0F000A7710697FFF7EEFD0799089A484046407A
:10A10000F6B20A9F0596E67109980B9E50407E4074
:10A1100086EA0007FFF7DEFDDDF820A08AEA0003EB
:10A1200087EA030C5FFA8CF884F8088009990A988A
:10A130004840FFF7CFFD099A504087EA000B5FFACD
:10A140008BF9304684F80990FFF7C4FD0A9E524609
:10A1500086EA000387EA03010B985FFA81FB50400F
:10A1600084F80AB0FFF7B6FDDDF82CA00E998AEA54
:10A1700000000C9E47400F9B0D98FFB24B40704073
:10A18000E77283EA000A0293FFF7A4FD0C9A0D9B85
:10A1900050408AEA00060E98F6B226735840FFF740
:10A1A00099FD0D99029B81EA00028AEA0200C1B280
:10A1B000617318460391FFF78DFD0E9A0C9B50407A
:10A1C0008AEA00010F98CAB2A27358400492FFF7BE
:10A1D00081FD0F99514B48408AEA000C5FFA8CFAD6
:10A1E000DDF804C084F80FA003EB0C0295F88000A2
:10A1F00092F80B11DDF850C081EA0002227003EBE7
:10A200000C0195F8840091F80B219E1982EA000157
:10A2100003EB0802217195F8880092F80BC196F8BB
:10A220000B218CEA0001217295F88C00039E82EAD2
:10A23000000121739A1995F8811092F80B0103EB34
:10A24000090680EA010295F88D0096F80B11DDF8F9
:10A2500044C081EA000615996673581890F80B619E
:10A2600095F88910DF1986EA0100607203EB0C068D
:10A2700095F8850096F80B116270129A81EA000633
:10A2800066719918DDF818C095F88A6091F80B018D
:10A2900003EB0C0295F88E10704092F80B6103EB03
:10A2A0000B02714092F80BC195F882608CEA0602AD
:10A2B000049EA2709A1992F80B6195F88620564078
:10A2C000A671A0721398A173191895F88F2091F8B0
:10A2D0000B61DDF814C0724003EB0C0695F8831097
:10A2E00096F80B0153444840E07095F8871097F8B2
:10A2F0000B014840E07195F88B0093F80B11E27365
:10A30000109A81EA0003511E103D11F0FF00E37224
:10A3100010907FF4EFAD17B0BDE8F08F1A4F010831
:10A3200038B5054C05462046FFF762FC2846214615
:10A33000BDE83840FFF7D8BC0416002008B510214E
:10A34000034600220C20FFF7BDFB102814BF4FF07E
:10A35000FF30002008BD034610210C200022FFF72B
:10A36000DDBB000030B585B0054601F0A3FE0190CD
:10A37000194CE36A4BB108F0C9FAE26A02600020A6
:10A38000E06208F0C3FA018823E02846FFF740FAAC
:10A3900010B14FF6FF711CE001F08CFE0290029AA2
:10A3A0000198111A0391039B002B03DA0198029A7A
:10A3B00011180391094B03981A689042E9D2064993
:10A3C000088E83B2002BD3D00A8E501E83B20B8628
:10A3D000002108B205B030BDF8160020A8150020F5
:10A3E000F7B5034614480D4686681946174602AC71
:10A3F0004FF0FF3206F1090044F8042DFEF7ECFDA2
:10A400002946FEF7E9FD41F201053946FEF7E4FD74
:10A410000C2231462846FFF727FA21462846FFF747
:10A420000FFA08F073FA0199016008460021FEF75F
:10A430002FFEBDF90400FEBDF8160020F7B5054655
:10A4400010484FF0FF33876802AC294641F20B06F3
:10A4500007F1090044F8043DFEF7BEFD0422394629
:10A460003046FFF701FA21463046FFF7E9F908F0D8
:10A470004DFA0199016028460121FEF709FE019875
:10A48000FEBD00BFF8160020F7B50C46074616467D
:10A4900008F03CFA4FF0FF33E62C036023D8144851
:10A4A0000821856805F10900FEF796FD2146FEF7B3
:10A4B00093FD0021A14203DA7A5C42540131F9E7AD
:10A4C00004F10802D2B2294641F21000FFF7CCF99C
:10A4D000694641F21000FFF7B3F908F017FA009946
:10A4E000019B0160336008F011FA008800B2FEBDE4
:10A4F000F816002037B5034613484FF0FF32846842
:10A500000D4604F1090019460192FEF765FD082188
:10A51000FEF762FD0821FEF75FFD0023E95CC154F0
:10A520000133082BFAD11422214641F20700FFF72C
:10A530009BF901A941F20700FFF782F908F0E6F95B
:10A54000019A026010463EBDF81600202DE9FF4139
:10A550001D46314B8646D3F808800F4608F10900A6
:10A56000714616460A9CFEF737FD1421FEF734FDAE
:10A570001421FEF731FD1421FEF72EFD1421FEF704
:10A580002BFDD4F1010138BF0021FEF725FD0FB1ED
:10A59000396800E03946FEF71FFD0EB1316800E072
:10A5A0003146FEF719FD0DB1296800E02946FEF796
:10A5B00013FD74B1216839B9636841F2873293425F
:10A5C000DCBF41F288336360FEF706FD6168FEF789
:10A5D00003FD2C22414641F20800FFF745F9694688
:10A5E00041F20800FFF72CF9009900290ADB0FB1AE
:10A5F000019A3A600EB1029B33600DB10398286056
:10A6000088B205E008F082F9009B03604FF6FF7006
:10A6100000B204B0BDE8F081F81600202DE9FF413A
:10A620009846194B86469E6815460F4606F1090066
:10A6300071460B9CFEF7D0FC2946FEF7CDFC414647
:10A64000FEF7CAFCBDF830500C2231462846FFF711
:10A650000BF9284601A9FFF7F3F8029800280ADD54
:10A660000A9938466A46FFF7F5F8009904B1216067
:10A670000029D8BF029108F049F9029A026010B28D
:10A6800004B0BDE8F08100BFF81600201FB500241B
:10A690000094019441F204040294FFF7BFFF04B058
:10A6A00010BD00002DE9F04F844689B000B2CDF80E
:10A6B00008C0039115469B46139E149CFFF752FE5B
:10A6C000DDF808C0002858D12E4B9A6B511C9963B5
:10A6D000D3F80890812C09F10A0307D0832C0AD102
:10A6E00005F1080A09F12208182704E009F11A08FF
:10A6F00010270646129061461846FEF76DFC391F7A
:10A70000FEF76AFC2946FEF767FC5946FEF764FC33
:10A71000832C05D15146FEF75FFC0821FEF75CFC57
:10A720000021A94205DA0398425C08F801200131B2
:10A73000F7E7002DA8BFA844832C0ED0129AB6B21A
:10A7400000920196E0B249463A46ABB2FFF79DF857
:10A75000832C0BD141F20F000AE00020B042EDDA69
:10A7600012990B5C08F800300130F7E741F2030062
:10A7700005A9FFF765F8BDF8180000B209B0BDE8FB
:10A78000F08F00BFF81600201FB50024009401943C
:10A7900081240294FFF786FF04B010BD1FB5069C0C
:10A7A0000094079C019483240294FFF77BFF04B07C
:10A7B00010BD0000202A73B503460E46144625D866
:10A7C000144A1946956805F10900FEF705FC0821B1
:10A7D000FEF702FC2146FEF7FFFB0022A24203DA4D
:10A7E000B15C81540132F9E704F10C03DAB2294675
:10A7F00041F21100FFF738F841F211000DF10701A5
:10A80000FFF71EF89DF9070083B201E04FF6FF73D2
:10A8100018B27CBDF8160020024B01225A80586005
:10A82000FEF75CBDF816002010B50A4CE16022610D
:10A830006361029B0399E361049A059B2162626252
:10A840000021A362A061012084F8400084F8411037
:10A8500010BD00BFF816002070B5174B174D00242F
:10A8600006461748AC63EC632C802C866C86AC865D
:10A87000EC86EC626C806C60AB6000F0CBFAA9688F
:10A88000A64214BF0226264601224E724FF4804093
:10A89000FEF7EAFF21464FF48040FEF7D1FFA9689A
:10A8A000224644F20B00FEF7DFFF44F20B00214684
:10A8B000BDE87040FEF7C4BF64170020F816002002
:10A8C00019A8000838B5094C0020A36A9847254606
:10A8D000E869064C80470028FAD0A16809B1002237
:10A8E000A260BDE8384000F0BDBA00BFF8160020F5
:10A8F0002DE9F04F83462F4885B0D0F808901446D4
:10A9000000259A4688464FF0FF331C2109F10900C3
:10A9100001930F9E0E9F0295ADF80C50FEF75CFB65
:10A920002146FEF759FB5946FEF756FB04F110018C
:10A93000FEF752FB3146FEF74FFB2946FEF755FB6B
:10A94000BAF1000F08D01AF8052042550135062D3E
:10A95000F9D10630002207E0534602AA995CC1549F
:10A960000133062BF9D1F4E7A24204DA18F80210F9
:10A9700081540132F8E7002CA8BF00193EB1002332
:10A980002FB1B34203DAFA5CC2540133F9E71C3445
:10A99000A319DAB249460120FEF766FF01A901209A
:10A9A000FEF74EFF07F0B2FF01990160084605B0BF
:10A9B000BDE8F08FF8160020F7B503460F480E46A5
:10A9C00085681946174602AC4FF0FF3205F10900C1
:10A9D00044F8042DFEF700FB3146FEF7FDFA394638
:10A9E000FEF7FAFA29460C220420FEF73DFF042068
:10A9F0002146FEF725FF0198FEBD00BFF816002096
:10AA00002DE9F04F8346714885B0D0F808900D4687
:10AA100014465946002209F109009A460E9F0F9EDE
:10AA20000292ADF80C20FEF7D7FABBF1030F00F24B
:10AA3000BE80DFE80BF0022F76761421FEF7CCFA09
:10AA40002146FEF7C9FA0021FEF7CFFABAF1000F4E
:10AA500007D000221AF8021081540132062AF9D1D7
:10AA600006E0534602A95A5CC2540133062BF9D1C1
:10AA700006303946FEF7B0FA4FF00008A04506D080
:10AA800015F8083000F8083008F10108F6E708F179
:10AA900018008AE02021FEF79FFA2146FEF79CFA73
:10AAA0000021FEF7A2FABAF1000F07D000221AF82F
:10AAB000021081540132062AF9D106E0534602AA57
:10AAC000995CC1540133062BF9D139460630FEF7A3
:10AAD00083FA04F10C01FEF77FFA3146FEF77CFAA7
