:020000040800F2
:1050000000500020EDA40008759500087795000871
:10501000819500088B950008959500080000000018
:105020000000000000000000000000009F95000844
:10503000A195000800000000A3950008A5950008B0
:1050400041A5000841A5000841A5000809980008ED
:1050500041A5000841A500081596000835960008EE
:105060005596000889960008A996000841A50008F1
:1050700041A5000841A5000841A500087198000855
:1050800041A5000841A50008B595000841A5000804
:105090007598000841A5000841A50008C9960008B8
:1050A00041A5000841A5000841A500089197000806
:1050B000D9970008E9970008F9970008E5950008D6
:1050C000F595000841A5000841A5000805960008CF
:1050D00041A50008C5950008D595000841A5000820
:1050E000199700083198000841A500080000000049
:1050F00000000000000000000000000000000000B0
:0C51000000000000000000005FF808F153
:1051100081F0004102E000BF83F0004330B54FEA68
:1051200041044FEA430594EA050F08BF90EA020FD5
:105130001FBF54EA000C55EA020C7FEA645C7FEA68
:10514000655C00F0E2804FEA5454D4EB5555B8BF8B
:105150006D420CDD2C4480EA020281EA030382EAFC
:10516000000083EA010180EA020281EA0303362D8E
:1051700088BF30BD11F0004F4FEA01314FF4801C61
:105180004CEA113102D0404261EB410113F0004F73
:105190004FEA03334CEA133302D0524263EB43032A
:1051A00094EA050F00F0A780A4F10104D5F1200EC8
:1051B0000DDB02FA0EFC22FA05F2801841F1000123
:1051C00003FA0EF2801843FA05F359410EE0A5F1F7
:1051D00020050EF1200E012A03FA0EFC28BF4CF028
:1051E000020C43FA05F3C01851EBE37101F00045DE
:1051F00007D54FF0000EDCF1000C7EEB00006EEBEB
:105200000101B1F5801F1BD3B1F5001F0CD3490874
:105210005FEA30004FEA3C0C04F101044FEA4452CB
:1052200012F5800F80F09A80BCF1004F08BF5FEA52
:10523000500C50F1000041EB045141EA050130BD32
:105240005FEA4C0C404141EB010111F4801FA4F1D5
:105250000104E9D191F0000F04BF01460020B1FA2A
:1052600081F308BF2033A3F10B03B3F120020CDA62
:105270000C3208DD02F1140CC2F10C0201FA0CF040
:1052800021FA02F10CE002F11402D8BFC2F1200CA5
:1052900001FA02F120FA0CFCDCBF41EA0C0190405B
:1052A000E41AA2BF01EB0451294330BD6FEA0404A4
:1052B0001F3C1CDA0C340EDC04F11404C4F120028F
:1052C00020FA04F001FA02F340EA030021FA04F3A1
:1052D00045EA030130BDC4F10C04C4F1200220FAF8
:1052E00002F001FA04F340EA0300294630BD21FA36
:1052F00004F0294630BD94F0000F83F4801306BFFC
:1053000081F480110134013D4EE77FEA645C18BFEF
:105310007FEA655C29D094EA050F08BF90EA020F86
:1053200005D054EA000C04BF1946104630BD91EA7E
:10533000030F1EBF0021002030BD5FEA545C05D181
:105340004000494128BF41F0004130BD14F58004C0
:105350003CBF01F5801130BD01F0004545F0FE4134
:1053600041F470014FF0000030BD7FEA645C1ABF69
:10537000194610467FEA655C1CBF0B46024650EAA0
:10538000013406BF52EA033591EA030F41F40021CC
:1053900030BD00BF90F0000F04BF0021704730B552
:1053A0004FF4806404F132044FF000054FF0000127
:1053B00050E700BF90F0000F04BF0021704730B5E8
:1053C0004FF4806404F1320410F0004548BF4042BD
:1053D0004FF000013EE700BF42004FEAE2014FEA12
:1053E00031014FEA02701FBF12F07F4393F07F4FED
:1053F00081F06051704792F0000F14BF93F07F4F1F
:10540000704730B54FF4607401F0004521F0004161
:1054100020E700BF50EA010208BF704730B54FF0E7
:1054200000050AE050EA010208BF704730B511F0EC
:10543000004502D5404261EB41014FF4806404F124
:1054400032045FEA915C3FF4DCAE4FF003025FEAA6
:10545000DC0C18BF03325FEADC0C18BF033202EB2E
:10546000DC02C2F1200300FA03FC20FA02F001FA88
:1054700003FE40EA0E0021FA02F11444C1E600BF27
:1054800070B54FF0FF0C4CF4E06C1CEA11541DBFDA
:105490001CEA135594EA0C0F95EA0C0F00F0DEF8A5
:1054A0002C4481EA030621EA4C5123EA4C5350EA8A
:1054B000013518BF52EA033541F4801143F48013DB
:1054C00038D0A0FB02CE4FF00005E1FB02E506F06C
:1054D0000042E0FB03E54FF00006E1FB03569CF0C1
:1054E000000F18BF4EF0010EA4F1FF04B6F5007FC7
:1054F00064F5407404D25FEA4E0E6D4146EB060639
:1055000042EAC62141EA55514FEAC52040EA5E50C1
:105510004FEACE2EB4F1FD0C88BFBCF5E06F1ED86B
:10552000BEF1004F08BF5FEA500E50F1000041EBA2
:10553000045170BD06F0004646EA010140EA02004F
:1055400081EA0301B4EB5C04C2BFD4EB0C0541EA71
:10555000045170BD41F480114FF0000E013C00F386
:10556000AB8014F1360FDEBF002001F0004170BDAA
:10557000C4F10004203C35DA0C341BDC04F11404C3
:10558000C4F1200500FA05F320FA04F001FA05F24F
:1055900040EA020001F0004221F0004110EBD3701C
:1055A00021FA04F642EB06015EEA430E08BF20EA48
:1055B000D37070BDC4F10C04C4F1200500FA04F3EB
:1055C00020FA05F001FA04F240EA020001F000417D
:1055D00010EBD37041F100015EEA430E08BF20EAF0
:1055E000D37070BDC4F1200500FA05F24EEA020E38
:1055F00020FA04F301FA05F243EA020321FA04F067
:1056000001F0004121FA04F220EA020000EBD3701D
:105610005EEA430E08BF20EAD37070BD94F0000F1D
:105620000FD101F00046400041EB010111F4801F51
:1056300008BF013CF7D041EA060195F0000F18BF02
:10564000704703F00046520043EB030313F4801F3E
:1056500008BF013DF7D043EA0603704794EA0C0FF8
:105660000CEA135518BF95EA0C0F0CD050EA41060E
:1056700018BF52EA4306D1D181EA030101F000418B
:105680004FF0000070BD50EA410606BF10461946B3
:1056900052EA430619D094EA0C0F02D150EA0136BF
:1056A00013D195EA0C0F05D152EA03361CBF104600
:1056B00019460AD181EA030101F0004141F0FE419F
:1056C00041F470014FF0000070BD41F0FE4141F423
:1056D000780170BD70B54FF0FF0C4CF4E06C1CEA23
:1056E00011541DBF1CEA135594EA0C0F95EA0C0FD8
:1056F00000F0A7F8A4EB050481EA030E52EA033593
:105700004FEA013100F088804FEA03334FF08055B3
:1057100045EA131343EA12634FEA022245EA1115E0
:1057200045EA10654FEA00260EF000419D4208BF91
:10573000964244F1FD0404F5407402D25B084FEA3E
:105740003202B61A65EB03055B084FEA32024FF4EA
:1057500080104FF4002CB6EB020E75EB030E22BF47
:10576000B61A754640EA0C005B084FEA3202B6EB07
:10577000020E75EB030E22BFB61A754640EA5C00B6
:105780005B084FEA3202B6EB020E75EB030E22BF46
:10579000B61A754640EA9C005B084FEA3202B6EB47
:1057A000020E75EB030E22BFB61A754640EADC0006
:1057B00055EA060E18D04FEA051545EA16754FEA68
:1057C00006164FEAC30343EA52734FEAC2025FEA86
:1057D0001C1CC0D111F4801F0BD141EA00014FF015
:1057E00000004FF0004CB6E711F4801F04BF0143E6
:1057F0000020B4F1FD0C88BFBCF5E06F3FF6AFAE02
:10580000B5EB030C04BFB6EB020C5FEA500C50F191
:10581000000041EB045170BD0EF0004E4EEA113114
:1058200014EB5C04C2BFD4EB0C0541EA045170BD1B
:1058300041F480114FF0000E013C90E645EA060E5F
:105840008DE60CEA135594EA0C0F08BF95EA0C0F8D
:105850003FF43BAF94EA0C0F0AD150EA01347FF4D5
:1058600034AF95EA0C0F7FF425AF104619462CE7AC
:1058700095EA0C0F06D152EA03353FF4FDAE10460F
:10588000194622E750EA410618BF52EA43067FF460
:10589000C5AE50EA41047FF40DAF52EA43057FF4F0
:1058A000EBAE12E74FF0FF3C06E000BF4FF0010CFB
:1058B00002E000BF4FF0010C4DF804CD4FEA410C5F
:1058C0007FEA6C5C4FEA430C18BF7FEA6C5C1BD02C
:1058D00001B050EA410C0CBF52EA430C91EA030FAD
:1058E00002BF90EA020F0020704710F1000F91EA0A
:1058F000030F58BF994208BF90422CBFD8176FEAD8
:10590000E37040F0010070474FEA410C7FEA6C5CA5
:1059100002D150EA013C07D14FEA430C7FEA6C5CAC
:10592000D6D152EA033CD3D05DF8040B704700BFD8
:105930008446104662468C461946634600E000BF26
:1059400001B5FFF7B7FF002848BF10F1000F01BDF8
:105950004DF808EDFFF7F4FF0CBF012000205DF8C3
:1059600008FB00BF4DF808EDFFF7EAFF34BF012048
:1059700000205DF808FB00BF4DF808EDFFF7E0FFE1
:1059800094BF012000205DF808FB00BF4DF808ED32
:10599000FFF7CEFF94BF012000205DF808FB00BF99
:1059A0004DF808EDFFF7C4FF34BF012000205DF87B
:1059B00008FB00BF4FEA410212F5001215D211D5C3
:1059C0006FF47873B3EB625212D94FEAC12343F0FC
:1059D000004343EA505311F0004F23FA02F018BF7E
:1059E000404270474FF00000704750EA013005D147
:1059F00011F0004008BF6FF0004070474FF000000A
:105A0000704700BF4A0011D212F5001211D20DD515
:105A10006FF47873B3EB62520ED44FEAC12343F0B4
:105A2000004343EA505323FA02F070474FF000005E
:105A3000704750EA013002D14FF0FF3070474FF00D
:105A4000000070474FEA4102B2F1E04324BFB3F5D2
:105A5000001CDCF1FE5C0DD901F0004C4FEAC002E5
:105A60004CEA5070B2F1004F40EB830008BF20F0C9
:105A70000100704711F0804F21D113F13872BCBF83
:105A800001F00040704741F480114FEA5252C2F1D8
:105A90001802C2F1200C10FA0CF320FA02F018BF21
:105AA00040F001004FEAC1234FEAD32303FA0CFC74
:105AB00040EA0C0023FA02F34FEA4303CCE77FEA03
:105AC000625307D150EA01331EBF4FF0FE4040F44D
:105AD0004000704701F0004040F0FE4040F40000FC
:105AE000704700BF80F0004002E000BF81F000413D
:105AF00042001FBF5FEA410392EA030F7FEA226C74
:105B00007FEA236C6AD04FEA1262D2EB1363C1BF03
:105B1000D218414048404140B8BF5B42192B88BF72
:105B2000704710F0004F40F4000020F07F4018BF95
:105B3000404211F0004F41F4000121F07F4118BFB5
:105B4000494292EA030F3FD0A2F1010241FA03FC5D
:105B500010EB0C00C3F1200301FA03F100F0004345
:105B600002D5494260EB4000B0F5000F13D3B0F10D
:105B7000807F06D340084FEA310102F10102FE2A7C
:105B800051D2B1F1004F40EBC25008BF20F00100EC
:105B900040EA03007047490040EB000010F4000F9A
:105BA000A2F10102EDD1B0FA80FCACF1080CB2EB2D
:105BB0000C0200FA0CF0AABF00EBC250524218438C
:105BC000BCBFD0401843704792F0000F81F4000131
:105BD00006BF80F400000132013BB5E74FEA410304
:105BE0007FEA226C18BF7FEA236C21D092EA030F70
:105BF00004D092F0000F08BF0846704790EA010FEA
:105C00001CBF0020704712F07F4F04D1400028BF16
:105C100040F00040704712F100723CBF00F50000F8
:105C2000704700F0004343F0FE4040F4000070472E
:105C30007FEA226216BF08467FEA236301464202DA
:105C400006BF5FEA412390EA010F40F480007047ED
:105C50004FF0000304E000BF10F0004348BF404293
:105C60005FEA000C08BF704743F0964301464FF0CF
:105C700000001CE050EA010208BF70474FF000032B
:105C80000AE000BF50EA010208BF704711F000436C
:105C900002D5404261EB41015FEA010C02BF84463C
:105CA0000146002043F0B64308BFA3F18053A3F59B
:105CB0000003BCFA8CF2083AA3EBC25310DB01FAE2
:105CC00002FC634400FA02FCC2F12002BCF1004F66
:105CD00020FA02F243EB020008BF20F001007047F7
:105CE00002F1200201FA02FCC2F1200250EA4C004B
:105CF00021FA02F243EB020008BF20EADC70704791
:105D00004FF0FF0C1CEAD0521EBF1CEAD15392EA9E
:105D10000C0F93EA0C0F6FD01A4480EA010C40027A
:105D200018BF5FEA41211ED04FF0006343EA5010D4
:105D300043EA5111A0FB01310CF00040B1F5000F16
:105D40003EBF490041EAD3715B0040EA010062F1C5
:105D50007F02FD2A1DD8B3F1004F40EBC25008BFAF
:105D600020F00100704790F0000F0CF0004C08BFCD
:105D700049024CEA502040EA51207F3AC2BFD2F19A
:105D8000FF0340EAC250704740F400004FF00003A8
:105D9000013A5DDC12F1190FDCBF00F000407047E2
:105DA000C2F10002410021FA02F1C2F1200200FA20
:105DB00002FC5FEA310040F1000053EA4C0308BFE7
:105DC00020EADC70704792F0000F00F0004C02BF38
:105DD000400010F4000F013AF9D040EA0C0093F0B3
:105DE000000F01F0004C02BF490011F4000F013B0D
:105DF000F9D041EA0C018FE70CEAD15392EA0C0F7B
:105E000018BF93EA0C0F0AD030F0004C18BF31F0E5
:105E1000004CD8D180EA010000F00040704790F0BB
:105E2000000F17BF90F0004F084691F0000F91F05F
:105E3000004F14D092EA0C0F01D142020FD193EA25
:105E40000C0F03D14B0218BF084608D180EA0100AD
:105E500000F0004040F0FE4040F40000704740F089
:105E6000FE4040F4400070474FF0FF0C1CEAD05257
:105E70001EBF1CEAD15392EA0C0F93EA0C0F69D0B3
:105E8000A2EB030280EA010C49024FEA402037D01E
:105E90004FF0805343EA111143EA10130CF0004015
:105EA0008B4238BF5B0042F17D024FF4000C8B4205
:105EB00024BF5B1A40EA0C00B3EB510F24BFA3EBE5
:105EC000510340EA5C00B3EB910F24BFA3EB9103B5
:105ED00040EA9C00B3EBD10F24BFA3EBD10340EA0F
:105EE000DC001B0118BF5FEA1C1CE0D1FD2A3FF655
:105EF00050AF8B4240EBC25008BF20F0010070470A
:105F00000CF0004C4CEA50207F32C2BFD2F1FF03AC
:105F100040EAC250704740F400004FF00003013ADD
:105F200037E792F0000F00F0004C02BF400010F481
:105F3000000F013AF9D040EA0C0093F0000F01F095
:105F4000004C02BF490011F4000F013BF9D041EAB7
:105F50000C0195E70CEAD15392EA0C0F08D14202EA
:105F60007FF47DAF93EA0C0F7FF470AF084676E7BD
:105F700093EA0C0F04D14B023FF44CAF08466EE796
:105F800030F0004C18BF31F0004CCAD130F0004264
:105F90007FF45CAF31F000437FF43CAF5FE700BFBC
:105FA0004FF0FF3C06E000BF4FF0010C02E000BFE5
:105FB0004FF0010C4DF804CD4FEA40024FEA410387
:105FC0007FEA226C18BF7FEA236C11D001B052EA3D
:105FD000530C18BF90EA010F58BFB2EB030088BF03
:105FE000C81738BF6FEAE17018BF40F00100704772
:105FF0007FEA226C02D15FEA402C05D17FEA236C54
:10600000E4D15FEA412CE1D05DF8040B704700BF9A
:10601000844608466146FFE70FB5FFF7C9FF002831
:1060200048BF10F1000F0FBD4DF808EDFFF7F4FF6A
:106030000CBF012000205DF808FB00BF4DF808ED03
:10604000FFF7EAFF34BF012000205DF808FB00BF26
:106050004DF808EDFFF7E0FF94BF012000205DF848
:1060600008FB00BF4DF808EDFFF7D2FF94BF0120F9
:1060700000205DF808FB00BF4DF808EDFFF7C8FFF2
:1060800034BF012000205DF808FB00BF4FEA40024A
:10609000B2F1FE4F0FD34FF09E03B3EB12620DD956
:1060A0004FEA002343F0004310F0004F23FA02F0C0
:1060B00018BF404270474FF00000704712F1610F67
:1060C00001D1420205D110F0004008BF6FF000403E
:1060D00070474FF000007047014B0360704700BFEE
:1060E00048690108014B0360704700BF60690108FF
:1060F00070B538498EB00446374801F0C8FE2146D5
:10610000354801F0D9FE20462C2102F086F90546DB
:106110002B46214602A8002202F082F96A1C214681
:1061200006A802F0A3F906A802F0A7F9FFF742F9C2
:1061300004460D462848294901F0A9FE02A926482F
:1061400001F0BAFE2649244801F0A1FE06A9224822
:1061500001F0B2FE2349204801F099FE02232246B5
:1061600000931D482B4601F0CBFF1F490AA802F0FF
:1061700093F802A80AA902F00BF906460AA802F051
:1061800049F836B929462046FFF714FC174908603C
:1061900012E017490AA802F07FF802A80AA902F043
:1061A000F7F806460AA802F035F83EB92046294617
:1061B000FFF700FC0D4B5860012401E04FF0FF3465
:1061C00006A802F027F802A802F024F820460EB034
:1061D00070BD00BF7C93010804180020879301085C
:1061E00090930108979301089F930108C804002029
:1061F000AB93010830B5204999B004461F4801F01F
:1062000046FE21461D4801F057FE0123214600228B
:1062100001A802F005F901A802F02FF92146022297
:10622000054605A802F022F905A802F026F9044661
:1062300013492A46234609A80EF04CFA0F4809A92B
:1062400001F044FE022C06D0032C07D0012C09D10A
:106250000A480C4904E009480B4901E007480B498A
:1062600001F034FE05A801F0D5FF01A801F0D2FF2E
:10627000012019B030BD00BF7C9301080418002034
:10628000B7930108D2930108D5930108D993010867
:1062900010B501F08FFA0B4C0A22A060E1680A48A1
:1062A00001F04BFEA368E268934209D907480168F0
:1062B000208A5B18E36001F039FA012260612276DE
:1062C00010BD00BFC80400200418002000000020FA
:1062D000014803F0F1BE00BFE4040020034B10B5F9
:1062E0000446036000F026FD204610BD4869010801
:1062F000034B10B50446036000F01CFD204610BDA2
:106300006069010838B5244C4FF4E131204602F0B1
:10631000DDFC40F6B830214D01F05EFA2049204600
:1063200001F0D4FD4FF0804002F0B6FA288A022135
:1063300001F024F90022288A1A4901F06BFC20465A
:10634000194901F0C3FD2046184901F0A0FD20467F
:10635000174901F0BBFD2046164901F0B7FD05F1D4
:1063600048010922144800F0D3FD05F1500109222B
:10637000124800F0CDFD05F114010222104800F092
:10638000C7FD1048104900F001FE10481049BDE853
:10639000384000F0FBBD00BF04180020C8040020F6
:1063A000DF93010891620008E4930108FC9301085F
:1063B000579701080A9401081A9401082E940108BD
:1063C000419401084B940108F561000851940108BB
:1063D000F160000870B5624988B0624801F057FD6D
:1063E0006149604801F053FD604803F029FE5D48B3
:1063F0005F4901F06BFD5D4803F0FAFE0028FAD119
:106400005A4803F0FFFE073007281DD8DFE800F0E8
:10641000191613100D0A07045248564916E0514840
:10642000554913E04F48554910E04E4854490DE096
:106430004C4854490AE04B48534907E049485349FE
:1064400004E04848524901E046485249524C01F0A4
:106450003DFD04F11C0003F0E7FEFEF7BDFF022541
:10646000C4E914014D493F4801F011FDD4E914235A
:1064700000953C4801F044FE49493A4801F007FDC7
:106480000A226168374801F08CFD04F11C0003F01A
:10649000BBFEFEF7A1FFC4E912014249314801F0F9
:1064A000F6FCD4E9122300952E4801F029FE3E495E
:1064B0002C4801F0ECFC0A2221682A4801F071FD09
:1064C000208A01F033F939496061264801F0DFFC88
:1064D00061690A22234801F064FDD4E91401D4E97A
:1064E0001223CDE90001616904F15800029130499D
:1064F0000EF0F0F804F158012E4800F095FD01F07F
:1065000059F94FF47A73B0FBF3F02B4B4FF46162FF
:10651000B0FBF3F603FB16063C23B0FBF2F5B0FB31
:10652000F3F102FB150503FB1100B6FBF2F2B5FB1C
:10653000F3F30090214904F1A3000EF0CBF804F12D
:10654000A301084801F0C2FC04A802F0F5F904A96F
:10655000044801F0B1FC04A801F05CFE08B070BD75
:106560005E9401080418002084940108E4040020CB
:10657000929401081D980108A2940108B994010899
:10658000D4940108F494010810950108229501089B
:106590003E95010852950108C80400206095010845
:1065A0006F950108889501089B950108B895010829
:1065B000C595010803960108805101000E96010857
:1065C00030B53B4D8DB0D5F8EC4001F0F3F8844286
:1065D00002D90023C5F8EC3001F0ECF8354AD5F8C3
:1065E000EC105368401A9842314C3BD9FFF7F2FE49
:1065F00041F2883001F0F0F801F0DCF8062504F1F2
:10660000F001C4F8EC0008A801F068FED4E91223F8
:1066100004A8009501F07EFE04A908A801F0ABFED5
:1066200004F51272014604F5167304F5807003F048
:106630007FFC054604A801F0EDFD08A801F0EAFD85
:106640001D4845B11D4901F041FC04F516711A4879
:1066500001F032FC06E01A4901F038FC4FF4FA7000
:1066600001F0BAF8124C217EF9B1002015492076CC
:10667000114801F00CFC01F09DF8A268811A0A2271
:106680000D4801F05AFCD4E91401D4E91223CDE9F4
:106690000001616904F1580002910B490EF01AF8EB
:1066A0000A4804F1580100F0BFFC0DB030BD00BF36
:1066B000C804002000000020041800201D980108D4
:1066C0004396010849960108C595010803960108FB
:1066D0002DE9F041314C86B0314D002104F51A7698
:1066E0000B4600910A46304601F04CFB04F51C773E
:1066F0002A4630462B492C4E0DF078FB38462B4964
:1067000001F0CAFD04F512782A46314638460DF0EC
:106710006DFB4046264901F0BFFD2A463146404602
:1067200004F1F0080DF062FB4046224901F0B4FD8F
:106730002A463146404604F516780DF057FB404690
:106740001D4901F0A9FD31462A4640460DF04EFB99
:1067500001F030F8194B04F520769968C4F8EC0084
:10676000174A04F11C0003F065FC304601F0CEFF2F
:106770002A46304613490DF039FB394602A801F08C
:10678000ADFD04F5807002A9324603F073FA02A849
:1067900001F040FD06B0BDE8F08100BFC804002054
:1067A00048090020D9600008158200086996010890
:1067B0009296010897960108A59C01080000002008
:1067C000D1620008E560000810B501310023934252
:1067D0000ED0040F092C01D8303400E0373401F812
:1067E000014C01330024000101F8024BDBB2EEE75B
:1067F00010BD00001F4B10B51A88032A04D80420CE
:106800000146188007F020FA4FF000604FF4A041D5
:1068100007F010FA1848012421460470174807F0C1
:106820002DFC06F0ADFA05F095FF2146402007F05B
:10683000E3FC6FF07F4006F0F9F8E72006F072F90C
:106840000F490C7005F0CEFF7D2007F0F9FC18B160
:106850000C4B1C7007F008FD40F6B83006F01AF833
:1068600006F06CFD06F0E6FF074A084901201070AB
:10687000087010BD341900201019002000043000E9
:106880002C180020B0220020B8180020AE180020DC
:10689000304B10B51A88042A04D805210420198029
:1068A00007F0D2F92C48017811B12C4802F054FCC1
:1068B000294C237853B127480288052A04D8062199
:1068C0000180042007F0C0F902F0CAFC217861B110
:1068D000234C23784BB92348027832B122490C78F3
:1068E0001CB9224B18780028E2D0214A11780029DF
:1068F000DED1204C2378002BDAD11C480278012A03
:106900000FD01D4969B1134C2388062B04D80721E9
:106910000420218007F098F9FFF7F4FC134A0120C6
:10692000107016490029C3D00A4C2388072B04D8BD
:1069300008210420218007F087F9FFF741FE208815
:106940000828B5D8034A09210420118007F07CF9F2
:10695000AEE700BF34190020B81800204D720008BF
:106960006D180020AE1800202A180020E007002033
:106970002B180020B022002005630008C165000824
:10698000524B70B51A6812B11868411E1960504B0D
:106990001A783AB14F4A1078002829D04E49002978
:1069A00049D125E04D4C206810B12368591E0FE0F5
:1069B0004B490B78E3B94B4A1078C8B94A490B7870
:1069C000B3B94A4D2A782AB1E72006F025F91421F7
:1069D00021600DE04648017800292FD1E72006F01C
:1069E000CFF844483D4B0178002935D032221A6057
:1069F0003F4B1A7832B1404D287818B92EE04168E3
:106A00004B1C43603D490B68B3F57A7F0FD30023DD
:106A10000B6007F091FB3A484FF6FF7102888A42FB
:106A200053D001800420BDE8704007F00DB908681C
:106A3000421C0A6070BD00F06DFCD9E7314B1A783A
:106A4000002ACBD04FF6FF7005F0F0FFE72006F0EC
:106A500069F801202870CBE76422C8E721490B7848
:106A600093B1294847F22F5243689342C7D9BFF3E5
:106A70004F8F264C2648E56805F4E06646EA00029A
:106A8000E260BFF34F8FFEE7154E347834B92046ED
:106A900006F0D6F940F6B73290420DD8002006F045
:106AA000CFF941F657318842ACD9002006F0D0F931
:106AB000184B01201870A5E7204606F0C9F92A787E
:106AC000002A9FD1012131709CE770BDB8220020BF
:106AD000F01800207C0B002015730008B422002061
:106AE0005C1800202B1800202D1800202C180020E6
:106AF000B8180020291800206D180020BC220020A2
:106B0000341900202A180020E007002000ED00E0E2
:106B10000400FA055A18002008B5094B186006F061
:106B2000B7FB002006F0FCFB064805F037FE06F038
:106B3000C5FB06F0E3FBBDE8084008F09DBA00BFC6
:106B4000C0020020A0860100074B1868052808D164
:106B500006490A7A012A04D1887A0B7BC11AC8B285
:106B600070470020704700BF38190020E007002060
:106B70000D4B10B51868052813D10C4C217A01294A
:106B80000FD16289A389D01A012804D100210320E2
:106B9000217208F0DCFBA389E218591C907BA181CB
:106BA00010BD4FF0FF3010BD38190020E007002065
:106BB00008B50C4B1968052912D10B4B1A6D9918A1
:106BC00081F85400501CB0F5807F08BF0020186584
:106BD00006F02EFA20B16420BDE8084005F0DEBDC5
:106BE00008BD00BF38190020E007002070B5234A17
:106BF00092F85431012B3FD0D2F85801B0F5807F84
:106C000002D10021C2F85811D2F85831126D1B4838
:106C1000934203D1002180F8541170BD8CBFC3F59D
:106C20008072C3EB0202154CC0F85C21D4F85C51B1
:106C300099B2402D07D94033403DC4F85831C4F8CB
:106C40005C51402606E0E8180023AEB2C4F85801B3
:106C5000C4F85C310A4A01255018C021324684F834
:106C6000545108F0EBFA2846314608F0F1FB28466B
:106C7000BDE8704008F05ABB70BD00BFE0070020BF
:106C800034080020094B10B593E814000833186845
:106C900010180AD008220649FFF796FD054920463C
:106CA0000422BDE81040FFF78FBD10BDE8F7FF1FBD
:106CB0006F0200207F02002013B5084C00210091D4
:106CC0000A460B46204601F05DF80549054A204674
:106CD00002B0BDE810400DF089B800BF40090020A7
:106CE000D96000084809002038B50D460446AC427A
:106CF00003D254F8043B9847F9E738BD08B5074874
:106D00000749FFF7F1FF07480749FFF7EDFF07487D
:106D10000749BDE80840FFF7E7BF00BFD8A001085A
:106D2000D8A00108D8A001083CA101083CA1010895
:106D30003CA101080DF056B908B5072006F0A4FEE5
:106D4000FEE70000074A08B513680749181888428B
:106D5000106004D9082006F097FE0DF081F818465F
:106D600008BD00BF0C000020004800204FF0FF309D
:106D700070470120704708B50C2006F085FEFEE73D
:106D8000014B1868704700BF4C090020064B0246B3
:106D9000582000FB013101F1080303CB1060516062
:106DA00018689060704700BF4C090020014BD3F871
:106DB000640170474C090020064B0246142000FB7A
:106DC000013101F5B67303CB106051601868906013
:106DD000704700BF4C0900200E4B2DE9F041D3F85D
:106DE000647180460024BC4211DA14256543094EC3
:106DF0004146701900F5B6700C220DF0B7FC20B9B1
:106E00007519D5F86801BDE8F0810134EBE7002081
:106E1000BDE8F0814C0900202DE9F04788B081469B
:106E200068460D4601F038FA1E4B0024D3F800A046
:106E300054452DDA55B3582666431A4F494607F193
:106E4000040808EB060004300C220DF08FFCE8B9B2
:106E500028460DF083FC06F11001402834BF02469D
:106E6000402208EB010029460DF02BF9BE19012242
:106E700086F85820694604A8746801F02FFA04A81F
:106E8000A047044604A801F0C5F903E00134CFE7A8
:106E90004FF0FF34684601F0BDF9204608B0BDE868
:106EA000F08700BF4C09002038B50546064C28B1D4
:106EB00005F05EFE012384F8303238BD05F006FE91
:106EC00084F8305238BD00BF4C090020024B00222C
:106ED0001A6006F0CFBA00BFE4070020034A044856
:106EE00000231370036006F0FDBA00BF2B180020CA
:106EF000E4070020044B0549002001221A700860B5
:106F00004FF4C02006F090BA2B180020E4070020B0
:106F10002DE9F843044691460F4689B380B3194BD7
:106F2000D3F864510A2D2BD00026AE4216484FF0FC
:106F300014010CDA71434258BA4206D14118081DB7
:106F40000C2221460DF012FCD0B10136EDE7694369
:106F5000A0F5B47808EB01064218101D0021C6F810
:106F6000687186F878910C220DF0CEF8206861687F
:106F700006F5B67303C3A06801351860C8F86451FC
:106F8000BDE8F8834C090020B40A00202DE9F84F31
:106F900004468946002941D000283FD0204B1D6877
:106FA000042D3BD00027AF421E4E4FF058080FDA99
:106FB00008FB07F856F80810494507D106EB080208
:106FC000101D21460C220DF0D1FB38B30137EAE742
:106FD00008FB05F8A6F1040A0AEB080708F11000FF
:106FE000C7F804900021402230180DF08DF806EB10
:106FF0000801081D0C2200210DF086F82068616848
:1070000007F1080203C2A3680020013507F1040B51
:1070100087F858001360543746F8045CBDE8F88FD1
:107020004C0900205009002007B503460A46652197
:107030000091034819463C2308F036FC0EBD00BF02
:10704000800B002073B5002B0CBF6523452306463B
:107050000D461446009331462A462346014808F05F
:1070600023FC7CBD800B002010B5064C206803F08B
:1070700085FE2368013303D0411E4842484110BDBC
:10708000012010BD10000020F0B5274B06461878EF
:1070900087B00F46002843D124490A78002A3FD1FF
:1070A000FFF7E2FF044600283AD1214D8DF80C008D
:1070B0002B688DF80D008DF80E008DF80F0006A9D5
:1070C000580901EB800203F01F01012000FA01F0D2
:1070D00052F80C1C0494014342F80C1C04A841F221
:1070E00088320592009003A9581C2246234604F0DA
:1070F000E3FC002816DD2B6806A95D0901EB85007D
:1071000050F80C5C03F01F0245FA02F515F001007F
:1071100008D0184631463A46234604F06DFD01E09A
:107120004FF0FF3007B0F0BD6C1800206D18002044
:107130001000002038B50B4B054618780C4668B98E
:1071400009490A7852B9FFF78FFF034630B907485B
:1071500029462246006804F0CDFD38BD4FF0FF30CF
:1071600038BD00BF6C1800206D18002010000020F2
:1071700030B51F48ADF57B7D08F0DAF9002834D131
:107180001C481D4B06901D4D1D4805931D491E4A68
:107190001E4B0A950C901E4D1E48079108920B93AA
:1071A0001D491E4A1E4B0F9511901E4D1E481F4C27
:1071B0000D910E921E491F4A10931F4B1495169065
:1071C00061AD17A8129113921593099404900EAC17
:1071D000039506F0CDF9284606F0D0F9009404484E
:1071E000164903AA05AB08F0AAF90DF57B7D30BD61
:1071F000800B00208970000835710008CD6E0008F2
:10720000B5770008F56E0008DD6E0008A96E00086D
:107210008D6D0008AD6D0008D1880008816D0008F3
:10722000196E0008D96D00089DD50008ADD500087D
:10723000B96D00082175000889D50008E8F7FF1F1F
:10724000014809F0FCB800BF800B002030B50220D7
:1072500011228DB0014604F079FB051E28DB15498B
:1072600007A808F0B2FA022316200024ADF80C306B
:107270008DF80E003321E0220123BB208DF8114050
:107280008DF80F108DF810208DF812308DF8130046
:107290000324102203A900910192002313222846FF
:1072A00007A904F031FD013CF3D1284604F07CFB32
:1072B0000DB030BDE8F7FF1F30B5134C87B0FFF7B6
:1072C00057FF204608F037F9204608F049FD0546EB
:1072D000FFF7BCFF204608F0CCFA03A803F006FF36
:1072E0009DF80D209DF80C300092082104A8074A53
:1072F0000DF0BEF9064804A93C220123FFF7A2FEC7
:10730000284607B030BD00BF800B00209D960108C5
:10731000A396010838B5114CD4F8585B2DB1D4F8B8
:10732000581B4B1EC4F8583B38BDD4F85C3B0C4A84
:1073300052F8230005F0A2FBE72005F0F3FB094A11
:107340006420D4F85C1BC4F8580B50684B1C834273
:10735000C4F85C3BA8BFC4F85C5B38BD4C09002096
:10736000DC680108100000207FB502200121062200
:1073700004F0ECFA041E23DB00200822022335214E
:107380008DF802004FF4FA50ADF800308DF803107C
:107390008DF804208DF805208DF806208DF8072043
:1073A00001F0D2FE694606461022204604F058FB42
:1073B0000546304601F0C8FE204604F0F5FA01E02B
:1073C0004FF0FF35284604B070BD000010B5064CE4
:1073D0002068002805DB04F0E7FA4FF0FF33236054
:1073E00010BD002010BD00BF1000002030B5A7B0B8
:1073F000FFF7ECFF02200121062204F0A7FA334B2D
:107400000028186052DB3248022216213324A0F8EB
:10741000602B80F8621B80F8634B05A806F074F8B7
:107420009DF814300025009533B1012B17D0294B5E
:1074300001A803F1100502E0069A009214E002464A
:1074400059681868083303C2AB421046F7D101A946
:1074500006AC0FC907C424F8023B1B0C23700A2496
:10746000009D0DB9013C24D1009808B91A4900913A
:10747000009B174C180A1D0E1A0C84F8660B4FF46B
:10748000FA5084F8673B84F8645B84F8652B01F05C
:107490005BFE0E4905461022086804F5366104F0CB
:1074A000DFFA0446284601F04FFE0CE04FF0FF34AF
:1074B00009E07E2106A80DF085F96A4681B206A88A
:1074C00004F098FACCE7204627B030BD1000002029
:1074D0004C090020BE96010804E5D0360F4B2DE97B
:1074E000F041D3F8647180460024BC4211DA1425BF
:1074F00065430A4E4146701900F5B6700C220DF036
:1075000035F920B9751995F87801BDE8F081013495
:10751000EBE74FF0FF30BDE8F08100BF4C090020E1
:1075200008B5FFF7DBFF0138082803D8024B19180C
:10753000087F08BD022008BDDC68010804F090BA8D
:1075400037B50B4C002104F537650B4600910A4610
:10755000284600F017FC28460649074A0CF046FC6E
:1075600004F50D7003B0BDE8304007F0D1BF00BF97
:107570004C090020D96000084809002014282DE992
:10758000F34104460E467CD8FF297AD000F0F6FD80
:1075900028B10D2C75D00F2C73D00E2C71D000F0AB
:1075A0000DFB08B1012C6CD901F038FB18B1A4F126
:1075B0001203012B65D918206043334D33492F58EE
:1075C0002A188F42B2F8048001D1042003E0304B26
:1075D0009F4203D10820012106F01AFEADF8048075
:1075E000062E4AD8DFE806F004121A222A35410096
:1075F000254B182101FB043410208DF807000322CD
:107600000020A0738DF80620083436E004211823EA
:107610008DF8071003FB045401212DE048201822A7
:107620008DF8070002FB0454022125E028211823CD
:107630008DF8071003FB045403211DE0124A1823A0
:1076400003208DF807308DF8060003FB0424042185
:1076500012E00D491C230320182202FB04148DF8AC
:1076600007308DF80600052106E0182202FB0454BD
:1076700000208DF807000621A173384601A906F005
:107680009DFCBDE8FC8100BF1800002000080140FF
:10769000000C0140142870B504460E4642D8224B17
:1076A000182202FB0030817B01293BD0022939D00E
:1076B000032937D0062935D0FF2933D000F05EFDED
:1076C00030B10D2C2ED00F2C2CD00E2C00D170BD33
:1076D00000F074FA10B1012C00D870BD01F09EFAD0
:1076E00020B1A4F11202012A00D870BD0E4D18235A
:1076F00003FB0450817B042903D120460021FFF7BE
:107700003DFF012E06D11822544328192B59818898
:10771000196170BD36B91822544328192B59818834
:10772000596170BD70BD00BF18000020142838B525
:10773000044618D81E4B182202FB0030817BFF291B
:1077400011D004290FD005290DD000F017FD28B164
:107750000D2C08D00F2C06D00E2C04D000F02EFAE1
:1077600018B1012C01D8002038BD01F057FA18B12A
:10777000A4F11202012AF6D90D4D182303FB04507F
:10778000817B062906D195F8F811FF29EBD0204618
:10779000FFF7F4FE182254432D19054BAA7BA98844
:1077A000185912B906F060FC38BD06F057FC38BD18
:1077B0001800002005F034BF044B054958680A68DA
:1077C000044BB2FBF3F1B0FBF1F07047001000E0A6
:1077D000B403002040420F001FB504464FF47A73F3
:1077E0001B4800930268A118016005F019FF019081
:1077F00006F0A2FC05F014FF02900298019BC21A49
:1078000003920399002903DA0198029B1A18039244
:107810000399A1421BD20F480378002BE8D00E4AEF
:1078200011780029E4D10398009B984204D2084AB9
:107830001168B1F57A7FDBD3039800F57A73009372
:1078400001F00EFD054A11780029F9D1D0E71FBDDE
:1078500068180020B81800206D1800202B18002090
:1078600004F09CBF13B5084C002100910A460B465A
:10787000204600F087FA0549054A204602B0BDE8D7
:1078800010400CF0B3BA00BFF0140020D96000081B
:107890004809002038B5194B05461C88B3F8002468
:1078A000A4B290B228B94EF6EE63E01A18BF0120D8
:1078B00006E00CBB4EF6EE63C41A624252EB0400C3
:1078C000840204F1006201300D4B02F58044820213
:1078D000D01884420ED22268013209D1204606F027
:1078E00033FB042809D1A01C294606F02DFB38BD26
:1078F0000434EEE7802038BDAB2038BD00400008DE
:10790000FE3F000808B5084806F03AFB04280AD1F3
:107910000021054806F018FB042804D10348BDE8FF
:10792000084006F02DBB08BD0040000800440008D8
:107930000F4B10B51A8893B20E4A128892B21BB13F
:107940000AB1AB2010BD01239C020B4BE3180B4A7C
:10795000A21893420AD91A8892B2824204D133F80B
:10796000020C0880002010BD043BF0E7012010BD90
:107970000040000800440008FE43000802400008E0
:10798000F8B5434E06F0A0FA424D34884EF6EE614B
:10799000A4B22B888C4298B24FF6FF720FD094425B
:1079A00002D0002C42D070E000286AD088426CD10E
:1079B000304606F0E5FA042869D1284632E048BB93
:1079C00004461646344D35492B8831F8145098B288
:1079D000A84208BFA6B232B2944203D10134642C4B
:1079E000F0D10FE02D4F284607F1C801FFF7A0FFA7
:1079F0000128F3D02846B7F8C810FFF74BFF04283A
:107A0000ECD0F8BD0021224806F09EFA04283ED1B1
:107A1000204837E0904238D1284606F0B1FA0428D1
:107A200035D13046002106F08FFAF8BD00282CD061
:107A30009042EDD016461A4D18492B8831F8145053
:107A400098B2A84208BFA6B232B2944203D1013420
:107A5000642CF0D10FE0114F284607F1C801FFF761
:107A600067FF0128F3D02846B7F8C810FFF712FFC8
:107A70000428ECD0F8BD0021064806F065FA042879
:107A800005D1034806F07CFAF8BDFFF73BFFF8BDCF
:107A9000004000080044000806400008F8140020D8
:107AA0000644000810B50446FFF76AFF0023044AA5
:107AB00022F813300133642BF9D1204610BD00BFEA
:107AC000F81400200148FFF7EDBF00BFC2150020E9
:107AD000024B18785978401A704700BFC41500202F
:107AE000064B5A781978914204D998180132807857
:107AF0005A7070474FF0FF30704700BFC415002028
:107B0000054B5A781978914202D9981880787047B5
:107B10004FF0FF30704700BFC415002070470000D1
:107B2000014B0360704700BF60690108034B10B54B
:107B300004460360FFF7FEF8204610BD60690108A7
:107B4000F8B5094B054693F82200164650B10C468D
:107B50008F18BC4206D0296828468A6814F8011B91
:107B60009047F6E73046F8BDC415002010B50C4B21
:107B7000012293F822408CB193F823401F2C02D9A4
:107B80004260002010BD93F824001C1884F82510D2
:107B9000411CC8B283F8240083F82300104610BDAE
:107BA000C415002000224260024A4FF47A718160BD
:107BB000026070471069010870477047014B93F8E5
:107BC00059007047C415002073B50E4C002104F114
:107BD00064050D4E0B4600910A46284600F0D2F887
:107BE0006C343246094928460CF000F92046FFF76C
:107BF000D9FF07492046324602B0BDE870400CF07C
:107C0000F5B800BFC415002048090020D96000085D
:107C1000217B0008F0B5164618225043244B85B04E
:107C20001C181D582348A788854205D0224BEA1A04
:107C3000544254EB020000E00020C7F34605002444
:107C40001DB101346D08E4B2FAE71C4B43F824106F
:107C5000214606F045FA012E02978DF80C5006D009
:107C600003D3022E06D10C2102E0102100E00821EE
:107C70008DF80D1001208DF80E0002A806F0CCF84A
:107C8000092C13D80E4A042C135D8DF8043001D949
:107C90000E2100E00D2100208DF80600012201A830
:107CA0008DF805108DF8072005F090FF05B0F0BDA8
:107CB0001800002000080140000C01404016002080
:107CC000306901080D4B182273B502FB003086881D
:107CD0000025304606F0F2F8C6F346041CB1013523
:107CE0006408EDB2FAE7684600968DF8064006F0A3
:107CF00093F8034941F825407CBD00BF18000020DF
:107D00004016002008B5034B53F8200000B180470F
:107D100008BD00BF4016002013B5084C002100919B
:107D20000A460B46204600F02DF80549054A204634
:107D300002B0BDE810400CF059B800BF801600201A
:107D4000D9600008480900202DE9F04100240746C9
:107D50000E4625463B1919790A22304600F001F9F2
:107D60002E218046304600F096F801344044032C22
:107D70000544EFD13046F9790A2200F0F2F82818CC
:107D8000BDE8F08130B58371044D9DF80C30044698
:107D9000056001714271C37130BD00BF48690108BF
:107DA00005480021054B017141718171C171044A7F
:107DB000044903600CF01AB88816002048690108CD
:107DC00048090020D960000813B5084C0021009133
:107DD0000A460B462046FFF7D5FF0549054A2046CF
:107DE00002B0BDE810400CF001B800BF90160020B2
:107DF000D960000848090020014B0360704700BFAC
:107E000060690108F8B506460C468F180025BC428B
:107E100007D0336830469A6814F8011B90472D1834
:107E2000F5E72846F8BD0000034B10B50446036093
:107E3000FEF780FF204610BD6069010838B5054691
:107E40000C46084641B10CF089FC2B680246DB6801
:107E500028462146984738BD38BD2DE9F041002419
:107E600006460F462546BB689C420DD23068214627
:107E7000D0F80880384600F0A1FA01463046C047E5
:107E800001342D18A4B2EEE72846BDE8F08108B50C
:107E9000FFF7D4FF08BD08B503689A68904708BD8E
:107EA00038B50D210546FFF7F6FF0A21044628469E
:107EB000FFF7F1FF001938BD38B50446FFF7CDFFD5
:107EC00005462046FFF7ECFF401938BD38B504469B
:107ED000FFF7B4FF05462046FFF7E2FF281838BD3C
:107EE00070B500238AB08DF82430012A98BF0A2289
:107EF0000DF12303B1FBF2F505FB1211CCB2092CF5
:107F00001E4601D8303400E03734E4B203F80149AA
:107F10002946002DEED13146FFF790FF0AB070BD23
:107F200010B5044622B90268C9B29268904710BDE4
:107F3000D2B2BDE81040FFF7D3BF38B50446FFF713
:107F4000EFFF05462046FFF7ABFF401938BD38B5B7
:107F50000446FFF7E5FF05462046FFF7A1FF281876
:107F600038BDFFF7DDBFF8B506460D46144622B909
:107F70000368C9B29A689047F8BD0A2A0CD1002953
:107F80000BDA2D21FFF787FF69420746224630466C
:107F9000FFF7A6FFC019F8BDD2B2BDE8F840FFF761
:107FA0009FBF38B50446FFF7DEFF05462046FFF7C2
:107FB00077FF281838BD00002DE9F843194606461A
:107FC000104615461C469DF820700BF015FF10B9A1
:107FD0003046434907E0284621460BF00DFF0128B3
:107FE00005D140493046FFF729FF804674E0284616
:107FF00021464FF060423C4BFDF7D2FC38B9284691
:1080000021464FF06042394BFDF7ACFC10B13046D1
:108010003749E8E72846214600220023FDF7A2FC65
:1080200038B130462D21FFF736FF04F10044804679
:1080300000E080462F4B4FF000090022B9450CD0DC
:108040001046194600222C4BFDF744FB09F10109AB
:1080500002460B465FFA89F9F0E728462146FDF70C
:108060005DF80D460446FDF7CDFC8146FDF792F91B
:1080700002460B4620462946FDF74EF80A220446E2
:108080000D4630464946FFF72BFF804427B3304664
:108090001A49FFF7D3FE8044F7B1174B0022204660
:1080A0002946FDF7EDF90D460446FDF783FC8146B0
:1080B0000A2249463046FFF756FF80444846FDF7FE
:1080C00079F902460B4620462946FDF725F8013F7F
:1080D00004460D46FFB2DFE74046BDE8F88300BF27
:1080E000CE960108D2960108FFFFEF41FFFFEFC1D6
:1080F000D69601080000E03F00002440BF9A010826
:1081000037B59DF8181004460091FFF755FF054656
:108110002046FFF7C5FE28183EBD000013B5084CE9
:10812000002100910A460B462046FFF72BFE054929
:10813000054A204602B0BDE810400BF057BE00BF14
:10814000A0160020D96000084809002013B5084C8B
:10815000002100910A460B462046FFF713FE054911
:10816000054A204602B0BDE810400BF03FBE00BFFC
:10817000A8160020D960000848090020014B587D4E
:10818000704700BFB01600207047000013B5084CC0
:10819000002100910A460B462046FFF7F3FD0549F2
:1081A000054A204602B0BDE810400BF01FBE00BFDC
:1081B000C8160020D96000084809002013B5084CF3
:1081C000002100910A460B462046FFF7DBFD0549DA
:1081D000054A204602B0BDE810400BF007BE00BFC4
:1081E000D4160020D96000084809002070B586B078
:1081F0000A9E04460D4601A805490CF06BFA30466C
:1082000001A922462B460CF065FA304606B070BD37
:10821000DA96010810B5044600680BF0E3FE20462C
:1082200010BD10B50446006808B10BF0DBFE00235A
:108230002360A360636010BD38B504460D46006836
:1082400001310CF093F910B184E82100012038BD10
:10825000036810B5044613B14068884207D220462F
:10826000FFF7EAFF20B1A16809B922681170012067
:1082700010BD70B50E46114604461546FFF7E8FFDF
:1082800018B92046FFF7CDFF04E0A560206831460D
:108290000CF05CFA204670BD38B50023044603603C
:1082A0004360836003730D4639B108460CF056FAFB
:1082B000294602462046FFF7DCFF204638BD8842AB
:1082C00010B50B46044607D0096819B19A68FFF744
:1082D000D0FF01E0FFF7A5FF204610BD002310B539
:1082E00004460360436083600373FFF7E8FF2046A2
:1082F00010BD38B505460C4641B108460CF02EFAC3
:10830000214602462846FFF7B4FF01E0FFF789FF48
:10831000284638BD70B58CB09DF840500021044609
:108320000160416081600173AE1C03A80090194692
:1083300010462B4672B2FFF759FF01462046FFF761
:10834000D8FF20460CB070BD70B5044685680E4657
:1083500009B9002070BD62B155192946FFF778FFB1
:108360000028F6D02068A3683146C0180CF0EEF95A
:10837000A560012070BD0B4610B509689A680446D7
:10838000FFF7E2FF10B92046FFF74BFF204610BD74
:1083900003680A680BB15AB905E022B1896811B1C6
:1083A0001078404270473BB1806830B11878704710
:1083B000184611460CF0BFB91846704783689942B9
:1083C00003D2006810B1405C70470020704738B598
:1083D0000C469AB191B181688B4202D30020207083
:1083E00038BDCD1A013A0168954228BF1546C91813
:1083F00020462A460CF0D1F90023635538BD836826
:1084000010B59A4206D20468A0180CF087F908B19A
:10841000001B10BD4FF0FF3010BD0022FFF7EFBF73
:108420009A422DE9F04107460D4614461E4601D9F1
:108430003446164638460C49FFF72EFFA86884429A
:108440000FD82968864228BF0646002211F8068008
:108450008A552B6838461919FFF74BFF286800F832
:1084600006803846BDE8F081A59C010810B58B68F0
:108470000446FFF7D5FF204610BD006808B10BF099
:1084800037BD704713B5026802AB03F8011DD4680D
:1084900019460122A0471CBDB0F89620B0F89430D0
:1084A00010B59A42044607D0B4F89430E018591C2D
:1084B000007DA4F8941010BD01680A699047002857
:1084C000F2D14FF0FF3010BDB0F89620B0F89430E4
:1084D00010B59A42044604D0B4F894002418207DC4
:1084E00010BD01680A6990470028F5D14FF0FF30B0
:1084F00010BD0023A0F89430A0F89630704710B556
:1085000004460069082801D003F04EFA08232361CD
:1085100010BDF8B51746B0F89430B0F89620044670
:108520009A420E4606D101680D69A84710B94FF06E
:10853000FF3512E0B4F89400B4F896202118151A0B
:10854000BD4228BF3D46143130462A460BF0B9FDE6
:10855000B4F89430E918A4F894102846F8BDF0B5A2
:1085600085B004460D46164600F0DAFB02280746A1
:1085700034D10121062203F0E9F9002820612DDB26
:1085800023682046D9698847AB79300A2A798DF863
:1085900003606E79ED798DF802004FF4FA508DF892
:1085A00006308DF804208DF805608DF80750ADF881
:1085B000007000F0C9FD1022054669462069FEF7EB
:1085C000BDFF0646284600F0BFFD002E04DA2168F4
:1085D0002046CA6A904701E0012000E0002005B073
:1085E000F0BD00002DE9F04188B006460F469046E8
:1085F00000F096FB02284FF0000422D108AD384667
:1086000045F8144D0CF0AAF82A4681B2384603F01A
:10861000F1F9A04215DD039B04A8DAB2190E00920D
:10862000C3F30742C3F30723FFF7ACFB30680749E6
:10863000059B046A06910793304606A94246A04767
:1086400000E0204608B0BDE8F08100BF486901089D
:1086500030B5B0F8963087B0044633B1B0F8942006
:108660009A4202D10168CB69984700F059FB022871
:1086700024D12069082821D0B4F896207F2A1DD85B
:10868000410906AB03EB810300F01F02012101FA4F
:1086900002F10025039553F80C2C01300A4343F8EE
:1086A0000C2C04A941F28833059300912A4603A9B2
:1086B0002B46049503F000FAA84206DCB4F89610A5
:1086C000B4F89430C81A07B030BD206906AB42092F
:1086D00003EB820151F80C2C00F01F0342FA03F166
:1086E000CB07EBD5B4F89630E1181431C3F1800212
:1086F0002B4603F081FA0028E0DDB4F896200AB991
:10870000A4F894201018A4F89600D7E74FF47A71D3
:108710008160054900220160082142600161A0F8E2
:108720009420A0F89620704778690108036910B575
:10873000082B044601D1002010BD00F0F1FA0228F8
:10874000F9D1206902F01AFBD0F1010038BF0020F6
:1087500010BD08B5FFF7EAFF003018BF012008BDC3
:1087600070B50446FFF7E2FF01281BD0B4F896204D
:10877000B4F894309A4214D12069082804D002F049
:10878000FDFA0128064601D0002070BD206801696D
:1087900020468847054620B922682046D36A984774
:1087A000F2E7012070BD70B504460E461546FFF78E
:1087B000BDFF30B1206931462A46002303F09AFA02
:1087C00070BD4FF0FF3070BD13B5084C0021009113
:1087D0000A460B462046FFF7D5FA0549054A2046CA
:1087E00002B0BDE810400BF001BB00BFDC1600205A
:1087F000D96000084809002013B5084C00210091F9
:108800000A460B462046FFF7BDFA0549054A2046B1
:1088100002B0BDE810400BF0E9BA00BFE41600203A
:10882000D96000084809002038B51A4C94F92C305A
:10883000002B2DD094F82D00002829D005F03CFD08
:1088400094F82C2094F82D5051B2002995FBF1F3A7
:1088500006DD012B0BDC511E84F82C10002407E0F0
:10886000591C04DB013284F82C20022400E001248E
:10887000084B041993F82D20511E83F82D1005F094
:108880004FFD204605F02CFDBDE8384005F048BD01
:1088900038BD00BFEC16002010B509490446FDF7AD
:1088A000CDFB60B920460749FDF7E6FB38B906491C
:1088B0002046FDF725FAFDF7E9FB044B586010BD93
:1088C000000040C10000504100006145EC1600204E
:1088D00010B5044605F0F0FC001B00F17F02FE2AF3
:1088E00008D905F01DFD204605F0FAFCBDE8104052
:1088F00005F016BD054980EAE073A3EBE07381F84B
:108900002C00580081F82D0010BD00BFEC1600208F
:1089100013B5084B04465868091802A840F8041D0E
:108920000BF040FB0BF0A4FA01462046FFF7B4FC25
:1089300020461CBDEC16002010B5044605F0BCFC1A
:1089400001462046FFF7E4FF204610BD13B5084C52
:10895000002100910A460B462046FFF713FA05490D
:10896000054A204602B0BDE810400BF03FBA00BFF8
:108970001C170020D96000084809002013B5084CD6
:10898000002100910A460B462046FFF7FBF90549F6
:10899000054A204602B0BDE810400BF027BA00BFE0
:1089A00028170020D96000084809002013B5084C9A
:1089B000002100910A460B462046FFF7E3F90549DE
:1089C000054A204602B0BDE810400BF00FBA00BFC8
:1089D00030170020D960000848090020014B0360CF
:1089E000704700BF60690108426D836DD01A00F0C6
:1089F0003F007047426D836D9A4203D0816D4018ED
:108A0000007D70474FF0FF307047426D836D9A4292
:108A100009D0816D4218816D137D4A1C02F03F011F
:108A20008165184670474FF0FF307047D0F8A4308A
:108A300070B504460E46186840F2277105F0CDFE69
:108A400028B9D4F89C20D4F8A000824213D1D4F8DD
:108A50009C506B1C03F03F05D4F8A020954213D026
:108A6000EFF31080C30744D5D4F89C10D4F8A0309D
:108A7000994209D13DE0D4F8A4100122086840F2DF
:108A8000277105F082FEE2E7D4F8A43040F22771A6
:108A9000186805F0A2FE0028DED0D4F8A4208021BA
:108AA000106805F094FE0028D6D0D4F8A400002267
:108AB000006840F2277105F068FED4F8A030D4F8C1
:108AC000A410E2180133086892F85C10C4F8A030D2
:108AD00005F075FED4F8A000D4F8A42000F03F0102
:108AE000C4F8A010106840F22771012205F04DFE75
:108AF000B2E7D4F89C20D4F8A410A01880F85C60E9
:108B0000C4F89C5001250868257440F227712A4654
:108B100005F03BFE284670BD10B50446D4F89C20F5
:108B2000D4F8A0309A42F9D1207C10B900222274E6
:108B300010BDD4F8A4100868402105F048FE0028B4
:108B4000F2D0F3E7034B10B504460360FEF7F2F8EA
:108B5000204610BD6069010810B540F22551044659
:108B6000006805F03AFE70B1206805F02CFEE3695C
:108B7000C0B21A6C511C01F03F02596C8A4202D0FB
:108B8000196C1A645854206840F2277105F025FECC
:108B9000B8B1A3692068196C5A6C914206D140F2B1
:108BA00027710022BDE8104005F0EFBD5A6C995CBA
:108BB00001325A6405F003FEA069436C03F03F01E3
:108BC000416410BDF8B500254FF47A730446836004
:108BD00045600B4804F15C072060482604F114004E
:108BE000C4F8A41032468F61C86129460BF08CFA94
:108BF0003846294632460BF087FA25742046F8BDE0
:108C0000B86901080148FFF7A7BF00BF14020020A0
:108C10000148FFF7A1BF00BF34020020014B187CC0
:108C2000704700BF3817002073B50E4C002104F1C7
:108C300014050D4E0B4600910A462846FFF7A2F890
:108C40001C343246284609490BF0D0F82046084922
:108C5000FFF7B8FF07492046324602B0BDE8704032
:108C60000BF0C4B83817002048090020D96000086C
:108C700014020020DD89000870474FF0FF30704774
:108C8000014B0360704700BF60690108034B10B5DA
:108C900004460360FEF74EF8204610BD60690108E7
:108CA000084608B5FDF784FF012008BD08B5FDF7AB
:108CB0004BFF08BDFDF75CBF00224260024A4FF443
:108CC0007A71816002607047E06901080846FDF72B
:108CD00023BF000037B50D4C00210D4D0B46009110
:108CE0000A462046FFF74EF82A460A49204608342D
:108CF0000BF07CF82046FFF7DFFF074920462A46A5
:108D000003B0BDE830400BF071B800BFFC17002085
:108D100048090020D9600008818C000870470000D5
:108D2000044B187828B104480178002914BF0220A8
:108D3000012070475B1800202818002037B50B4C25
:108D400000210B4D0B4600910A462046FFF71AF80A
:108D50002A46204607490BF049F8074904F1080064
:108D60002A4603B0BDE830400BF040B8141800208C
:108D700048090020D96000081D8D00080023036009
:108D800018467047002303601846704700230360AD
:108D900018467047034610B548F21004A34208462F
:108DA0004CD00CDC48F20102934223D0501C834289
:108DB0002AD0992B65D1334B0121997310BD48F20C
:108DC0008004A3420FD0B3F5084F4AD048F24000C8
:108DD000834256D12B4C04F110000BF072F9616AFA
:108DE0004B1C636210BD27480122002102704270B3
:108DF000817010BD234C0122E270FEF7DBFC00F510
:108E0000EA403030606010BD1E4CE27862B1FEF77F
:108E1000D1FC00F5EA40303060604FF47F4003F051
:108E200005FEE72003F07EFE16490023CB700B728F
:108E30004B728B72CB720B734B7310BD087D114B51
:108E400060B9012158604FF47F401972197303F023
:108E5000EDFDE720BDE8104003F064BE00221A7269
:108E600010BD002101F083FB0121044601F0C6FB87
:108E7000054A1068844204D102490023CB728B72E8
:108E80004B7210BD2018002010000020F0B50B78A8
:108E900091B004460D4616462BB1032A55D8DFE89B
:108EA00002F002113C3C20460BF058FC0246012027
:108EB00000900020019002900390049005902146BC
:108EC00003463DE008460BF049FC002647088DF8B4
:108ED0001E600235BE4210D015F8021C15F8012C98
:108EE0008DF81C108DF81D2007A8002110220BF012
:108EF0009FFD08AB98550136EBE720460BF02EFCA2
:108F000001210023024608A88DE842000490029344
:108F1000084603930593214612E00BF01FFC074619
:108F200028460BF01BFC012118221E234FF0020ED5
:108F30008DE80E4005900495304621463A460023C0
:108F400003F014F8044981F82800034B012283F848
:108F5000292011B0F0BD00BF201800201FB50A2243
:108F600000234FF461504FF461618DE80F00064B10
:108F700044F620621A60684601A902AA03AB02F017
:108F800001F805B000BD00BFEC1800201FB500239C
:108F9000009301930293039301A8694602AA03ABCD
:108FA00001F0B8FF05B000BD70B500210A4C0E20DD
:108FB00002F0B6F8102510210E2002F0B1F80021C1
:108FC0002A4620460BF0A0F80E2029460022234610
:108FD000BDE8704002F058B84A18002030B5564D30
:108FE00000249FB0FF202C706C7085F82940EC7035
:108FF0002C72AC736C72AC72EC722C7303F016FDB5
:10900000E72003F08FFD21462246204602F08AFF2A
:109010002B46012103F82B4F0E200A4602F034F8AC
:10902000454BD878012805D1642003F0AFFB01F04F
:109030000BFCF5E710210C2002F072F83F4802F01B
:1090400040FC3F4803F0E2F8012003F0C3F8684613
:109050003C4901F011F9384D297895F829200A4347
:1090600018D195F83A1000295BD0FF2003F066F87C
:10907000002856D11A24013C06D0E72003F080FDD9
:10908000322003F083FBF6E7FFF78EFF2A4A82F8CF
:109090003A40E0E7E72003F045FD0E2001210022E1
:1090A00005F12A0301F0C4FF2C781CB103F0CCF8C1
:1090B00085F82800204C012194F828300022581C03
:1090C000234603F82A0F0E2001F0DEFF00200146A0
:1090D000012202F027FF0125234603F82B5F2946D2
:1090E0002A460E2001F0D0FF02F0A2FE642003F019
:1090F0004DFB002002F066FE84F83B504FF47F40A9
:109100000025257303F092FCE72003F00BFD48F2E5
:10911000042003F02DF8FFF721FF84F83C501FB026
:1091200030BDE72003F02CFDFA2003F02FFB68464A
:1091300001F014F98FE700BF20180020006A010831
:10914000540200208D8E0008024B1A6818601046E9
:10915000704700BFEC18002030B5364C85B0206455
:1091600003F0C8FF03F008FF334B34483449354A55
:1091700000930190344B029103923449344A3548AC
:1091800002F008FE642003F001FB0125002002F03C
:1091900019FE84F83B5048F204200025257302F0A4
:1091A000E7FF2D4B1888012831D00E2010212A46C8
:1091B00004F12A0301F03CFF102828D11D4CA278AD
:1091C000AAB994F82A301BB9012084F83C000EE0BB
:1091D00094F82B0058B90146012202F0A3FE0121A8
:1091E000234603F82B1F0E200A4601F04DFF1149BC
:1091F0008A78BAB991F83C30A3B1184801F076FFEB
:10920000FFF7C4FE05B0BDE83040FFF7A7BEFF2062
:1092100002F094FFFFF7C8FE0F4900240C8004F011
:10922000B5F8CBE74FF47F4003F000FCE72003F0F4
:1092300079FCE2E72018002031D0000845D0000872
:10924000B1D00008D9D000088D8D00087D8D0008B0
:10925000858D0008958D0008A20300206418002069
:109260002DE9F3419A4C04F067FF0023A36494F8BE
:109270004C0048B994F84D1031B962687AB3FEF7E2
:1092800099FA6468A0422AD3914C94F83B000028D4
:1092900040D00025E57065602572256584F84C5046
:1092A000012684F83B506572A572E572657302F081
:1092B000BFFD6FF07F40267303F0B8FBE72003F09B
:1092C00031FC642003F062FA94F83C1011B3284694
:1092D00002F078FD84F83B60FFF780FE1AE07C4CDA
:1092E00094F83B30B3B9A07828B9FEF763FA00F5DB
:1092F000EA4130316160002002F064FD0122002368
:109300004FF47F4084F83B20237303F08FFBE7206A
:1093100003F008FC6E4C94F83C2012B1FFF75EFE9F
:1093200004E0A37813B1267A35460EB36848417835
:10933000012914D1047A012C11D1C278012A0ED14D
:10934000032464480BF00AFA624982B2012002F059
:10935000E7FC631E13F0FF04F3D15D4844705C4CDE
:10936000217A2346E1B194F84D20002A75D017E008
:10937000314632463046666002F0D4FD56480BF066
:10938000EDF9564F804638460BF0E8F9009701900A
:10939000791F03204246334602F060FDA670C5E700
:1093A00093F8570020B14E4800213A220AF0ACFE53
:1093B000474B93F88E2032B9587A002859D19B7ABE
:1093C000002B56D1B8E01C7AFCB193F84D00E0B9FF
:1093D000597A00295ED018E0234603F82D2F0E207D
:1093E0000121032201F050FE394C00254FF6FF7099
:1093F000257303F01BFBE72003F094FBFDF7F6FF5A
:10940000A84271DB256501236372314C617A002922
:1094100000F09280A27ABAB9FDF74EFF002811D071
:1094200002DA4FF47F0007E0012801D12D4803E064
:10943000022803D14FF0FF1003F0F8FAE72003F001
:1094400071FB01E00120A072FDF7FAFE002873D144
:109450001F4BD872987258726EE094F8571000291A
:10946000A6D1642003F092F904F1540001F0CEFD7E
:109470009EE7FDF7ABFF164900224FF47F40CA720A
:109480008A724A7203F0D2FAE72002B0BDE8F041D6
:1094900003F048BB5D7B002DA6D04FF47F0003F0A6
:1094A000C5FA0B4C627B002A96D0E72003F03AFB0A
:1094B0004FF4FA7003F06AF9E72003F041FB4FF430
:1094C000FA7003F063F9657B691ECAB26273E8E75C
:1094D00020180020570200205E02002063020020B6
:1094E000741800200060FF0094F84C3023BB206DFE
:1094F000411C0229216502D1012284F84C20FDF78C
:1095000033FF00280E4C09DA206D411C0229216529
:1095100002D1012284F84C20022300E0032363736C
:10952000074C0121607B234603F82D0F03220E20F8
:1095300001F0AAFD002367E702B0BDE8F08100BF9B
:109540002018002013B5084C002100910A460B4654
:109550002046FEF717FC0549054A204602B0BDE843
:1095600010400AF043BC00BFB0180020D9600008CA
:1095700048090020704708B5012004F085FAFEE78D
:1095800008B5032004F080FAFEE708B5042004F0D3
:109590007BFAFEE708B5052004F076FAFEE770478F
:1095A0007047704708B504F033F8BDE80840FDF790
:1095B000E7B9000008B5024B0BB1AFF3008008BD5E
:1095C0000000000008B5024B0BB1FFF721FB08BDFE
:1095D000118C000808B5024B0BB1FFF713FB08BD57
:1095E000058C000808B5024B0BB1FEF7E5FA08BD83
:1095F000B97B000808B5024B0BB1FEF7DEFA08BDD7
:10960000BB7B000808B5024B0BB1FEF7BDFD08BDE2
:109610008981000808B5012004F040FC38B1012020
:1096200004F04CFC024B13B10020FEF76BFB08BDAD
:10963000057D000808B5022004F030FC38B1022096
:1096400004F03CFC024B13B10120FEF75BFB08BDAC
:10965000057D000808B5042004F020FC78B1042042
:1096600004F02CFC0020064B0146188003F016FB8A
:10967000044810210122BDE8084005F03EB808BDAD
:109680000C190020002C014008B5082004F006FC4D
:1096900038B1082004F012FC024B13B10320FEF78E
:1096A00031FB08BD057D000808B5102004F0F6FB6D
:1096B00038B1102004F002FC024B13B10420FEF775
:1096C00021FB08BD057D000808B5202004F0E6FB5D
:1096D00038B1202004F0F2FB0E4B13B10520FEF749
:1096E00011FB402004F0DAFB38B1402004F0E6FB27
:1096F000084810B10620FEF705FB802004F0CEFBE1
:1097000038B1802004F0DAFB024911B10720FEF7DE
:10971000F9FA08BD057D000808B54FF4005004F0C3
:10972000BDFB40B14FF4005004F0C8FB174B13B120
:109730000D20FEF7E7FA4FF4804004F0AFFB40B194
:109740004FF4804004F0BAFB104810B10E20FEF731
:10975000D9FA4FF4004004F0A1FB40B14FF40040AF
:1097600004F0ACFB094911B10F20FEF7CBFA4FF41E
:10977000006004F093FB38B14FF4006004F09EFBEE
:10978000BDE8084002F08CBF08BD00BF057D0008A1
:1097900008B50F48102104F0E9FFC0B10C481021B2
:1097A00004F0EFFF002003F03BFB28B9094B1A88B7
:1097B0000A3290B2188008BD10210548002204F03A
:1097C0009CFF00200121BDE8084003F067BA08BDF6
:1097D000002C01400C19002008B5024B186800B19C
:1097E000804708BDBC18002008B5024B586800B17E
:1097F000804708BDBC18002008B5024B986800B12E
:10980000804708BDBC18002008B5012004F0A4FD65
:1098100050B1012004F0B2FD044B0BB1FFF704F886
:10982000BDE8084004F07CBD08BD00BF29880008E1
:1098300008B5022004F090FDB0B10C4B00224FF4AB
:1098400000301A7004F03AFB012004F09FFC10B1C4
:10985000012004F0A5FC04F063FD022004F08EFD5D
:10986000BDE8084004F05CBD08BD00BF6D180020D5
:1098700002F0A6BE00F062B838B514490B78012B8F
:1098800023D1134A13680BB90B7038BD114C402B10
:10989000206881B205D94030403B206013604025EC
:1098A00004E09DB2C3180020236010600A4A5018DB
:1098B000C0212A4605F0C2FC0120294605F0C8FD5A
:1098C0000120BDE8384005F031BD38BD3409002025
:1098D0003C0900203809002034080020094908B557
:1098E0000020094B0122088003201A7005F0DCFDDE
:1098F000064B0246188006484FF48871BDE80840C0
:1099000005F0B3BCEC070020E8070020EA070020C0
:10991000EE070020074B1868052809D1064B1A6886
:10992000511C052A196003D100201860FDF75EB9AB
:10993000704700BF38190020C81800203A4A38B5CF
:1099400011683A4B88B23A4D18801C88298821400A
:1099500001F4007084B244B14FF6FF5515609A7857
:10996000511CC8B29870FFF7D5FF304C304B25889A
:109970001A882A4002F4004188B225461C4608B1E4
:1099800005F096FB2A882388134003F4806188B28F
:1099900030B1254B27494FF6FF321A60486880479F
:1099A000224A234B11881B88194001F4005081B2D0
:1099B00019B11D494DF6FF7008601288134003F479
:1099C000805398B230B1184A4EF6FF7111600020F2
:1099D00004F016F8154B164918880A88024002F45C
:1099E000006398B260B114490A7812B103F0E8FF3D
:1099F00002E0022004F004F80B4B4FF2FF701860F5
:109A00000A490B480A880388134003F480718AB21C
:109A100042B1054B4FF6FF6018600720BDE83840A3
:109A200003F0EEBF38BD00BF445C0040CC180020FE
:109A3000FC220020F8020020C8030020034B987A83
:109A400010B1034905220A60704700BFD8220020E8
:109A500038190020014B04221A6070473819002081
:109A6000034B1A78202A01D100201870704700BFDC
:109A7000D018002070470000212810B508D11148E7
:109A80000368197801F07F02212A11D0022010BD4D
:109A90002028FBD10B4B19680A780B4902F07F0391
:109AA0000A4A212B0CBF0B46002310700BB9EDE7BF
:109AB000074B044C20680024836144822046984769
:109AC000204610BDF8220020219B0008D01800205D
:109AD000099B0008074B19680A7802F07F03212BC5
:109AE00005D1022801D1002070472228FBD0022096
:109AF000704700BFF822002009B1022070470128FA
:109B0000FBD808467047000020B9034B08221968AB
:109B10000A82704701487047F8220020C0020020E6
:109B200020B9034B082219680A8270470148704720
:109B3000F8220020C0020020054B1968CA78042AC8
:109B400004D8044B03EBC20105F032B80020704783
:109B5000F8220020C8020020014905F029B800BF02
:109B6000E8020020014905F023B800BFF002002000
:109B7000334A344BD179186810B50024417284728D
:109B8000C472204605F084FB20464FF4007105F0B6
:109B900087FB1021204605F08FFB4021204605F071
:109BA0002BFC8021204605F017FC204605F0E0FB49
:109BB000254B204693F8641005F058FC204605F02C
:109BC000C6FB0120214605F06BFB0120C02105F0FA
:109BD00003FC0120202105F06FFB0120214605F048
:109BE00088FB02204FF4C06105F05AFB02204FF4BD
:109BF000807105F0F1FB0220214605F07AFB02207E
:109C0000202105F059FB0320214605F049FB0320E4
:109C10004FF4887105F0F0FB0320402105F026FC8D
:109C200003204FF4405105F064FB0320214605F06A
:109C300043FB204605F0CEF9044A0120106010BD18
:109C40006D6A0108F8220020C002002038190020A7
:109C500010B5FDF717F8054B00241868847203F05F
:109C600097FE05F037FC02490C6010BDF822002079
:109C70003819002038B50446154608462922211D0A
:109C80000023FEF7A4FB2560204638BD2DE9F843EC
:109C900000251E464FF0010840F6B8330446C0F8D0
:109CA000443180F83051C0F8345180F8385180F890
:109CB0003981C0F83C51C0F8405100F1F500C4F8BA
:109CC00028010F46814882499146FEF7E0F8206856
:109CD000502201684B6A7F49984700286BD0206862
:109CE0000268D569A8477C497848FEF7EFF87B49B8
:109CF0002068FEF7CCF849462068FEF7C8F8784996
:109D00002068FEF7E3F877492068FEF7DFF8764928
:109D10002068FEF7BCF875492068FEF7B8F874496A
:109D20002068FEF7B4F825460A2241462068FEF76F
:109D300038F955F8040B6F49FEF7A9F82946206851
:109D4000FEF7C4F86C492068FEF7C0F86B4920683C
:109D5000FEF7BCF86A492068FEF799F838460AF021
:109D6000FDFC0A2201462068FEF7F1F82068FEF7A4
:109D700097F839462068FEF7A9F8FDF71BFDD4F8DF
:109D800044114018C4F83C015E495048FEF79EF863
:109D9000D4F83C21D4F840319A4208D8D4F83C0198
:109DA000D4F8401188420AD84848574905E094F849
:109DB000391181B9F2E745485449FEF787F8206820
:109DC0000368DA6A904752494048FEF77FF894F8F2
:109DD0003001BDE8F883206802681369984794F859
:109DE000381198B111B9012084F838012068016850
:109DF0004B699847D4F83411C0B262184B1C84F8F0
:109E00003A0182F82D00C4F834315AE0D4F83421F4
:109E1000A31883F82D00002953D084F8380184F862
:109E200039013C4904F12D052848FEF74FF8294631
:109E30002648FEF74BF8284637490AF0D0FC20B3F5
:109E400036492248FEF742F8012184F830112846AD
:109E500033490AF0C4FCD4F83421031DA018C4F817
:109E6000283100F12E01C91A30680AF07FFB3060FA
:109E7000002893D0D4F83421D4F82811A31803F182
:109E80002E02521A0AF089FC1BE0284625490AF0E6
:109E9000A6FC07460D4837B12349FEF717F8012005
:109EA00084F830010DE02149FEF710F80A21284618
:109EB0000AF034FC2946C4F8280107700348FEF76D
:109EC00005F8FDF777FCC4F8400161E704180020AD
:109ED000E396010827970108FC96010806970108F8
:109EE0005A990108219701083697010855970108EA
:109EF0005B9701086397010873970108AC97010805
:109F0000EB970108FC9701087598010892980108E1
:109F1000BB980108019801081098010820980108D1
:109F2000A19C010831980108499801085A98010834
:109F30002DE9F3479A468B68044603F10109484628
:109F4000174688460AF046F80646B86801300AF017
:109F500041F8054620200AF03DF801900EB105B108
:109F600020B91A481A49FDF7B1FFFEE740463146CD
:109F70004A460023FEF72BFABA68384629460132D2
:109F80000023FEF724FA204631462A4601ABFFF7AC
:109F90007DFE074638B101995046FEF7AAF9012126
:109FA00084F8301105E009480A49FDF78FFF84F86D
:109FB000307130460AF016F828460AF013F8019876
:109FC0000AF010F894F83001BDE8FC87041800206E
:109FD000CE980108E798010813B5084C00210091BC
:109FE0000A460B462046FDF7CDFE0549054A2046A8
:109FF00002B0BDE8104009F0F9BE00BFD41800203F
:10A00000D96000084809002038B500238DB24362AA
:10A01000044681610260836200212846FDF7AEFAA2
:10A0200028460121FDF736FB03206FF00601207161
:10A03000A16038BD10B50446FFF7E6FF204610BD0D
:10A0400038B503790446032B05D00079022802D0E5
:10A050006FF0040038BD0025002207212571208BF8
:10A0600025736573A573E57325746574A174E57430
:10A0700029466262A262FDF781FA2946208BFDF72C
:10A0800009FB1220FDF7A8FB0121208BFDF702FB45
:10A090002820FDF7E5FB0121208BFDF76FFAFDF786
:10A0A0008BFB216860610222208BFDF7B3FD01204C
:10A0B00038BD00000000000038B50446FDF77CFB09
:10A0C000636941F27072C31A9342606109D9032037
:10A0D0006FF00102A2602071208BBDE83840FDF7CF
:10A0E000F1BD227912B1012A7DD110E0182B03D8DD
:10A0F0006169CB1A636138BD7E3B3F2B01D80120DB
:10A1000070E0208BFDF7DEFD6FF0020068E0092BA8
:10A1100005D8208BFDF7D6FD6FF0050060E0A3F1B8
:10A120003D01532957D8642B08D9A07CE37C02FA5F
:10A1300000F2E318197B0A43D0B21873A37C002BFA
:10A1400044D10723A374E17C4A1CD0B20429E074F3
:10A1500049D1208BFDF7B6FD257B637B03EB052101
:10A1600088B2FBF727F920A3D3E90023FBF788F98E
:10A17000FBF768FC6062A27BA07B12F0800FE57B9E
:10A1800005D000F07F0105EB0122504202E005EB13
:10A19000002398B2FBF70EF913A3D3E90023FBF7D2
:10A1A0006FF9FBF74FFCA062237B657BA07BEB186C
:10A1B000E17BC018227C0918CBB29A4202D04FF042
:10A1C000FF300DE00022A26002200BE0A17C4A1EBD
:10A1D000D0B2A07438BD208BFDF774FD6FF0030082
:10A1E000A0600320207138BD9A9999999999B93F37
:10A1F0000379022B04D00079033818BF012070477F
:10A20000002070478068704708B50379032B03D19D
:10A210008068FBF721FD08BD017902290CBF806A27
:10A22000004808BD0000A0C008B50379032B03D186
:10A230008068FBF711FD08BD017902290CBF406A57
:10A24000004808BD0000A0C013B5084C00210091D3
:10A250000A460B462046FDF795FD0549054A20466E
:10A2600002B0BDE8104009F0C1BD00BFDC180020FD
:10A27000D96000084809002038B504460D46FEF7AD
:10A280001BFD204625614FF41651FEF71FFD2046A9
:10A2900038BD000013B5084C002100910A460B465A
:10A2A0002046FDF76FFD0549054A204602B0BDE88E
:10A2B000104009F09BBD00BFE4180020D9600008E1
:10A2C0004809002070B506460D46002428460AF0CD
:10A2D00045FA844208D2295D3046FEF7E1FC0120B0
:10A2E00002F054FA0134F1E770BD0000F8B50446FD
:10A2F0000E46174600252046FEF7D8FC0028FADD5A
:10A300002046FEF7D7FCBD42C1B206D10023337010
:10A3100020461149FFF7D6FF14E00D29F6D00A298F
:10A32000F4D0082901D07F2904D1002DE3D0013ECB
:10A33000013D02E006F8011B01352046EDB2FEF7B3
:10A34000AFFCD8E72046FEF7B1FC002803DD20462D
:10A35000FEF7B0FCF6E7F8BDA39C0108F0B585B0A8
:10A360000446FEF7A3FC002840F39D802046FEF73C
:10A37000A1FCC0B2772867D104F114060021212284
:10A38000304604F1350509F0BFFE00214122284680
:10A3900009F0BAFE04F17607002284F87620204600
:10A3A0007A704249FFF78EFF204631462022FFF7A0
:10A3B0009DFF20463E49FFF785FF39460122204692
:10A3C000FFF794FF94F87630A3F130010329F0D819
:10A3D000312B0BD120463749FFF774FF2046364911
:10A3E000FFF770FF20463549FFF76CFF94F87600C1
:10A3F000B0F1300708D020463149FFF763FF20460F
:10A4000029464022FFF772FF20462E49FFF75AFFE8
:10A4100023693A4630462946984720462A49FFF79D
:10A4200051FF20462949FFF74DFF20462849FFF7F5
:10A4300049FF20462749FFF745FF20462649FFF7F9
:10A4400041FF2046254929E069282CD1244A01AB47
:10A4500010685168002503C391682046196021499E
:10A46000FFF730FF01AEAE5D300900F13001392950
:10A4700088BF00F1570106F00F062046FEF710FCDA
:10A4800006F13001392988BF06F157012046013510
:10A49000FEF706FC0C2DE5D11349204605B0BDE8BA
:10A4A000F040FFF70FBF05B0F0BD00BFF79A0108FD
:10A4B000FE9A01082B9B0108619B01088C9B0108F7
:10A4C000D29B0108DD9B0108209C0108409C0108EB
:10A4D000739C0108A69C0108E59C0108169D0108D3
:10A4E000E8F7FF1F2C9D0108A39C0108002100F044
:10A4F00004B80E4B5B58435004310D480D4B4218C5
:10A500009A42FFF4F6AF0C4A00F003B8002342F879
:10A51000043B0A4B9A42FFF4F9AF03F0BBF9FCF796
:10A5200069F9FCF7EBFBFCF7B3F970473CA10108B4
:10A5300000000020C4040020C804002008230020DC
:10A54000FFF7FEBF01700B0A0A0C090E4370827000
:10A55000C170043070470170090A417002307047C1
:10A5600043185A78405C00EB022188B2704710B55E
:10A5700043189A78DC78415C120402EB0462587844
:10A58000521802EB002010BD73B544790023022C51
:10A5900001930FD0032C19D0012C2BD1164D286913
:10A5A0002E4620B1296901A888470246B8B9B1688A
:10A5B00001201BE0104DE8682E4620B1E96801A893
:10A5C0008847024658B9B16802200FE00A4D6A690F
:10A5D0002E464AB16B6901A89847024620B1A96886
:10A5E0002046BDF8043003E0B16803200022134682
:10A5F00000F02CFC7CBD00BF401A0020072830B5BD
:10A6000012D8012910D8EFF3108472B6012505FA8B
:10A6100000F501FA00F0054B1A6822EA0502024330
:10A620001A60E30700D462B630BD00BF50030020BB
:10A63000F0B5012187B00546FFF792FF00F4804393
:10A64000044698B250B3B4F5824F27D1284605216D
:10A65000FFF786FF0026074607353446BE4208D07E
:10A6600028460221FFF77CFF013624180435B6B2D4
:10A67000F4E7744B188E21188AB21A86D86B241806
:10A68000DC63D96B9A6B914240F0CE8093F8400026
:10A69000002800F0C9809B69992033E024F4FF4131
:10A6A00021F07F0290B2002800F09B8048F2100257
:10A6B00094422AD00CD8B4F5004F40F2C08048F242
:10A6C00002039C4217D9991C8C4240F0B88012E0DA
:10A6D00048F2800084420ED005D848F240029442ED
:10A6E00040F0AD8051E0B4F5024F04D0B4F5084F0E
:10A6F00040F0A5806CE053498869002800F0948000
:10A700008B69204600210A4669E00023EA18517946
:10A710000DF803100133042BF8D1687A2B7BAA7A49
:10A72000E97A8DF804008DF807308DF805208DF852
:10A73000061005F10D00002306AAD218C15C0133F2
:10A74000042B02F8101CF7D105F11100002306AA12
:10A75000D218C15C0133042B02F80C1CF7D105F1AF
:10A760001500002300AAD218C15C0133042B117418
:10A77000F8D1344928798A698DF81400002A53D019
:10A780008B6920466946152229E0053500212846B7
:10A79000FFF7EDFE042100902846FFF7E8FE0821B0
:10A7A00001902846FFF7E3FE0C2102902846FFF7B0
:10A7B000DEFE102103902846FFF7D9FE214B0490BE
:10A7C0009969002930D09B6920466946142206E029
:10A7D0001C48826942B38369691D2046012298475B
:10A7E00022E041F203039C4205D00C339C4202D08C
:10A7F000591E8C421AD16C1D04212046FFF7B7FE6A
:10A8000039301CD12D790F480021C5622046FFF751
:10A81000AEFE042105462046FFF7A9FE393003D1DC
:10A8200028460121FFF7EAFE012009E0054A1388C6
:10A8300099B28C4204D0B4F5805FF5D100E00020DD
:10A8400007B0F0BD401A002038B5104B5D88ADB29E
:10A85000CDB158680478211F4A4252EB01042CB153
:10A86000FFF7E6FE003018BF012000E02046054655
:10A8700020B944B1054B93F8411021B90348002297
:10A88000428001F0B5FD284638BD00BF401A0020C7
:10A890002DE9FF4704468946904602F0C1FE002597
:10A8A0000190BA4B5A8890B2002840F0928003F091
:10A8B00043FC02F0B5FE0290029901980A1A039235
:10A8C000039B002B03DA0199029842180392B04BC4
:10A8D00019680029E5D003988842E2D3AB4A41F2D7
:10A8E0000700138899B2814224D8421E91425FD258
:10A8F00040F2022399425BD00DD80C2906D80829D2
:10A9000056D200294DD0062952D959E00D294CD0F4
:10A9100040F201220BE041F2020081424BD8B1F536
:10A92000805F45D8B1F5017F3FD940F207229142BF
:10A9300037D13AE041F21103994236D014D841F2AE
:10A940000B00814234D005D841F2090291422FD048
:10A9500031D82AE041F20F0399422CD028D841F295
:10A960000D0081421DD126E042F2060291421CD028
:10A9700007D8B1F5005F14D942F20403994214D903
:10A9800021E0B1F5804F00F0F28105D8A1F500502B
:10A990000838012805D808E044F20B02914200F083
:10A9A000E6810B2003F070F8E1E1FF212170DEE188
:10A9B0004FF0FF3105E04FF0FF3121606160D6E1DB
:10A9C00000212160D3E1204600213A2209F09CFBBE
:10A9D000CDE15E683178042940F07E810121304666
:10A9E000FFF7BEFD05463046FFF722FE0146002870
:10A9F00040F0688141F20700771D854250D8411E22
:10AA00008D4280F0AF8040F20222954200F0AA8091
:10AA100011D80C2D09D8082D80F0A480002D00F04D
:10AA20005181062D40F29E80EAE00D2D00F09780C6
:10AA300040F201237EE041F202039D4218D8B5F5B1
:10AA4000805F00F28F80B5F5017F40F2888040F290
:10AA500007218D4240F036813079002104F8010B46
:10AA60003846FFF784FD01462046FFF76BFD29E1DC
:10AA700041F20402954200F0998040F2B0803846DD
:10AA80000021FFF774FD042120603846FFF76FFDB9
:10AA90006060083406F10D07234606F11D017EE0D3
:10AAA00041F2110295425AD02CD841F20B039D423B
:10AAB00058D01CD841F209018D4253D000F29B803E
:10AAC00000213846FFF753FD042120603846FFF788
:10AAD0004EFD082160603846FFF749FD0C21A0605B
