:020000040800F2
:1050000000500020F9A10008199600081B9600081E
:10501000259600082F960008399600080000000029
:10502000000000000000000000000000439600089F
:1050300045960008000000004796000849960008C1
:105040004DA200084DA200084DA20008AD9800082E
:105050004DA200084DA20008B9960008D996000894
:10506000F99600082D9700084D9700084DA20008FA
:105070004DA200084DA200084DA200081599000895
:105080004DA200084DA20008599600084DA2000844
:10509000199900084DA200084DA200086D9700085C
:1050A0004DA200084DA200084DA200083598000846
:1050B0007D9800088D9800089D9800088996000842
:1050C000999600084DA200084DA20008A996000874
:1050D0004DA2000869960008799600084DA20008C4
:1050E000BD970008D59800084DA2000800000000F8
:1050F00000000000000000000000000000000000B0
:0C51000000000000000000005FF808F153
:1051100081F0004102E000BF83F0004330B54FEA68
:1051200041044FEA430594EA050F08BF90EA020FD5
:105130001FBF54EA000C55EA020C7FEA645C7FEA68
:10514000655C00F0E2804FEA5454D4EB5555B8BF8B
:105150006D420CDD2C4480EA020281EA030382EAFC
:10516000000083EA010180EA020281EA0303362D8E
:1051700088BF30BD11F0004F4FEA01314FF4801C61
:105180004CEA113102D0404261EB410113F0004F73
:105190004FEA03334CEA133302D0524263EB43032A
:1051A00094EA050F00F0A780A4F10104D5F1200EC8
:1051B0000DDB02FA0EFC22FA05F2801841F1000123
:1051C00003FA0EF2801843FA05F359410EE0A5F1F7
:1051D00020050EF1200E012A03FA0EFC28BF4CF028
:1051E000020C43FA05F3C01851EBE37101F00045DE
:1051F00007D54FF0000EDCF1000C7EEB00006EEBEB
:105200000101B1F5801F1BD3B1F5001F0CD3490874
:105210005FEA30004FEA3C0C04F101044FEA4452CB
:1052200012F5800F80F09A80BCF1004F08BF5FEA52
:10523000500C50F1000041EB045141EA050130BD32
:105240005FEA4C0C404141EB010111F4801FA4F1D5
:105250000104E9D191F0000F04BF01460020B1FA2A
:1052600081F308BF2033A3F10B03B3F120020CDA62
:105270000C3208DD02F1140CC2F10C0201FA0CF040
:1052800021FA02F10CE002F11402D8BFC2F1200CA5
:1052900001FA02F120FA0CFCDCBF41EA0C0190405B
:1052A000E41AA2BF01EB0451294330BD6FEA0404A4
:1052B0001F3C1CDA0C340EDC04F11404C4F120028F
:1052C00020FA04F001FA02F340EA030021FA04F3A1
:1052D00045EA030130BDC4F10C04C4F1200220FAF8
:1052E00002F001FA04F340EA0300294630BD21FA36
:1052F00004F0294630BD94F0000F83F4801306BFFC
:1053000081F480110134013D4EE77FEA645C18BFEF
:105310007FEA655C29D094EA050F08BF90EA020F86
:1053200005D054EA000C04BF1946104630BD91EA7E
:10533000030F1EBF0021002030BD5FEA545C05D181
:105340004000494128BF41F0004130BD14F58004C0
:105350003CBF01F5801130BD01F0004545F0FE4134
:1053600041F470014FF0000030BD7FEA645C1ABF69
:10537000194610467FEA655C1CBF0B46024650EAA0
:10538000013406BF52EA033591EA030F41F40021CC
:1053900030BD00BF90F0000F04BF0021704730B552
:1053A0004FF4806404F132044FF000054FF0000127
:1053B00050E700BF90F0000F04BF0021704730B5E8
:1053C0004FF4806404F1320410F0004548BF4042BD
:1053D0004FF000013EE700BF42004FEAE2014FEA12
:1053E00031014FEA02701FBF12F07F4393F07F4FED
:1053F00081F06051704792F0000F14BF93F07F4F1F
:10540000704730B54FF4607401F0004521F0004161
:1054100020E700BF50EA010208BF704730B54FF0E7
:1054200000050AE050EA010208BF704730B511F0EC
:10543000004502D5404261EB41014FF4806404F124
:1054400032045FEA915C3FF4DCAE4FF003025FEAA6
:10545000DC0C18BF03325FEADC0C18BF033202EB2E
:10546000DC02C2F1200300FA03FC20FA02F001FA88
:1054700003FE40EA0E0021FA02F11444C1E600BF27
:1054800070B54FF0FF0C4CF4E06C1CEA11541DBFDA
:105490001CEA135594EA0C0F95EA0C0F00F0DEF8A5
:1054A0002C4481EA030621EA4C5123EA4C5350EA8A
:1054B000013518BF52EA033541F4801143F48013DB
:1054C00038D0A0FB02CE4FF00005E1FB02E506F06C
:1054D0000042E0FB03E54FF00006E1FB03569CF0C1
:1054E000000F18BF4EF0010EA4F1FF04B6F5007FC7
:1054F00064F5407404D25FEA4E0E6D4146EB060639
:1055000042EAC62141EA55514FEAC52040EA5E50C1
:105510004FEACE2EB4F1FD0C88BFBCF5E06F1ED86B
:10552000BEF1004F08BF5FEA500E50F1000041EBA2
:10553000045170BD06F0004646EA010140EA02004F
:1055400081EA0301B4EB5C04C2BFD4EB0C0541EA71
:10555000045170BD41F480114FF0000E013C00F386
:10556000AB8014F1360FDEBF002001F0004170BDAA
:10557000C4F10004203C35DA0C341BDC04F11404C3
:10558000C4F1200500FA05F320FA04F001FA05F24F
:1055900040EA020001F0004221F0004110EBD3701C
:1055A00021FA04F642EB06015EEA430E08BF20EA48
:1055B000D37070BDC4F10C04C4F1200500FA04F3EB
:1055C00020FA05F001FA04F240EA020001F000417D
:1055D00010EBD37041F100015EEA430E08BF20EAF0
:1055E000D37070BDC4F1200500FA05F24EEA020E38
:1055F00020FA04F301FA05F243EA020321FA04F067
:1056000001F0004121FA04F220EA020000EBD3701D
:105610005EEA430E08BF20EAD37070BD94F0000F1D
:105620000FD101F00046400041EB010111F4801F51
:1056300008BF013CF7D041EA060195F0000F18BF02
:10564000704703F00046520043EB030313F4801F3E
:1056500008BF013DF7D043EA0603704794EA0C0FF8
:105660000CEA135518BF95EA0C0F0CD050EA41060E
:1056700018BF52EA4306D1D181EA030101F000418B
:105680004FF0000070BD50EA410606BF10461946B3
:1056900052EA430619D094EA0C0F02D150EA0136BF
:1056A00013D195EA0C0F05D152EA03361CBF104600
:1056B00019460AD181EA030101F0004141F0FE419F
:1056C00041F470014FF0000070BD41F0FE4141F423
:1056D000780170BD70B54FF0FF0C4CF4E06C1CEA23
:1056E00011541DBF1CEA135594EA0C0F95EA0C0FD8
:1056F00000F0A7F8A4EB050481EA030E52EA033593
:105700004FEA013100F088804FEA03334FF08055B3
:1057100045EA131343EA12634FEA022245EA1115E0
:1057200045EA10654FEA00260EF000419D4208BF91
:10573000964244F1FD0404F5407402D25B084FEA3E
:105740003202B61A65EB03055B084FEA32024FF4EA
:1057500080104FF4002CB6EB020E75EB030E22BF47
:10576000B61A754640EA0C005B084FEA3202B6EB07
:10577000020E75EB030E22BFB61A754640EA5C00B6
:105780005B084FEA3202B6EB020E75EB030E22BF46
:10579000B61A754640EA9C005B084FEA3202B6EB47
:1057A000020E75EB030E22BFB61A754640EADC0006
:1057B00055EA060E18D04FEA051545EA16754FEA68
:1057C00006164FEAC30343EA52734FEAC2025FEA86
:1057D0001C1CC0D111F4801F0BD141EA00014FF015
:1057E00000004FF0004CB6E711F4801F04BF0143E6
:1057F0000020B4F1FD0C88BFBCF5E06F3FF6AFAE02
:10580000B5EB030C04BFB6EB020C5FEA500C50F191
:10581000000041EB045170BD0EF0004E4EEA113114
:1058200014EB5C04C2BFD4EB0C0541EA045170BD1B
:1058300041F480114FF0000E013C90E645EA060E5F
:105840008DE60CEA135594EA0C0F08BF95EA0C0F8D
:105850003FF43BAF94EA0C0F0AD150EA01347FF4D5
:1058600034AF95EA0C0F7FF425AF104619462CE7AC
:1058700095EA0C0F06D152EA03353FF4FDAE10460F
:10588000194622E750EA410618BF52EA43067FF460
:10589000C5AE50EA41047FF40DAF52EA43057FF4F0
:1058A000EBAE12E74FF0FF3C06E000BF4FF0010CFB
:1058B00002E000BF4FF0010C4DF804CD4FEA410C5F
:1058C0007FEA6C5C4FEA430C18BF7FEA6C5C1BD02C
:1058D00001B050EA410C0CBF52EA430C91EA030FAD
:1058E00002BF90EA020F0020704710F1000F91EA0A
:1058F000030F58BF994208BF90422CBFD8176FEAD8
:10590000E37040F0010070474FEA410C7FEA6C5CA5
:1059100002D150EA013C07D14FEA430C7FEA6C5CAC
:10592000D6D152EA033CD3D05DF8040B704700BFD8
:105930008446104662468C461946634600E000BF26
:1059400001B5FFF7B7FF002848BF10F1000F01BDF8
:105950004DF808EDFFF7F4FF0CBF012000205DF8C3
:1059600008FB00BF4DF808EDFFF7EAFF34BF012048
:1059700000205DF808FB00BF4DF808EDFFF7E0FFE1
:1059800094BF012000205DF808FB00BF4DF808ED32
:10599000FFF7CEFF94BF012000205DF808FB00BF99
:1059A0004DF808EDFFF7C4FF34BF012000205DF87B
:1059B00008FB00BF4FEA410212F5001215D211D5C3
:1059C0006FF47873B3EB625212D94FEAC12343F0FC
:1059D000004343EA505311F0004F23FA02F018BF7E
:1059E000404270474FF00000704750EA013005D147
:1059F00011F0004008BF6FF0004070474FF000000A
:105A0000704700BF4A0011D212F5001211D20DD515
:105A10006FF47873B3EB62520ED44FEAC12343F0B4
:105A2000004343EA505323FA02F070474FF000005E
:105A3000704750EA013002D14FF0FF3070474FF00D
:105A4000000070474FEA4102B2F1E04324BFB3F5D2
:105A5000001CDCF1FE5C0DD901F0004C4FEAC002E5
:105A60004CEA5070B2F1004F40EB830008BF20F0C9
:105A70000100704711F0804F21D113F13872BCBF83
:105A800001F00040704741F480114FEA5252C2F1D8
:105A90001802C2F1200C10FA0CF320FA02F018BF21
:105AA00040F001004FEAC1234FEAD32303FA0CFC74
:105AB00040EA0C0023FA02F34FEA4303CCE77FEA03
:105AC000625307D150EA01331EBF4FF0FE4040F44D
:105AD0004000704701F0004040F0FE4040F40000FC
:105AE000704700BF80F0004002E000BF81F000413D
:105AF00042001FBF5FEA410392EA030F7FEA226C74
:105B00007FEA236C6AD04FEA1262D2EB1363C1BF03
:105B1000D218414048404140B8BF5B42192B88BF72
:105B2000704710F0004F40F4000020F07F4018BF95
:105B3000404211F0004F41F4000121F07F4118BFB5
:105B4000494292EA030F3FD0A2F1010241FA03FC5D
:105B500010EB0C00C3F1200301FA03F100F0004345
:105B600002D5494260EB4000B0F5000F13D3B0F10D
:105B7000807F06D340084FEA310102F10102FE2A7C
:105B800051D2B1F1004F40EBC25008BF20F00100EC
:105B900040EA03007047490040EB000010F4000F9A
:105BA000A2F10102EDD1B0FA80FCACF1080CB2EB2D
:105BB0000C0200FA0CF0AABF00EBC250524218438C
:105BC000BCBFD0401843704792F0000F81F4000131
:105BD00006BF80F400000132013BB5E74FEA410304
:105BE0007FEA226C18BF7FEA236C21D092EA030F70
:105BF00004D092F0000F08BF0846704790EA010FEA
:105C00001CBF0020704712F07F4F04D1400028BF16
:105C100040F00040704712F100723CBF00F50000F8
:105C2000704700F0004343F0FE4040F4000070472E
:105C30007FEA226216BF08467FEA236301464202DA
:105C400006BF5FEA412390EA010F40F480007047ED
:105C50004FF0000304E000BF10F0004348BF404293
:105C60005FEA000C08BF704743F0964301464FF0CF
:105C700000001CE050EA010208BF70474FF000032B
:105C80000AE000BF50EA010208BF704711F000436C
:105C900002D5404261EB41015FEA010C02BF84463C
:105CA0000146002043F0B64308BFA3F18053A3F59B
:105CB0000003BCFA8CF2083AA3EBC25310DB01FAE2
:105CC00002FC634400FA02FCC2F12002BCF1004F66
:105CD00020FA02F243EB020008BF20F001007047F7
:105CE00002F1200201FA02FCC2F1200250EA4C004B
:105CF00021FA02F243EB020008BF20EADC70704791
:105D00004FF0FF0C1CEAD0521EBF1CEAD15392EA9E
:105D10000C0F93EA0C0F6FD01A4480EA010C40027A
:105D200018BF5FEA41211ED04FF0006343EA5010D4
:105D300043EA5111A0FB01310CF00040B1F5000F16
:105D40003EBF490041EAD3715B0040EA010062F1C5
:105D50007F02FD2A1DD8B3F1004F40EBC25008BFAF
:105D600020F00100704790F0000F0CF0004C08BFCD
:105D700049024CEA502040EA51207F3AC2BFD2F19A
:105D8000FF0340EAC250704740F400004FF00003A8
:105D9000013A5DDC12F1190FDCBF00F000407047E2
:105DA000C2F10002410021FA02F1C2F1200200FA20
:105DB00002FC5FEA310040F1000053EA4C0308BFE7
:105DC00020EADC70704792F0000F00F0004C02BF38
:105DD000400010F4000F013AF9D040EA0C0093F0B3
:105DE000000F01F0004C02BF490011F4000F013B0D
:105DF000F9D041EA0C018FE70CEAD15392EA0C0F7B
:105E000018BF93EA0C0F0AD030F0004C18BF31F0E5
:105E1000004CD8D180EA010000F00040704790F0BB
:105E2000000F17BF90F0004F084691F0000F91F05F
:105E3000004F14D092EA0C0F01D142020FD193EA25
:105E40000C0F03D14B0218BF084608D180EA0100AD
:105E500000F0004040F0FE4040F40000704740F089
:105E6000FE4040F4400070474FF0FF0C1CEAD05257
:105E70001EBF1CEAD15392EA0C0F93EA0C0F69D0B3
:105E8000A2EB030280EA010C49024FEA402037D01E
:105E90004FF0805343EA111143EA10130CF0004015
:105EA0008B4238BF5B0042F17D024FF4000C8B4205
:105EB00024BF5B1A40EA0C00B3EB510F24BFA3EBE5
:105EC000510340EA5C00B3EB910F24BFA3EB9103B5
:105ED00040EA9C00B3EBD10F24BFA3EBD10340EA0F
:105EE000DC001B0118BF5FEA1C1CE0D1FD2A3FF655
:105EF00050AF8B4240EBC25008BF20F0010070470A
:105F00000CF0004C4CEA50207F32C2BFD2F1FF03AC
:105F100040EAC250704740F400004FF00003013ADD
:105F200037E792F0000F00F0004C02BF400010F481
:105F3000000F013AF9D040EA0C0093F0000F01F095
:105F4000004C02BF490011F4000F013BF9D041EAB7
:105F50000C0195E70CEAD15392EA0C0F08D14202EA
:105F60007FF47DAF93EA0C0F7FF470AF084676E7BD
:105F700093EA0C0F04D14B023FF44CAF08466EE796
:105F800030F0004C18BF31F0004CCAD130F0004264
:105F90007FF45CAF31F000437FF43CAF5FE700BFBC
:105FA0004FF0FF3C06E000BF4FF0010C02E000BFE5
:105FB0004FF0010C4DF804CD4FEA40024FEA410387
:105FC0007FEA226C18BF7FEA236C11D001B052EA3D
:105FD000530C18BF90EA010F58BFB2EB030088BF03
:105FE000C81738BF6FEAE17018BF40F00100704772
:105FF0007FEA226C02D15FEA402C05D17FEA236C54
:10600000E4D15FEA412CE1D05DF8040B704700BF9A
:10601000844608466146FFE70FB5FFF7C9FF002831
:1060200048BF10F1000F0FBD4DF808EDFFF7F4FF6A
:106030000CBF012000205DF808FB00BF4DF808ED03
:10604000FFF7EAFF34BF012000205DF808FB00BF26
:106050004DF808EDFFF7E0FF94BF012000205DF848
:1060600008FB00BF4DF808EDFFF7D2FF94BF0120F9
:1060700000205DF808FB00BF4DF808EDFFF7C8FFF2
:1060800034BF012000205DF808FB00BF4FEA40024A
:10609000B2F1FE4F0FD34FF09E03B3EB12620DD956
:1060A0004FEA002343F0004310F0004F23FA02F0C0
:1060B00018BF404270474FF00000704712F1610F67
:1060C00001D1420205D110F0004008BF6FF000403E
:1060D00070474FF000007047014B0360704700BFEE
:1060E000F8650108014B0360704700BF10660108A6
:1060F00010B501F01FFC0B4C0A22206061680A48B1
:1061000001F0DBFF23686268934209D90748016800
:1061100020895B18636001F0C9FB0122E0602274F2
:1061200010BD00BFC80400207C1600200000002025
:1061300030B5204999B004461F4801F068FF214658
:106140001D4801F079FF01232146002201A802F039
:10615000B9F901A802F0E3F921460222054605A893
:1061600002F0D6F905A802F0DAF9044613492A46E6
:10617000234609A80EF034F90F4809A901F066FF7B
:10618000022C06D0032C07D0012C09D10A480C4957
:1061900004E009480B4901E007480B4901F056FFAC
:1061A00005A802F0DFF801A802F0DCF8012019B020
:1061B00030BD00BF2C9001087C16002037900108EC
:1061C00052900108559001085990010870B538495E
:1061D0008EB00446374801F01AFF2146354801F0D9
:1061E0002BFF20462C2102F06AF905462B4621465A
:1061F00002A8002202F066F96A1C214606A802F0F5
:1062000087F906A802F08BF9FFF7D4F804460D468B
:106210002848294901F0FBFE02A9264801F00CFF9D
:106220002649244801F0F3FE06A9224801F004FFA4
:106230002349204801F0EBFE0223224600931D482B
:106240002B4602F01AF81F490AA802F0CDF802A85E
:106250000AA902F007F906460AA802F083F836B93F
:1062600029462046FFF7A6FB1749486112E0174967
:106270000AA802F0B9F802A80AA902F0F3F8064643
:106280000AA802F06FF83EB920462946FFF792FBB4
:106290000D4B9861012401E04FF0FF3406A802F095
:1062A00061F802A802F05EF820460EB070BD00BF93
:1062B0002C9001087C1600205F900108689001086E
:1062C0006F90010877900108C804002083900108AE
:1062D000014803F0B1BE00BFE4040020034B10B539
:1062E0000446036000F0E6FD204610BDF865010895
:1062F000034B10B50446036000F0DCFD204610BDE2
:106300001066010838B5204C4FF080401F4D02F058
:1063100015FB2089022101F0F1F9002220891C4996
:1063200001F038FD28464FF4E13102F021FD284606
:10633000184901F08BFE2846174901F068FE2846EF
:10634000164901F083FE2846154901F07FFE04F14D
:1063500048010922134800F09BFE04F15001092274
:10636000114800F095FE04F10C0102220F4800F0E4
:106370008FFE0F480F4900F0C9FE0F480F49BDE8D6
:10638000384000F0C3BE00BFC80400207C160020C7
:10639000F16000088F900108A7900108B5900108EE
:1063A000B9900108C9900108DD900108F09001083A
:1063B000FA9001083161000800910108CD610008E0
:1063C00070B5624988B0624801F021FE61496048B9
:1063D00001F01DFE604803F0F5FD5D485F4901F0E6
:1063E00035FE5D4803F0C4FE0028FAD15A4803F098
:1063F000C9FE073007281DD8DFE800F01916131072
:106400000D0A07045248564916E05148554913E011
:106410004F48554910E04E4854490DE04C48544906
:106420000AE04B48534907E04948534904E04848CB
:10643000524901E046485249524C01F007FE04F12E
:106440001C0003F0B1FEFEF7C7FF0225C4E91401EA
:106450004D493F4801F0DBFDD4E9142300953C4849
:1064600001F00BFF49493A4801F0D1FD0A22A16928
:10647000374801F04EFE04F11C0003F085FEFEF7E4
:10648000ABFFC4E912014249314801F0C0FDD4E933
:10649000122300952E4801F0F0FE3E492C4801F0F1
:1064A000B6FD0A2261692A4801F033FE208901F015
:1064B000FDF93949E060264801F0A9FDE1680A22AA
:1064C000234801F026FED4E91401D4E91223CDE9D2
:1064D0000001E16804F15800029130490DF080FF9D
:1064E00004F158012E4800F05FFE01F023FA4FF44A
:1064F0007A73B0FBF3F02B4B4FF46162B0FBF3F611
:1065000003FB16063C23B0FBF2F5B0FBF3F102FBF4
:10651000150503FB1100B6FBF2F2B5FBF3F3009097
:10652000214904F1A3000DF05BFF04F1A301084829
:1065300001F08CFD04A802F051FA04A9044801F00E
:106540007BFD04A801F00EFF08B070BD0D9101089D
:106550007C16002033910108E404002041910108D9
:1065600051910108549101086B910108869101082D
:10657000A6910108C2910108D4910108F091010887
:1065800004920108C8040020129201082192010817
:106590003A9201084D9201086A9201087792010827
:1065A000B592010880510100C092010873B5134CE7
:1065B000002104F1EC05124E0B4600910A462846D4
:1065C00001F0A0FC32460F4928460DF095FA01F083
:1065D000B1F90D4BC4F8F40059680C4A04F11C00E1
:1065E000F83403F0E9FC204602F0E2F808492046BE
:1065F000324602B0BDE870400DF07EBAC8040020FB
:10660000C0070020D960000800000020D162000807
:10661000E560000837B57F4C7F49804801F016FDE2
:1066200004F1F8007E4941F6917202F02DF800283D
:1066300000F0BF807B49794801F008FD04F1F800C3
:10664000794901F0E4FC04F1F800784901F0DFFC3D
:1066500004F1F800764901F0DAFC04F1F80075491C
:1066600001F0D5FC04F1F800734901F0D0FC04F10D
:10667000F800724901F0CBFC04F1F800704901F018
:10668000C6FC04F1F8006F4901F0C1FC04F1F80008
:106690006D4901F0BCFC04F1F8006C4901F0B7FC55
:1066A00004F1F8006A4901F0B2FC04F1F80069490C
:1066B00001F0ADFC04F1F800674901F0A8FC04F119
:1066C000F800664901F0A3FC04F1F800644901F008
:1066D0009EFC0225634904F1F80001F098FCD4E91E
:1066E000142304F1F800009501F0C2FD04F1F80054
:1066F0005D4901F08CFC04F1F8005C4901F087FC75
:1067000004F1F800554901F082FC04F1F800584901
:1067100001F07DFC534904F1F80001F078FCD4E964
:10672000122304F1F800009501F0A2FD04F1F80035
:106730004D4901F06CFC04F1F8004C4901F067FC94
:1067400004F1F800454901F062FC04F1F800494900
:1067500001F05DFC04F1F800424901F058FC0A2206
:10676000E16804F1F80001F0D2FC04F1F8003E49C0
:1067700001F04DFC04F1F8003F4901F048FC04F140
:10678000F8003E4901F043FC04F1F8003C4901F0F7
:106790003EFC04F1F8003B4901F039FC04F1F8003B
:1067A000394901F034FC04F1F80001F039FC6524AA
:1067B0000BE01A48354901F049FC4FF0FF3027E063
:1067C0000A2001F0C9F8013C04D0314801F092FFE1
:1067D0000028F5D02E4801F08DFF38B12C4801F08B
:1067E000ADFEC1B20D4801F016FCF3E7284802F0F7
:1067F00009F830B90948274901F028FC244801F07C
:10680000D0FE234801F0C7FE214801F0CAFE012056
:106810003EBD00BFC8040020F59201087C16002090
:106820000D9301081C9301081B9401083C93010877
:106830005093010868930108F893010873930108C5
:1068400084930108A0930108D1930108D59301080E
:1068500017940108E0930108FB93010813940108C1
:106860001D9401083A9401085694010858940108AF
:10687000639401088B940108A9940108B39401085A
:106880005C940108BB940108B1940108D1940108FB
:10689000C0050020E394010830B5254C85B0D4F83C
:1068A000F45001F047F8854202D90023C4F8F430CF
:1068B00001F040F81F4AD4F8F4109468401AA0423E
:1068C0000DD9FFF77DFD01F035F8194BC3F8F40041
:1068D000FFF7A0FE0A220146174801F01AFC144CEB
:1068E000217C002922D0002020741449124801F094
:1068F0008EFB01F01FF82268811A0A220E4801F06F
:10690000DCFBD4E91401D4E91223CDE90001E168EC
:1069100004F1580002910A490DF062FD094804F1A2
:10692000580105B0BDE8304000F03EBC05B030BDB8
:10693000C8040020000000207C160020F29401080A
:1069400077920108B592010810B5013100239342F6
:106950000ED0040F092C01D8303400E0373401F890
:10696000014C01330024000101F8024BDBB2EEE7D9
:1069700010BD00001F4B10B51A88032A04D804204C
:106980000146188006F0E6FF4FF000604FF4A0418A
:1069900006F0D6FF1848012421460470174807F076
:1069A000F3F906F073F805F05BFD2146402007F08F
:1069B000A9FA6FF07F4005F0BFFEE72005F038FF31
:1069C0000F490C7005F094FD7D2007F0BFFA18B157
:1069D0000C4B1C7007F0CEFA40F6B83005F0E0FD25
:1069E00006F032FB06F0ACFD074A084901201070A2
:1069F000087010BDA417002080170020000430008C
:106A0000A416002020210020301700202617002087
:106A1000304B10B51A88042A04D8052104201980A7
:106A200006F098FF2C48017811B12C4802F0E6FBE3
:106A3000294C237853B127480288052A04D8062117
:106A40000180042006F086FF02F05CFC217861B131
:106A5000234C23784BB92348027832B122490C7871
:106A60001CB9224B18780028E2D0214A117800295D
:106A7000DED1204C2378002BDAD11C480278012A81
:106A80000FD01D4969B1134C2388062B04D8072168
:106A90000420218006F05EFFFFF734FC134A01203A
:106AA000107016490029C3D00A4C2388072B04D83C
:106AB00008210420218006F04DFFFFF7EDFE20881D
:106AC0000828B5D8034A09210420118006F042FFA6
:106AD000AEE700BFA417002030170020CD730008D8
:106AE000E516002026170020A216002058060020D8
:106AF000A3160020202100200563000899680008E3
:106B0000524B70B51A6812B11868411E1960504B8B
:106B10001A783AB14F4A1078002829D04E490029F6
:106B200049D125E04D4C206810B12368591E0FE073
:106B30004B490B78E3B94B4A1078C8B94A490B78EE
:106B4000B3B94A4D2A782AB1E72005F0EBFE1421AB
:106B500021600DE04648017800292FD1E72005F09B
:106B600095FE44483D4B0178002935D032221A6009
:106B70003F4B1A7832B1404D287818B92EE0416861
:106B80004B1C43603D490B68B3F57A7F0FD300235C
:106B90000B6007F057F93A484FF6FF7102888A42B6
:106BA00053D001800420BDE8704006F0D3BE0868D1
:106BB000421C0A6070BD00F06DFCD9E7314B1A78B9
:106BC000002ACBD04FF6FF7005F0B6FDE72005F0A8
:106BD0002FFE01202870CBE76422C8E721490B78FB
:106BE00093B1294847F22F5243689342C7D9BFF364
:106BF0004F8F264C2648E56805F4E06646EA000219
:106C0000E260BFF34F8FFEE7154E347834B920466B
:106C100005F09CFF40F6B73290420DD8002005F0F9
:106C200095FF41F657318842ACD9002005F096FF18
:106C3000184B01201870A5E7204605F08FFF2A7831
:106C4000002A9FD1012131709CE770BD28210020CE
:106C500060170020F409002095740008242100200A
:106C6000D4160020A3160020A5160020A41600208C
:106C700030170020A1160020E51600202C2100204E
:106C8000A4170020A21600205806002000ED00E006
:106C90000400FA05D216002008B5094B186006F06A
:106CA0007DF9002006F0C2F9064805F0FDFB06F06C
:106CB0008BF906F0A9F9BDE8084008F063B800BFF9
:106CC000C0020020A0860100074B1868052808D1E3
:106CD00006490A7A012A04D1887A0B7BC11AC8B204
:106CE00070470020704700BFA817002058060020FA
:106CF0000D4B10B51868052813D10C4C217A0129C9
:106D00000FD16289A389D01A012804D10021032060
:106D1000217208F0A2F9A389E218591C907BA18185
:106D200010BD4FF0FF3010BDA817002058060020FE
:106D300008B50C4B1968052912D10B4B1A6D99181F
:106D400081F85400501CB0F5807F08BF0020186502
:106D500005F0F4FF20B16420BDE8084005F0A4BBB5
:106D600008BD00BFA81700205806002070B5234AB0
:106D700092F85431012B3FD0D2F85801B0F5807F02
:106D800002D10021C2F85811D2F85831126D1B48B7
:106D9000934203D1002180F8541170BD8CBFC3F51C
:106DA0008072C3EB0202154CC0F85C21D4F85C5130
:106DB00099B2402D07D94033403DC4F85831C4F84A
:106DC0005C51402606E0E8180023AEB2C4F8580132
:106DD000C4F85C310A4A01255018C021324684F8B3
:106DE000545108F0B1F82846314608F0B7F9284662
:106DF000BDE8704008F020B970BD00BF5806002003
:106E0000AC060020094B10B593E81400083318684D
:106E100010180AD008220649FFF796FD05492046BA
:106E20000422BDE81040FFF78FBD10BDE8F7FF1F3B
:106E30006F0200207F02002013B5084C0021009152
:106E40000A460B46204601F05DF80549054A2046F2
:106E500002B0BDE810400CF04FBE00BFB8070020E4
:106E6000D9600008C007002038B50D460446AC4282
:106E700003D254F8043B9847F9E738BD08B50748F2
:106E80000749FFF7F1FF07480749FFF7EDFF0748FC
:106E90000749BDE80840FFF7E7BF00BF389B01087E
:106EA000389B0108389B0108989B0108989B0108B2
:106EB000989B01080CF01CBF08B5072006F06AFC7F
:106EC000FEE70000074A08B513680749181888420A
:106ED000106004D9082006F05DFC0CF047FE18464F
:106EE00008BD00BF0C000020004800204FF0FF301C
:106EF00070470120704708B50C2006F04BFCFEE7F8
:106F0000014B1868704700BFC4070020064B0246BB
:106F1000582000FB013101F1080303CB10605160E0
:106F200018689060704700BFC4070020014BD3F879
:106F300064017047C4070020064B0246142000FB82
:106F4000013101F5B67303CB106051601868906091
:106F5000704700BFC40700200E4B2DE9F041D3F865
:106F6000647180460024BC4211DA14256543094E41
:106F70004146701900F5B6700C220DF07DFA20B96B
:106F80007519D5F86801BDE8F0810134EBE7002000
:106F9000BDE8F081C40700202DE9F04788B08146A4
:106FA00068460D4601F020FA1E4B0024D3F800A0DD
:106FB00054452DDA55B3582666431A4F494607F112
:106FC000040808EB060004300C220DF055FAE8B96D
:106FD00028460DF049FA06F11001402834BF024658
:106FE000402208EB010029460CF0F1FEBE190122F7
:106FF00086F85820694604A8746801F017FA04A8B6
:10700000A047044604A801F0ADF903E00134CFE73E
:107010004FF0FF34684601F0A5F9204608B0BDE8FE
:10702000F08700BFC407002038B50546064C28B1DC
:1070300005F024FC012384F8303238BD05F0CCFB88
:1070400084F8305238BD00BFC4070020024B002234
:107050001A6006F095B800BF5C060020034A044899
:1070600000231370036006F0C3B800BFA31600200E
:107070005C060020044B0549002001221A700860BC
:107080004FF4C02006F056B8A31600205C0600207E
:107090002DE9F843044691460F4689B380B3194B56
:1070A000D3F864510A2D2BD00026AE4216484FF07B
:1070B00014010CDA71434258BA4206D14118081D36
:1070C0000C2221460DF0D8F9D0B10136EDE7694325
:1070D000A0F5B47808EB01064218101D0021C6F88F
:1070E000687186F878910C220CF094FE2068616833
:1070F00006F5B67303C3A06801351860C8F864517B
:10710000BDE8F883C40700202C0900202DE9F84FC2
:1071100004468946002941D000283FD0204B1D68F5
:10712000042D3BD00027AF421E4E4FF058080FDA17
:1071300008FB07F856F80810494507D106EB080286
:10714000101D21460C220DF097F938B30137EAE7FC
:1071500008FB05F8A6F1040A0AEB080708F110007D
:10716000C7F804900021402230180CF053FE06EBC3
:107170000801081D0C2200210CF04CFE20686168FB
:1071800007F1080203C2A3680020013507F1040BD0
:1071900087F858001360543746F8045CBDE8F88F50
:1071A000C4070020C807002007B503460A4665212A
:1071B0000091034819463C2308F0FCF90EBD00BFBE
:1071C000F809002073B5002B0CBF65234523064644
:1071D0000D461446009331462A462346014808F0DE
:1071E000E9F97CBDF809002010B5064C206803F0D1
:1071F0004BFC2368013303D0411E4842484110BD77
:10720000012010BD10000020F0B5274B064618786D
:1072100087B00F46002843D124490A78002A3FD17D
:10722000FFF7E2FF044600283AD1214D8DF80C000B
:107230002B688DF80D008DF80E008DF80F0006A953
:10724000580901EB800203F01F01012000FA01F050
:1072500052F80C1C0494014342F80C1C04A841F29F
:1072600088320592009003A9581C2246234604F058
:10727000A9FA002816DD2B6806A95D0901EB850037
:1072800050F80C5C03F01F0245FA02F515F00100FE
:1072900008D0184631463A46234604F033FB01E055
:1072A0004FF0FF3007B0F0BDE4160020E5160020D7
:1072B0001000002038B50B4B054618780C4668B90D
:1072C00009490A7852B9FFF78FFF034630B90748DA
:1072D00029462246006804F093FB38BD4FF0FF308A
:1072E00038BD00BFE4160020E51600201000002085
:1072F00030B51F48ADF57B7D07F0A0FF002834D1E5
:107300001C481D4B06901D4D1D4805931D491E4AE6
:107310001E4B0A950C901E4D1E48079108920B9328
:107320001D491E4A1E4B0F9511901E4D1E481F4CA5
:107330000D910E921E491F4A10931F4B14951690E3
:1073400061AD17A8129113921593099404900EAC95
:10735000039505F093FF284605F096FF0094044836
:10736000164903AA05AB07F070FF0DF57B7D30BD14
:10737000F809002009720008B57200084D70000875
:1073800035790008757000085D70000829700008E4
:107390000D6F00082D6F000875890008016F000847
:1073A000996F0008596F0008A9D20008B9D20008E7
:1073B000396F0008A176000895D20008E8F7FF1F92
:1073C000014808F0C2BE00BFF809002030B5022015
:1073D00011228DB0014604F03FF9051E28DB154946
:1073E00007A808F078F8022316200024ADF80C3026
:1073F0008DF80E003321E0220123BB208DF81140CF
:107400008DF80F108DF810208DF812308DF81300C4
:107410000324102203A9009101920023132228467D
:1074200007A904F0F7FA013CF3D1284604F042F929
:107430000DB030BDE8F7FF1F30B5134C87B0FFF734
:1074400057FF204607F0FDFE204608F00FFB0546DB
:10745000FFF7BCFF204608F092F803A803F0CCFC2D
:107460009DF80D209DF80C300092082104A8074AD1
:107470000CF084FF064804A93C220123FFF7A2FE7A
:10748000284607B030BD00BFF8090020129501085A
:107490001895010838B5114CD4F8585B2DB1D4F8C3
:1074A000581B4B1EC4F8583B38BDD4F85C3B0C4A03
:1074B00052F8230005F068F9E72005F0B9F9094A08
:1074C0006420D4F85C1BC4F8580B50684B1C8342F2
:1074D000C4F85C3BA8BFC4F85C5B38BDC40700209F
:1074E0008C650108100000207FB5022001210622D2
:1074F00004F0B2F8041E23DB002008220223352109
:107500008DF802004FF4FA50ADF800308DF80310FA
:107510008DF804208DF805208DF806208DF80720C1
:1075200001F064FE694606461022204604F01EF96A
:107530000546304601F05AFE204604F0BBF801E053
:107540004FF0FF35284604B070BD000010B5064C62
:107550002068002805DB04F0ADF84FF0FF3323600E
:1075600010BD002010BD00BF1000002030B5A7B036
:10757000FFF7ECFF02200121062204F06DF8334BE7
:107580000028186052DB3248022216213324A0F86A
:10759000602B80F8621B80F8634B05A805F03AFE6B
:1075A0009DF814300025009533B1012B17D0294BDD
:1075B00001A803F1100502E0069A009214E00246C9
:1075C00059681868083303C2AB421046F7D101A9C5
:1075D00006AC0FC907C424F8023B1B0C23700A2415
:1075E000009D0DB9013C24D1009808B91A490091B9
:1075F000009B174C180A1D0E1A0C84F8660B4FF4EA
:10760000FA5084F8673B84F8645B84F8652B01F0DA
:10761000EDFD0E4905461022086804F5366104F0B8
:10762000A5F80446284601F0E1FD0CE04FF0FF34D8
:1076300009E07E2106A80CF036FF6A4681B206A852
:1076400004F05EF8CCE7204627B030BD10000020E3
:10765000C40700203395010804E5D0360F4B2DE90F
:10766000F041D3F8647180460024BC4211DA14253D
:1076700065430A4E4146701900F5B6700C220CF0B5
:10768000FBFE20B9751995F87801BDE8F081013449
:10769000EBE74FF0FF30BDE8F08100BFC4070020EA
:1076A00008B5FFF7DBFF0138082803D8024B19188B
:1076B000087F08BD022008BD8C65010804F056B89B
:1076C00037B50B4C002104F537650B4600910A468F
:1076D000284600F017FC28460649074A0CF00CFA29
:1076E00004F50D7003B0BDE8304007F097BD00BF52
:1076F000C4070020D9600008C007002014282DE925
:10770000F34104460E467CD8FF297AD000F0F2FD02
:1077100028B10D2C75D00F2C73D00E2C71D000F029
:107720000DFB08B1012C6CD901F0CAFA18B1A4F113
:107730001203012B65D918206043334D33492F586C
:107740002A188F42B2F8048001D1042003E0304BA4
:107750009F4203D10820012106F0E0FBADF8048030
:10776000062E4AD8DFE806F004121A222A35410014
:10777000254B182101FB043410208DF8070003224B
:107780000020A0738DF80620083436E00421182369
:107790008DF8071003FB045401212DE04820182226
:1077A0008DF8070002FB0454022125E0282118234C
:1077B0008DF8071003FB045403211DE0124A18231F
:1077C00003208DF807308DF8060003FB0424042104
:1077D00012E00D491C230320182202FB04148DF82B
:1077E00007308DF80600052106E0182202FB04543C
:1077F00000208DF807000621A173384601A906F084
:1078000063FABDE8FC8100BF1800002000080140B9
:10781000000C0140142870B504460E4642D8224B95
:10782000182202FB0030817B01293BD0022939D08C
:10783000032937D0062935D0FF2933D000F05AFD6F
:1078400030B10D2C2ED00F2C2CD00E2C00D170BDB1
:1078500000F074FA10B1012C00D870BD01F030FABC
:1078600020B1A4F11202012A00D870BD0E4D1823D8
:1078700003FB0450817B042903D120460021FFF73C
:107880003DFF012E06D11822544328192B59818817
:10789000196170BD36B91822544328192B598188B3
:1078A000596170BD70BD00BF18000020142838B5A4
:1078B000044618D81E4B182202FB0030817BFF299A
:1078C00011D004290FD005290DD000F013FD28B1E7
:1078D0000D2C08D00F2C06D00E2C04D000F02EFA60
:1078E00018B1012C01D8002038BD01F0E9F918B118
:1078F000A4F11202012AF6D90D4D182303FB0450FE
:10790000817B062906D195F8F811FF29EBD0204696
:10791000FFF7F4FE182254432D19054BAA7BA988C2
:10792000185912B906F026FA38BD06F01DFA38BD0E
:107930001800002005F0FABC044B054958680A6895
:10794000044BB2FBF3F1B0FBF1F07047001000E024
:10795000B403002040420F001FB504464FF47A7371
:107960001B4800930268A118016005F0DFFC01903C
:1079700006F068FA05F0DAFC02900298019BC21A40
:1079800003920399002903DA0198029B1A180392C3
:107990000399A1421BD20F480378002BE8D00E4A6E
:1079A00011780029E4D10398009B984204D2084A38
:1079B0001168B1F57A7FDBD3039800F57A730093F1
:1079C00001F0A0FC054A11780029F9D1D0E71FBDCC
:1079D000E016002030170020E5160020A316002036
:1079E00004F062BD13B5084C002100910A460B4615
:1079F000204600F087FA0549054A204602B0BDE856
:107A000010400CF079B800BF68130020D96000085E
:107A1000C007002038B5194B05461C88B3F8002470
:107A2000A4B290B228B94EF6EE63E01A18BF012056
:107A300006E00CBB4EF6EE63C41A624252EB040041
:107A4000840204F1006201300D4B02F58044820291
:107A5000D01884420ED22268013209D1204606F0A5
:107A6000F9F8042809D1A01C294606F0F3F838BD1E
:107A70000434EEE7802038BDAB2038BD004000085C
:107A8000FE3F000808B5084806F000F904280AD1AE
:107A90000021054806F0DEF8042804D10348BDE8BB
:107AA000084006F0F3B808BD004000080044000894
:107AB0000F4B10B51A8893B20E4A128892B21BB1BE
:107AC0000AB1AB2010BD01239C020B4BE3180B4AFB
:107AD000A21893420AD91A8892B2824204D133F88A
:107AE000020C0880002010BD043BF0E7012010BD0F
:107AF0000040000800440008FE430008024000085F
:107B0000F8B5434E06F066F8424D34884EF6EE6105
:107B1000A4B22B888C4298B24FF6FF720FD09442D9
:107B200002D0002C42D070E000286AD088426CD18C
:107B3000304606F0ABF8042869D1284632E048BB4D
:107B400004461646344D35492B8831F8145098B206
:107B5000A84208BFA6B232B2944203D10134642CC9
:107B6000F0D10FE02D4F284607F1C801FFF7A0FF25
:107B70000128F3D02846B7F8C810FFF74BFF0428B8
:107B8000ECD0F8BD0021224806F064F804283ED16C
:107B9000204837E0904238D1284606F077F804288C
:107BA00035D13046002106F055F8F8BD00282CD01C
:107BB0009042EDD016461A4D18492B8831F81450D2
:107BC00098B2A84208BFA6B232B2944203D101349F
:107BD000642CF0D10FE0114F284607F1C801FFF7E0
:107BE00067FF0128F3D02846B7F8C810FFF712FF47
:107BF0000428ECD0F8BD0021064806F02BF8042834
:107C000005D1034806F042F8F8BDFFF73BFFF8BD89
:107C100000400008004400080640000870130020DF
:107C20000644000810B50446FFF76AFF0023044A23
:107C300022F813300133642BF9D1204610BD00BF68
:107C4000701300200148FFF7EDBF00BF3A14002079
:107C5000024B18785978401A704700BF3C14002036
:107C6000064B5A781978914204D9981801328078D5
:107C70005A7070474FF0FF30704700BF3C1400202F
:107C8000054B5A781978914202D998188078704734
:107C90004FF0FF30704700BF3C14002070470000D9
:107CA000014B0360704700BF10660108034B10B51D
:107CB00004460360FFF7FEF8204610BD1066010879
:107CC000F8B5094B054693F82200164650B10C460C
:107CD0008F18BC4206D0296828468A6814F8011B10
:107CE0009047F6E73046F8BD3C14002010B50C4B29
:107CF000012293F822408CB193F823401F2C02D923
:107D00004260002010BD93F824001C1884F8251050
:107D1000411CC8B283F8240083F82300104610BD2C
:107D20003C14002000224260024A4FF47A718160C4
:107D300002607047C065010870477047014B93F8B7
:107D4000590070473C14002073B50E4C002104F11B
:107D500064050D4E0B4600910A46284600F0D2F805
:107D60006C343246094928460BF0C6FE2046FFF720
:107D7000D9FF07492046324602B0BDE870400BF0FB
:107D8000BBBE00BF3C140020C0070020D960000823
:107D9000A17C0008F0B5164618225043244B85B04C
:107DA0001C181D582348A788854205D0224BEA1A83
:107DB000544254EB020000E00020C7F346050024C3
:107DC0001DB101346D08E4B2FAE71C4B43F82410EE
:107DD000214606F00BF8012E02978DF80C5006D0C4
:107DE00003D3022E06D10C2102E0102100E008216D
:107DF0008DF80D1001208DF80E0002A805F092FEFE
:107E0000092C13D80E4A042C135D8DF8043001D9C7
:107E10000E2100E00D2100208DF80600012201A8AE
:107E20008DF805108DF8072005F056FD05B0F0BD62
:107E30001800002000080140000C0140B814002088
:107E4000E06501080D4B182273B502FB00308688EF
:107E50000025304605F0B8FEC6F346041CB10135D6
:107E60006408EDB2FAE7684600968DF8064005F022
:107E700059FE034941F825407CBD00BF1800002091
:107E8000B814002008B5034B53F8200000B1804718
:107E900008BD00BFB814002013B5084C00210091A4
:107EA0000A460B46204600F02DF80549054A2046B3
:107EB00002B0BDE810400BF01FBE00BFF814002058
:107EC000D9600008C00700202DE9F04100240746D2
:107ED0000E4625463B1919790A22304600F0F7F87C
:107EE0002E218046304600F096F801344044032CA1
:107EF0000544EFD13046F9790A2200F0E8F8281855
:107F0000BDE8F08130B58371044D9DF80C30044616
:107F1000056001714271C37130BD00BFF865010891
:107F200005480021054B017141718171C171044AFD
:107F3000044903600BF0E0BD00150020F86501085E
:107F4000C0070020D960000813B5084C002100913B
:107F50000A460B462046FFF7D5FF0549054A20464D
:107F600002B0BDE810400BF0C7BD00BF08150020EF
:107F7000D9600008C0070020014B0360704700BFB4
:107F800010660108F8B506460C468F180025BC425D
:107F900007D0336830469A6814F8011B90472D18B3
:107FA000F5E72846F8BD0000034B10B50446036012
:107FB000FEF780FF204610BD1066010838B5054663
:107FC0000C46084641B10CF04FFA2B680246DB68BC
:107FD00028462146984738BD38BD2DE9F041002498
:107FE00006460F462546BB689C420DD230682146A6
:107FF000D0F80880384600F04BFA01463046C047BA
:1080000001342D18A4B2EEE72846BDE8F08108B58A
:10801000FFF7D4FF08BD08B503689A68904708BD0C
:1080200038B50D210546FFF7F6FF0A21044628461C
:10803000FFF7F1FF001938BD38B50446FFF7CDFF53
:1080400005462046FFF7ECFF401938BD38B5044619
:10805000FFF7B4FF05462046FFF7E2FF281838BDBA
:1080600070B500238AB08DF82430012A98BF0A2207
:108070000DF12303B1FBF2F505FB1211CCB2092C73
:108080001E4601D8303400E03734E4B203F8014929
:108090002946002DEED13146FFF790FF0AB070BDA2
:1080A00010B5044622B90268C9B29268904710BD63
:1080B000D2B2BDE81040FFF7D3BF38B50446FFF792
:1080C000EFFF05462046FFF7ABFF401938BDFFF72D
:1080D000E7BFF8B506460D46144622B90368C9B293
:1080E0009A689047F8BD0A2A0CD100290BDA2D2195
:1080F000FFF791FF6942074622463046FFF7B0FF7F
:10810000C019F8BDD2B2BDE8F840FFF7A9BFFFF72C
:10811000E0BF38B50446FFF7DCFF05462046FFF711
:108120007FFF281838BD00002DE9F84319460646A0
:10813000104615461C469DF820700BF0E3FC10B964
:108140003046434907E0284621460BF0DBFC012876
:1081500005D140493046FFF731FF804674E028469C
:1081600021464FF060423C4BFDF71AFC38B92846D7
:1081700021464FF06042394BFDF7F4FB10B1304619
:108180003749E8E72846214600220023FDF7EAFBAD
:1081900038B130462D21FFF73EFF04F10044804600
:1081A00000E080462F4B4FF000090022B9450CD06B
:1081B0001046194600222C4BFDF78CFA09F10109F3
:1081C00002460B465FFA89F9F0E728462146FCF79C
:1081D000A5FF0D460446FDF715FC8146FDF7DAF8CC
:1081E00002460B4620462946FCF796FF0A22044623
:1081F0000D4630464946FFF733FF804427B33046EB
:108200001A49FFF7DBFE8044F7B1174B00222046E6
:108210002946FDF735F90D460446FDF7CBFB8146AF
:108220000A2249463046FFF754FF80444846FDF78E
:10823000C1F802460B4620462946FCF76DFF013F78
:1082400004460D46FFB2DFE74046BDE8F88300BFB5
:108250004395010847950108FFFFEF41FFFFEFC17C
:108260004B9501080000E03F000024400B930108FB
:108270009DF800100091FFF757BF37B59DF8181013
:1082800004460091FFF750FF05462046FFF7C8FE61
:1082900028183EBD13B5084C002100910A460B4634
:1082A0002046FFF72FFE0549054A204602B0BDE8EB
:1082B00010400BF021BC00BF18150020D960000849
:1082C000C007002013B5084C002100910A460B4658
:1082D0002046FFF717FE0549054A204602B0BDE8D3
:1082E00010400BF009BC00BF20150020D960000829
:1082F000C0070020014B587D704700BF28150020A3
:108300007047000013B5084C002100910A460B4647
:108310002046FFF7F7FD0549054A204602B0BDE8B3
:1083200010400BF0E9BB00BF40150020D9600008E9
:10833000C007002013B5084C002100910A460B46E7
:108340002046FFF7DFFD0549054A204602B0BDE89B
:1083500010400BF0D1BB00BF4C150020D9600008C5
:10836000C007002010B5044600680BF0C1FC204691
:1083700010BD10B50446006808B10BF0B9FC00232D
:108380002360A360636010BD38B504460D460068E5
:1083900001310BF071FF10B184E82100012038BDDC
:1083A000036810B5044613B14068884207D22046DE
:1083B000FFF7EAFF20B1A16809B922681170012016
:1083C00010BD70B50E46114604461546FFF7E8FF8E
:1083D00018B92046FFF7CDFF04E0A56020683146BC
:1083E0000CF03AF8204670BD38B50023044603600F
:1083F0004360836003730D4639B108460CF034F8CE
:10840000294602462046FFF7DCFF204638BD884259
:1084100010B50B46044607D0096819B19A68FFF7F2
:10842000D0FF01E0FFF7A5FF204610BD002310B5E7
:1084300004460360436083600373FFF7E8FF204650
:1084400010BD38B505460C4641B108460CF00CF895
:10845000214602462846FFF7B4FF01E0FFF789FFF7
:10846000284638BD03680A680BB15AB905E022B145
:10847000896811B11078404270473BB1806830B1D3
:1084800018787047184611460BF0DBBF1846704746
:108490008368994203D2006810B1405C70470020A5
:1084A0007047836810B59A4206D20468A0180BF092
:1084B000BBFF08B1001B10BD4FF0FF3010BD002204
:1084C000FFF7EFBF9A422DE9F04107460D461446EB
:1084D0001E4601D93446164638460C49FFF784FF3C
:1084E000A86884420FD82968864228BF0646002221
:1084F00011F806808A552B6838461919FFF7A1FF35
:10850000286800F806803846BDE8F0810697010823
:1085100010B58B680446FFF7D5FF204610BD0068F4
:1085200008B10BF06BBB704713B5026802AB03F8E0
:10853000011DD46819460122A0471CBDB0F8962041
:10854000B0F8943010B59A42044607D0B4F894308D
:10855000E018591C007DA4F8941010BD01680A6948
:1085600090470028F2D14FF0FF3010BDB0F89620B0
:10857000B0F8943010B59A42044604D0B4F8940090
:108580002418207D10BD01680A6990470028F5D1A4
:108590004FF0FF3010BD0023A0F89430A0F89630C3
:1085A000704710B504460069082801D003F082F82E
:1085B0000823236110BDF8B51746B0F89430B0F821
:1085C000962004469A420E4606D101680D69A847D6
:1085D00010B94FF0FF3512E0B4F89400B4F89620CB
:1085E0002118151ABD4228BF3D46143130462A468F
:1085F0000BF0EDFBB4F89430E918A4F89410284679
:10860000F8BDF0B585B004460D46164600F0DAFB1D
:108610000228074634D10121062203F01DF8002864
:1086200020612DDB23682046D9698847AB79300A61
:108630002A798DF803606E79ED798DF802004FF498
:10864000FA508DF806308DF804208DF805608DF80D
:108650000750ADF8007000F0C9FD102205466946CC
:108660002069FFF72BF80646284600F0BFFD002ED4
:1086700004DA21682046CA6A904701E0012000E040
:10868000002005B0F0BD00002DE9F04188B006469D
:108690000F46904600F096FB02284FF0000422D1CE
:1086A00008AD384645F8144D0BF0DEFE2A4681B27F
:1086B000384603F025F8A04215DD039B04A8DAB282
:1086C000190E0092C3F30742C3F30723FFF71AFC06
:1086D00030680749059B046A06910793304606A94E
:1086E0004246A04700E0204608B0BDE8F08100BF48
:1086F000F865010830B5B0F8963087B0044633B15C
:10870000B0F894209A4202D10168CB69984700F0F2
:1087100059FB022824D12069082821D0B4F89620DA
:108720007F2A1DD8410906AB03EB810300F01F022D
:10873000012101FA02F10025039553F80C2C0130B8
:108740000A4343F80C2C04A941F2883305930091A5
:108750002A4603A92B46049503F034F8A84206DC08
:10876000B4F89610B4F89430C81A07B030BD206938
:1087700006AB420903EB820151F80C2C00F01F03F9
:1087800042FA03F1CB07EBD5B4F89630E118143177
:10879000C3F180022B4603F0B5F80028E0DDB4F801
:1087A00096200AB9A4F894201018A4F89600D7E7E8
:1087B0004FF47A718160054900220160082142600E
:1087C0000161A0F89420A0F896207047286601085F
:1087D000036910B5082B044601D1002010BD00F03C
:1087E000F1FA0228F9D1206902F04EF9D0F1010026
:1087F00038BF002010BD08B5FFF7EAFF003018BFF2
:10880000012008BD70B50446FFF7E2FF01281BD028
:10881000B4F89620B4F894309A4214D1206908280C
:1088200004D002F031F90128064601D0002070BDC5
:108830002068016920468847054620B922682046FD
:10884000D36A9847F2E7012070BD70B504460E4622
:108850001546FFF7BDFF30B1206931462A46002397
:1088600003F0CEF870BD4FF0FF3070BD13B5084C6B
:10887000002100910A460B462046FFF743FB0549BD
:10888000054A204602B0BDE810400BF035B900BFE4
:1088900054150020D9600008C007002013B5084C0B
:1088A000002100910A460B462046FFF72BFB0549A5
:1088B000054A204602B0BDE810400BF01DB900BFCC
:1088C0005C150020D9600008C007002038B51A4C9C
:1088D00094F92C30002B2DD094F82D00002829D0AD
:1088E00005F070FB94F82C2094F82D5051B200291B
:1088F00095FBF1F306DD012B0BDC511E84F82C10E7
:10890000002407E0591C04DB013284F82C200224E7
:1089100000E00124084B041993F82D20511E83F820
:108920002D1005F083FB204605F060FBBDE83840C4
:1089300005F07CBB38BD00BF6415002010B50949A7
:108940000446FDF77BFB60B920460749FDF794FB21
:1089500038B906492046FDF7D3F9FDF797FB044BDC
:10896000586010BD000040C100005041000061454A
:108970006415002010B5044605F024FB001B00F12F
:108980007F02FE2A08D905F051FB204605F02EFB98
:10899000BDE8104005F04ABB054980EAE073A3EB4F
:1089A000E07381F82C00580081F82D0010BD00BF45
:1089B0006415002013B5084B04465868091802A82E
:1089C00040F8041D0BF074F90BF0D8F8014620466E
:1089D000FFF70AFD20461CBD6415002010B50446B3
:1089E00005F0F0FA01462046FFF7E4FF204610BDEF
:1089F00013B5084C002100910A460B462046FFF7AC
:108A000081FA0549054A204602B0BDE810400BF046
:108A100073B800BF94150020D9600008C00700207B
:108A200013B5084C002100910A460B462046FFF77B
:108A300069FA0549054A204602B0BDE810400BF02E
:108A40005BB800BFA0150020D9600008C007002057
:108A500013B5084C002100910A460B462046FFF74B
:108A600051FA0549054A204602B0BDE810400BF016
:108A700043B800BFA8150020D9600008C007002037
:108A8000014B0360704700BF10660108426D836DA3
:108A9000D01A00F03F007047426D836D9A4203D0B8
:108AA000816D4018007D70474FF0FF307047426D78
:108AB000836D9A4209D0816D4218816D137D4A1CE5
:108AC00002F03F018165184670474FF0FF30704754
:108AD000D0F8A43070B504460E46186840F22771ED
:108AE00005F001FD28B9D4F89C20D4F8A0008242FA
:108AF00013D1D4F89C506B1C03F03F05D4F8A02090
:108B0000954213D0EFF31080C30744D5D4F89C10DE
:108B1000D4F8A030994209D13DE0D4F8A410012244
:108B2000086840F2277105F0B6FCE2E7D4F8A430FB
:108B300040F22771186805F0D6FC0028DED0D4F882
:108B4000A4208021106805F0C8FC0028D6D0D4F8F5
:108B5000A4000022006840F2277105F09CFCD4F8C4
:108B6000A030D4F8A410E2180133086892F85C1021
:108B7000C4F8A03005F0A9FCD4F8A000D4F8A420D3
:108B800000F03F01C4F8A010106840F227710122E4
:108B900005F081FCB2E7D4F89C20D4F8A410A0180A
:108BA00080F85C60C4F89C5001250868257440F288
:108BB00027712A4605F06FFC284670BD10B50446A3
:108BC000D4F89C20D4F8A0309A42F9D1207C10B976
:108BD0000022227410BDD4F8A4100868402105F0CA
:108BE0007CFC0028F2D0F3E7034B10B50446036089
:108BF000FEF760F9204610BD1066010810B540F27E
:108C000025510446006805F06EFC70B1206805F03F
:108C100060FCE369C0B21A6C511C01F03F02596C50
:108C20008A4202D0196C1A645854206840F22771A5
:108C300005F059FCB8B1A3692068196C5A6C9142CF
:108C400006D140F227710022BDE8104005F023BC98
:108C50005A6C995C01325A6405F037FCA069436C88
:108C600003F03F01416410BDF8B500254FF47A735D
:108C70000446836045600B4804F15C072060482689
:108C800004F11400C4F8A41032468F61C86129466B
:108C90000BF0C0F83846294632460BF0BBF8257475
:108CA0002046F8BD686601080148FFF7A7BF00BF6E
:108CB000140200200148FFF7A1BF00BF34020020CA
:108CC000014B187C704700BFB015002073B50E4CE7
:108CD000002104F114050D4E0B4600910A4628466A
:108CE000FFF710F91C343246284609490AF004FF00
:108CF00020460849FFF7B8FF07492046324602B030
:108D0000BDE870400AF0F8BEB0150020C007002092
:108D1000D960000814020020818A000870474FF0D3
:108D2000FF307047014B0360704700BF10660108B9
:108D3000034B10B504460360FEF7BCF8204610BD97
:108D400010660108084608B5FDF7F2FF012008BDCE
:108D500008B5FDF7B9FF08BDFDF7CABF00224260A4
:108D6000024A4FF47A718160026070479066010890
:108D70000846FDF791BF000037B50D4C00210D4DA1
:108D80000B4600910A462046FFF7BCF82A460A49DE
:108D9000204608340AF0B0FE2046FFF7DFFF0749FF
:108DA00020462A4603B0BDE830400AF0A5BE00BF09
:108DB00074160020C0070020D9600008258D000827
:108DC00070470000044B187828B104480178002946
:108DD00014BF022001207047D3160020A0160020E7
:108DE00037B50B4C00210B4D0B4600910A4620462F
:108DF000FFF788F82A46204607490AF07DFE074912
:108E000004F108002A4603B0BDE830400AF074BE01
:108E10008C160020C0070020D9600008C18D000812
:108E2000002303601846704700230360184670470C
:108E30000023036018467047034610B548F210043B
:108E4000A34208464CD00CDC48F20102934223D0E6
:108E5000501C83422AD0992B65D1334B0121997341
:108E600010BD48F28004A3420FD0B3F5084F4AD09A
:108E700048F24000834256D12B4C04F110000AF016
:108E8000A6FF616A4B1C636210BD274801220021C6
:108E900002704270817010BD234C0122E270FEF717
:108EA00049FD00F5EA403030606010BD1E4CE278AC
:108EB00062B1FEF73FFD00F5EA40303060604FF4EC
:108EC0007F4003F039FCE72003F0B2FC1649002391
:108ED000CB700B724B728B72CB720B734B7310BDDA
:108EE000087D114B60B9012158604FF47F40197221
:108EF000197303F021FCE720BDE8104003F098BC93
:108F000000221A7210BD002101F0B7F901210446B8
:108F100001F0FAF9054A1068844204D1024900239D
:108F2000CB728B724B7210BD98160020100000207F
:108F3000F0B50B7891B004460D4616462BB1032AC6
:108F400055D8DFE802F002113C3C20460BF08CFAC9
:108F500002460120009000200190029003900490AE
:108F60000590214603463DE008460BF07DFA0026B9
:108F700047088DF81E600235BE4210D015F8021C5D
:108F800015F8012C8DF81C108DF81D2007A8002164
:108F900010220BF0A7FB08AB98550136EBE72046F3
:108FA0000BF062FA01210023024608A88DE8420076
:108FB00004900293084603930593214612E00BF0B8
:108FC00053FA074628460BF04FFA012118221E23B8
:108FD0004FF0020E8DE80E40059004953046214674
:108FE0003A46002302F048FE044981F82800034B6A
:108FF000012283F8292011B0F0BD00BF981600208F
:109000001FB50A2200234FF461504FF461618DE8CF
:109010000F00064B44F620621A60684601A902AAB6
:1090200003AB01F035FE05B000BD00BF5C170020AA
:109030001FB50023009301930293039301A869468F
:1090400002AA03AB01F0ECFD05B000BD70B5002134
:109050000A4C0E2001F0EAFE102510210E2001F02E
:10906000E5FE00212A4620460AF0D4FE0E202946BD
:1090700000222346BDE8704001F08CBEC2160020DD
:1090800030B5564D00249FB0FF202C706C7085F8D1
:109090002940EC702C72AC736C72AC72EC722C7355
:1090A00003F04AFBE72003F0C3FB2146224620469B
:1090B00002F0BEFD2B46012103F82B4F0E200A467D
:1090C00001F068FE454BD878012805D1642003F0F3
:1090D000E3F901F03FFAF5E710210C2001F0A6FEBC
:1090E0003F4802F074FA3F4802F016FF012002F0F8
:1090F000F7FE68463C4900F00FFE384D297895F898
:1091000029200A4318D195F83A1000295BD0FF2096
:1091100002F09AFE002856D11A24013C06D0E7201E
:1091200003F0B4FB322003F0B7F9F6E7FFF78EFF48
:109130002A4A82F83A40E0E7E72003F079FB0E2064
:109140000121002205F12A0301F0F8FD2C781CB161
:1091500002F000FF85F82800204C012194F8283007
:109160000022581C234603F82A0F0E2001F012FE9D
:1091700000200146012202F05BFD0125234603F891
:109180002B5F29462A460E2001F004FE02F0D6FC91
:10919000642003F081F9002002F09AFC84F83B502F
:1091A0004FF47F400025257303F0C6FAE72003F053
:1091B0003FFB48F2042002F061FEFFF721FF84F834
:1091C0003C501FB030BDE72003F060FBFA2003F0F5
:1091D00063F9684600F012FE8FE700BF9816002082
:1091E000B066010854020020318F0008024B1A6853
:1091F00018601046704700BF5C17002030B5364C31
:1092000085B0206403F0FCFD03F03CFD334B344893
:109210003449354A00930190344B0291039234490A
:10922000344A354802F03CFC642003F035F901254E
:10923000002002F04DFC84F83B5048F20420002549
:10924000257302F01BFE2D4B1888012831D00E200B
:1092500010212A4604F12A0301F070FD102828D1BC
:109260001D4CA278AAB994F82A301BB9012084F8C1
:109270003C000EE094F82B0058B90146012202F0A0
:10928000D7FC0121234603F82B1F0E200A4601F0CC
:1092900081FD11498A78BAB991F83C30A3B11848D8
:1092A00001F0AAFDFFF7C4FE05B0BDE83040FFF7AE
:1092B000A7BEFF2002F0C8FDFFF7C8FE0F4900243B
:1092C0000C8003F0E9FECBE74FF47F4003F034FA63
:1092D000E72003F0ADFAE2E7981600203DCD000844
:1092E00051CD0008BDCD0008E5CD0008318E000845
:1092F000218E0008298E0008398E0008A203002064
:10930000DC1600202DE9F3419A4C04F09BFD00236C
:10931000A36494F84C0048B994F84D1031B96268D0
:109320007AB3FEF707FB6468A0422AD3914C94F805
:109330003B00002840D00025E5706560257225655A
:1093400084F84C50012684F83B506572A572E57292
:10935000657302F0F3FB6FF07F40267303F0ECF9C6
:10936000E72003F065FA642003F096F894F83C10C7
:1093700011B3284602F0ACFB84F83B60FFF780FE97
:109380001AE07C4C94F83B30B3B9A07828B9FEF7CA
:10939000D1FA00F5EA4130316160002002F098FB1B
:1093A000012200234FF47F4084F83B20237303F015
:1093B000C3F9E72003F03CFA6E4C94F83C2012B15C
:1093C000FFF75EFE04E0A37813B1267A35460EB3AC
:1093D00068484178012914D1047A012C11D1C2784E
:1093E000012A0ED1032464480BF03EF8624982B290
:1093F000012002F01BFB631E13F0FF04F3D15D4854
:1094000044705C4C217A2346E1B194F84D20002A47
:1094100075D017E0314632463046666002F008FCEF
:1094200056480BF021F8564F804638460BF01CF892
:1094300000970190791F03204246334602F094FBC7
:10944000A670C5E793F8570020B14E4800213A2294
:109450000AF0E0FC474B93F88E2032B9587A002886
:1094600059D19B7A002B56D1B8E01C7AFCB193F805
:109470004D00E0B9597A00295ED018E0234603F880
:109480002D2F0E200121032201F084FC394C0025F0
:109490004FF6FF70257303F04FF9E72003F0C8F98A
:1094A000FEF764F8A84271DB256501236372314C35
:1094B000617A002900F09280A27ABAB9FDF7BCFF68
:1094C000002811D002DA4FF47F0007E0012801D113
:1094D0002D4803E0022803D14FF0FF1003F02CF9D0
:1094E000E72003F0A5F901E00120A072FDF768FF75
:1094F000002873D11F4BD872987258726EE094F89E
:1095000057100029A6D1642002F0C6FF04F15400D0
:1095100001F002FC9EE7FEF719F8164900224FF40D
:109520007F40CA728A724A7203F006F9E72002B0DD
:10953000BDE8F04103F07CB95D7B002DA6D04FF46F
:109540007F0003F0F9F80B4C627B002A96D0E720ED
:1095500003F06EF94FF4FA7002F09EFFE72003F07B
:1095600075F94FF4FA7002F097FF657B691ECAB275
:109570006273E8E798160020570200205E02002080
:1095800063020020EC1600200060FF0094F84C30CD
:1095900023BB206D411C0229216502D1012284F8E0
:1095A0004C20FDF7A1FF00280E4C09DA206D411C6C
:1095B0000229216502D1012284F84C20022300E017
:1095C00003236373074C0121607B234603F82D0FAF
:1095D00003220E2001F0DEFB002367E702B0BDE8A6
:1095E000F08100BF9816002013B5084C00210091AF
:1095F0000A460B462046FEF785FC0549054A2046EB
:1096000002B0BDE810400AF077BA00BF281700206A
:10961000D9600008C0070020704708B5012004F099
:10962000B9F8FEE708B5032004F0B4F8FEE708B582
:10963000042004F0AFF8FEE708B5052004F0AAF80E
:10964000FEE770477047704708B503F067FEBDE856
:109650000840FDF755BA000008B5024B0BB1AFF357
:10966000008008BD0000000008B5024B0BB1FFF7F9
:1096700021FB08BDB58C000808B5024B0BB1FFF704
:1096800013FB08BDA98C000808B5024B0BB1FEF70F
:1096900053FB08BD397D000808B5024B0BB1FEF73E
:1096A0004CFB08BD3B7D000808B5024B0BB1FEF733
:1096B00027FE08BD0183000808B5012004F074FAF4
:1096C00038B1012004F080FA024B13B10020FEF7FC
:1096D000D9FB08BD857E000808B5022004F064FAB5
:1096E00038B1022004F070FA024B13B10120FEF7EA
:1096F000C9FB08BD857E000808B5042004F054FAB3
:1097000078B1042004F060FA0020064B014618806E
:1097100003F04AF9044810210122BDE8084004F092
:1097200072BE08BD7C170020002C014008B508203F
:1097300004F03AFA38B1082004F046FA024B13B1AB
:109740000320FEF79FFB08BD857E000808B51020AA
:1097500004F02AFA38B1102004F036FA024B13B1A3
:109760000420FEF78FFB08BD857E000808B5202089
:1097700004F01AFA38B1202004F026FA0E4B13B187
:109780000520FEF77FFB402004F00EFA38B14020A0
:1097900004F01AFA084810B10620FEF773FB802087
:1097A00004F002FA38B1802004F00EFA024911B137
:1097B0000720FEF767FB08BD857E000808B54FF45B
:1097C000005004F0F1F940B14FF4005004F0FCF9FE
:1097D000174B13B10D20FEF755FB4FF4804004F0FA
:1097E000E3F940B14FF4804004F0EEF9104810B1B5
:1097F0000E20FEF747FB4FF4004004F0D5F940B1CE
:109800004FF4004004F0E0F9094911B10F20FEF7D0
:1098100039FB4FF4006004F0C7F938B14FF4006031
:1098200004F0D2F9BDE8084002F0C0BD08BD00BF99
:10983000857E000808B50F48102104F01DFEC0B158
:109840000C48102104F023FE002003F06FF928B922
:10985000094B1A880A3290B2188008BD10210548B9
:10986000002204F0D0FD00200121BDE8084003F0F3
:109870009BB808BD002C01407C17002008B5024BA6
:10988000186800B1804708BD3417002008B5024BA6
:10989000586800B1804708BD3417002008B5024B56
:1098A000986800B1804708BD3417002008B5012032
:1098B00004F0D8FB50B1012004F0E6FB044B0BB1DF
:1098C000FFF704F8BDE8084004F0B0BB08BD00BFD6
:1098D000CD88000808B5022004F0C4FBB0B10C4BE1
:1098E00000224FF400301A7004F06EF9012004F0E9
:1098F000D3FA10B1012004F0D9FA04F097FB02204A
:1099000004F0C2FBBDE8084004F090BB08BD00BFF6
:10991000E516002002F0DABC00F062B838B5144950
:109920000B78012B23D1134A13680BB90B7038BD88
:10993000114C402B206881B205D94030403B20605B
:109940001360402504E09DB2C3180020236010601E
:109950000A4A5018C0212A4605F0F6FA0120294685
:1099600005F0FCFB0120BDE8384005F065BB38BDC3
:10997000AC070020B4070020B0070020AC06002090
:10998000094908B50020094B0122088003201A70FC
:1099900005F010FC064B0246188006484FF488710B
:1099A000BDE8084005F0E7BA640600206006002024
:1099B0006206002066060020074B1868052809D1BA
:1099C000064B1A68511C052A196003D10020186043
:1099D000FDF7CCB9704700BFA81700204017002042
:1099E0003A4A38B511683A4B88B23A4D18801C880B
:1099F0002988214001F4007084B244B14FF6FF552C
:109A000015609A78511CC8B29870FFF7D5FF304C9A
:109A1000304B25881A882A4002F4004188B2254636
:109A20001C4608B105F0CAF92A882388134003F4BC
:109A3000806188B230B1254B27494FF6FF321A605A
:109A400048688047224A234B11881B88194001F43B
:109A5000005081B219B11D494DF6FF70086012889F
:109A6000134003F4805398B230B1184A4EF6FF7198
:109A70001160002003F04AFE154B164918880A8829
:109A8000024002F4006398B260B114490A7812B13E
:109A900003F01CFE02E0022003F038FE0B4B4FF2F5
:109AA000FF7018600A490B480A880388134003F4C2
:109AB00080718AB242B1054B4FF6FF6018600720F3
:109AC000BDE8384003F022BE38BD00BF445C004012
:109AD000441700206C210020F8020020C803002059
:109AE000034B987A10B1034905220A60704700BF02
:109AF00048210020A8170020014B04221A6070475B
:109B0000A8170020034B1A78202A01D100201870D2
:109B1000704700BF4817002070470000212810B58B
:109B200008D111480368197801F07F02212A11D069
:109B3000022010BD2028FBD10B4B19680A780B4975
:109B400002F07F030A4A212B0CBF0B460023107042
:109B50000BB9EDE7074B044C206800248361448275
:109B600020469847204610BD68210020C59B00086C
:109B700048170020AD9B0008074B19680A7802F0CF
:109B80007F03212B05D1022801D100207047222814
:109B9000FBD00220704700BF6821002009B10220DD
:109BA00070470128FBD808467047000020B9034BD6
:109BB000082219680A82704701487047682100200E
:109BC000C002002020B9034B082219680A8270479E
:109BD0000148704768210020C0020020054B196829
:109BE000CA78042A04D8044B03EBC20104F066BE11
:109BF0000020704768210020C8020020014904F0BD
:109C00005DBE00BFE8020020014904F057BE00BF5E
:109C1000F0020020334A344BD179186810B5002483
:109C200041728472C472204605F0B8F920464FF4A0
:109C3000007105F0BBF91021204605F0C3F9402161
:109C4000204605F05FFA8021204605F04BFA2046B9
:109C500005F014FA254B204693F8641005F08CFAB1
:109C6000204605F0FAF90120214605F09FF9012070
:109C7000C02105F037FA0120202105F0A3F90120C9
:109C8000214605F0BCF902204FF4C06105F08EF9C1
:109C900002204FF4807105F025FA0220214605F0DC
:109CA000AEF90220202105F08DF90320214605F0B0
:109CB0007DF903204FF4887105F024FA0320402138
:109CC00005F05AFA03204FF4405105F098F90320AB
:109CD000214605F077F9204605F002F8044A0120F4
:109CE000106010BD1D67010868210020C00200201F
:109CF000A817002010B5FDF785F8054B002418685B
:109D0000847203F0CBFC05F06BFA02490C6010BDC5
:109D100068210020A817002038B504460D46FFF73B
:109D20001DF8204625614FF41651FFF721F8204613
:109D300038BD000013B5084C002100910A460B46BF
:109D40002046FEF7DFF80549054A204602B0BDE887
:109D5000104009F0D1BE00BF4C170020D9600008A8
:109D6000C007002070B506460D46002428460AF0BC
:109D70007BFB844208D2295D3046FEF7E3FF0120D9
:109D800002F08AFB0134F1E770BD0000F8B504462B
:109D90000E46174600252046FEF7DAFF0028FADDBA
:109DA0002046FEF7D9FFBD42C1B206D10023337071
:109DB00020461149FFF7D6FF14E00D29F6D00A29F5
:109DC000F4D0082901D07F2904D1002DE3D0013E31
:109DD000013D02E006F8011B01352046EDB2FEF719
:109DE000B1FFD8E72046FEF7B3FF002803DD204689
:109DF000FEF7B2FFF6E7F8BD04970108F0B585B0AD
:109E00000446FEF7A5FF002840F39D802046FEF79C
:109E1000A3FFC0B2772867D104F1140600212122E4
:109E2000304604F1350509F0F5FF002141222846AE
:109E300009F0F0FF04F17607002284F8762020462E
:109E40007A704249FFF78EFF204631462022FFF705
:109E50009DFF20463E49FFF785FF394601222046F7
:109E6000FFF794FF94F87630A3F130010329F0D87E
:109E7000312B0BD120463749FFF774FF2046364976
:109E8000FFF770FF20463549FFF76CFF94F8760026
:109E9000B0F1300708D020463149FFF763FF204674
:109EA00029464022FFF772FF20462E49FFF75AFF4E
:109EB00023693A4630462946984720462A49FFF703
:109EC00051FF20462949FFF74DFF20462849FFF75B
:109ED00049FF20462749FFF745FF20462649FFF75F
:109EE00041FF2046254929E069282CD1244A01ABAD
:109EF00010685168002503C3916820461960214904
:109F0000FFF730FF01AEAE5D300900F130013929B5
:109F100088BF00F1570106F00F062046FEF712FF3A
:109F200006F13001392988BF06F157012046013575
:109F3000FEF708FF0C2DE5D11349204605B0BDE81A
:109F4000F040FFF70FBF05B0F0BD00BF5895010806
:109F50005F9501088C950108C2950108ED950108EF
:109F6000339601083E96010881960108A1960108E2
:109F7000D4960108079701084697010877970108CA
:109F8000E8F7FF1F8D9701080497010838B50023F3
:109F90008DB24362044681610260836200212846DB
:109FA000FDF7ACFB28460121FDF734FC03206FF0E0
:109FB00006012071A16038BD10B50446FFF7E6FF29
:109FC000204610BD38B503790446032B05D000792F
:109FD000022802D06FF0040038BD002500220721BE
:109FE0002571208B25736573A573E57325746574DE
:109FF000A174E57429466262A262FDF77FFB2946DF
:10A00000208BFDF707FC1220FDF7A6FC0121208B19
:10A01000FDF700FC2820FDF7E3FC0121208BFDF774
:10A020006DFBFDF789FC216860610222208BFDF742
:10A03000B1FE012038BD000038B50446FDF77CFCB8
:10A04000636941F27072C31A9342606109D90320B7
:10A050006FF00102A2602071208BBDE83840FDF74F
:10A06000F1BE227912B1012A7DD110E0182B03D85C
:10A070006169CB1A636138BD7E3B3F2B01D801205B
:10A0800070E0208BFDF7DEFE6FF0020068E0092B28
:10A0900005D8208BFDF7D6FE6FF0050060E0A3F138
:10A0A0003D01532957D8642B08D9A07CE37C02FAE0
:10A0B00000F2E318197B0A43D0B21873A37C002B7B
:10A0C00044D10723A374E17C4A1CD0B20429E07474
:10A0D00049D1208BFDF7B6FE257B637B03EB052181
:10A0E00088B2FBF767F920A3D3E90023FBF7C8F98F
:10A0F000FBF7A8FC6062A27BA07B12F0800FE57BDF
:10A1000005D000F07F0105EB0122504202E005EB93
:10A11000002398B2FBF74EF913A3D3E90023FBF712
:10A12000AFF9FBF78FFCA062237B657BA07BEB186C
:10A13000E17BC018227C0918CBB29A4202D04FF0C2
:10A14000FF300DE00022A26002200BE0A17C4A1E3D
:10A15000D0B2A07438BD208BFDF774FE6FF0030001
:10A16000A0600320207138BD9A9999999999B93FB7
:10A170000379022B04D00079033818BF01207047FF
:10A18000002070478068704708B50379032B03D11E
:10A190008068FBF761FD08BD017902290CBF806A68
:10A1A000004808BD0000A0C008B50379032B03D107
:10A1B0008068FBF751FD08BD017902290CBF406A98
:10A1C000004808BD0000A0C013B5084C0021009154
:10A1D0000A460B462046FDF795FE0549054A2046EE
:10A1E00002B0BDE8104009F087BC00BF5417002042
:10A1F000D9600008C0070020002100F004B80E4B11
:10A200005B58435004310D480D4B42189A42FFF4FD
:10A21000F6AF0C4A00F003B8002342F8043B0A4BA7
:10A220009A42FFF4F9AF03F0BBF9FCF7A3FBFCF78C
:10A2300025FEFCF7EDFB7047989B0108000000200D
:10A24000C4040020C804002078210020FFF7FEBFCE
:10A2500001700B0A0A0C090E43708270C170043041
:10A2600070470170090A41700230704743185A78EC
:10A27000405C00EB022188B2704710B543189A7811
:10A28000DC78415C120402EB04625878521802EB4D
:10A29000002010BD73B544790023022C01930FD028
:10A2A000032C19D0012C2BD1164D28692E4620B134
:10A2B000296901A888470246B8B9B16801201BE0A6
:10A2C000104DE8682E4620B1E96801A8884702468B
:10A2D00058B9B16802200FE00A4D6A692E464AB1AA
:10A2E0006B6901A89847024620B1A9682046BDF8CD
:10A2F000043003E0B16803200022134600F02CFC78
:10A300007CBD00BFB0180020072830B512D8012945
:10A3100010D8EFF3108472B6012505FA00F501FAA2
:10A3200000F0054B1A6822EA050202431A60E307AF
:10A3300000D462B630BD00BF50030020F0B501214B
:10A3400087B00546FFF792FF00F48043044698B2B9
:10A3500050B3B4F5824F27D128460521FFF786FF79
:10A360000026074607353446BE4208D0284602215B
:10A37000FFF77CFF013624180435B6B2F4E7744BBE
:10A38000188E21188AB21A86D86B2418DC63D96B10
:10A390009A6B914240F0CE8093F84000002800F084
:10A3A000C9809B69992033E024F4FF4121F07F02AA
:10A3B00090B2002800F09B8048F2100294422AD00C
:10A3C0000CD8B4F5004F40F2C08048F202039C4222
:10A3D00017D9991C8C4240F0B88012E048F28000F6
:10A3E00084420ED005D848F24002944240F0AD803D
:10A3F00051E0B4F5024F04D0B4F5084F40F0A58009
:10A400006CE053498869002800F094808B692046ED
:10A4100000210A4669E00023EA1851790DF803107B
:10A420000133042BF8D1687A2B7BAA7AE97A8DF86C
:10A4300004008DF807308DF805208DF8061005F121
:10A440000D00002306AAD218C15C0133042B02F8C8
:10A45000101CF7D105F11100002306AAD218C15C27
:10A460000133042B02F80C1CF7D105F11500002371
:10A4700000AAD218C15C0133042B1174F8D13449FD
:10A4800028798A698DF81400002A53D08B692046F8
:10A490006946152229E0053500212846FFF7EDFE23
:10A4A000042100902846FFF7E8FE08210190284685
:10A4B000FFF7E3FE0C2102902846FFF7DEFE102195
:10A4C00003902846FFF7D9FE214B04909969002993
:10A4D00030D09B6920466946142206E01C488269F8
:10A4E00042B38369691D20460122984722E041F268
:10A4F00003039C4205D00C339C4202D0591E8C426F
:10A500001AD16C1D04212046FFF7B7FE39301CD14B
:10A510002D790F480021C5622046FFF7AEFE0421C9
:10A5200005462046FFF7A9FE393003D12846012110
:10A53000FFF7EAFE012009E0054A138899B28C4230
:10A5400004D0B4F5805FF5D100E0002007B0F0BD85
:10A55000B018002038B5104B5D88ADB2CDB1586849
:10A560000478211F4A4252EB01042CB1FFF7E6FEAA
:10A57000003018BF012000E02046054620B944B154
:10A58000054B93F8411021B903480022428001F0A5
:10A59000B5FD284638BD00BFB01800202DE9FF47A3
:10A5A00004468946904602F0C1FE00250190BA4B50
:10A5B0005A8890B2002840F0928003F043FC02F0E9
:10A5C000B5FE0290029901980A1A0392039B002B90
:10A5D00003DA0199029842180392B04B19680029D6
:10A5E000E5D003988842E2D3AB4A41F207001388D2
:10A5F00099B2814224D8421E91425FD240F2022396
:10A6000099425BD00DD80C2906D8082956D20029CA
:10A610004DD0062952D959E00D294CD040F20122E3
:10A620000BE041F2020081424BD8B1F5805F45D882
:10A63000B1F5017F3FD940F20722914237D13AE08C
:10A6400041F21103994236D014D841F20B008142F5
:10A6500034D005D841F2090291422FD031D82AE0F6
:10A6600041F20F0399422CD028D841F20D008142CB
:10A670001DD126E042F2060291421CD007D8B1F566
:10A68000005F14D942F20403994214D921E0B1F5D4
:10A69000804F00F0F28105D8A1F50050083801285C
:10A6A00005D808E044F20B02914200F0E6810B204D
:10A6B00003F070F8E1E1FF212170DEE14FF0FF319E
:10A6C00005E04FF0FF3121606160D6E1002121609B
:10A6D000D3E1204600213A2209F09CFBCDE15E68DF
:10A6E0003178042940F07E8101213046FFF7BEFD1C
:10A6F00005463046FFF722FE0146002840F06881FB
:10A7000041F20700771D854250D8411E8D4280F0EE
:10A71000AF8040F20222954200F0AA8011D80C2DA1
:10A7200009D8082D80F0A480002D00F05181062D5D
:10A7300040F29E80EAE00D2D00F0978040F2012368
:10A740007EE041F202039D4218D8B5F5805F00F229
:10A750008F80B5F5017F40F2888040F207218D425D
:10A7600040F036813079002104F8010B3846FFF7BC
:10A7700084FD01462046FFF76BFD29E141F204020A
:10A78000954200F0998040F2B08038460021FFF7F2
:10A7900074FD042120603846FFF76FFD60600834C7
:10A7A00006F10D07234606F11D017EE041F211027C
:10A7B00095425AD02CD841F20B039D4258D01CD858
:10A7C00041F209018D4253D000F29B8000213846AE
:10A7D000FFF753FD042120603846FFF74EFD0821A6
:10A7E00060603846FFF749FD0C21A0603846FFF74E
:10A7F00044FD04F10C0AE060E9E041F20F029542E9
:10A8000073D03BD841F20D039D4240F0E18053E00C
:10A8100042F20500854200F09D8008D841F2120204
:10A8200095423DD0B5F5005F40F2D2801DE042F286
:10A8300009018D4208D84F1EBD4216D242F20603CE
:10A840009D4240F0C58010E044F20B00854240F08C
:10A85000BF807279DFF840A038460121AAF8302085
:10A86000FFF704FDAAF83200B2E031792170AFE0C1
:10A8700038460021FFF701FD2060A9E0002138469D
:10A88000FFF7FBFCA2464AF8040B04213846FFF709
:10A89000F4FC60609BE000BFB01800205C17002053
:10A8A0003846FFF7E3FC208092E057F8040B8F4214
:10A8B00043F8040BF9D18BE000213846FFF7DDFCAB
:10A8C000042120603846FFF7D8FC08216060384634
:10A8D000FFF7D3FC04F1080AA060E46814F139031F
:10A8E00075D10121FFF710FD71E000213846FFF717
:10A8F000C4FC042120603846FFF7BFFC60600834C8
:10A9000066E0307920713F68276061E038460021B9
:10A91000FFF7B3FC042120603846FFF7AEFC0821A6
:10A9200060603846FFF7A2FC0A21A0603846FFF7B6
:10A930009DFCC4F80A000C3406F11103274606F109
:10A94000350153F8040B8B4247F8040BF9D11A88F0
:10A950003A803DE077187B79635401310429F9D1BD
:10A9600006F109000027C15DE2190137042F1171BA
:10A97000F9D106F10D000023C15CE2180133042B6C
:10A980001172F9D106F111070022B85CA118013249
:10A99000042A0873F9D106F115070023F85CE118C1
:10A9A0000133042B0874F9D106F119070021785CF2
:10A9B0006218013106291075F9D106F11F0700232D
:10A9C000F85CE2180133202B9076F9D100E0544670
:10A9D0002C4F388882B2954236D100233B8087F8CD
:10A9E000413031E0DF8EBBB273B33046032196F8BD
:10A9F00002A0FFF73BFC0746B9F1000F0CD0042181
:10AA0000701DFFF73AFC0246C8F8000006F1150178
:10AA10004846D2B209F0DBF9CAEB0707781EB0F559
:10AA2000806F07D20AF10501204671183A4609F0F5
:10AA3000CEF901E04FF0FF37B8F1000F01D088F8F0
:10AA40000070104B0022DA860E4F0020788001F053
:10AA500055FB3278042A05D1B5F5805F02D1304626
:10AA6000FFF718FC3B8899B200297FF4A0AD054898
:10AA7000C28E93B2002B7FF49AAD002004B0BDE8E3
:10AA8000F08700BFB018002007284FF001030ED850
:10AA9000EFF3108272B603FA00F006490B68184211
:10AAA0000CBF00200120D30702D462B670471846BD
:10AAB000704700BF50030020034B18800846002158
:10AAC0000A46FFF76BBD00BFB018002010B5034B5E
:10AAD0000124DC86BDE81040FFF760BDB0180020FF
